{
  "_format": "hh-sol-artifact-1",
  "contractName": "ERC3525SlotEnumerableUpgradeableWithInit",
  "sourceName": "contracts/mocks/WithInit.sol",
  "abi": [
    {
      "inputs": [
        {
          "internalType": "string",
          "name": "name_",
          "type": "string"
        },
        {
          "internalType": "string",
          "name": "symbol_",
          "type": "string"
        },
        {
          "internalType": "uint8",
          "name": "decimals_",
          "type": "uint8"
        }
      ],
      "stateMutability": "payable",
      "type": "constructor"
    },
    {
      "anonymous": false,
      "inputs": [
        {
          "indexed": true,
          "internalType": "address",
          "name": "_owner",
          "type": "address"
        },
        {
          "indexed": true,
          "internalType": "address",
          "name": "_approved",
          "type": "address"
        },
        {
          "indexed": true,
          "internalType": "uint256",
          "name": "_tokenId",
          "type": "uint256"
        }
      ],
      "name": "Approval",
      "type": "event"
    },
    {
      "anonymous": false,
      "inputs": [
        {
          "indexed": true,
          "internalType": "address",
          "name": "_owner",
          "type": "address"
        },
        {
          "indexed": true,
          "internalType": "address",
          "name": "_operator",
          "type": "address"
        },
        {
          "indexed": false,
          "internalType": "bool",
          "name": "_approved",
          "type": "bool"
        }
      ],
      "name": "ApprovalForAll",
      "type": "event"
    },
    {
      "anonymous": false,
      "inputs": [
        {
          "indexed": true,
          "internalType": "uint256",
          "name": "_tokenId",
          "type": "uint256"
        },
        {
          "indexed": true,
          "internalType": "address",
          "name": "_operator",
          "type": "address"
        },
        {
          "indexed": false,
          "internalType": "uint256",
          "name": "_value",
          "type": "uint256"
        }
      ],
      "name": "ApprovalValue",
      "type": "event"
    },
    {
      "anonymous": false,
      "inputs": [
        {
          "indexed": false,
          "internalType": "uint8",
          "name": "version",
          "type": "uint8"
        }
      ],
      "name": "Initialized",
      "type": "event"
    },
    {
      "anonymous": false,
      "inputs": [
        {
          "indexed": true,
          "internalType": "address",
          "name": "metadataDescriptor",
          "type": "address"
        }
      ],
      "name": "SetMetadataDescriptor",
      "type": "event"
    },
    {
      "anonymous": false,
      "inputs": [
        {
          "indexed": true,
          "internalType": "uint256",
          "name": "_tokenId",
          "type": "uint256"
        },
        {
          "indexed": true,
          "internalType": "uint256",
          "name": "_oldSlot",
          "type": "uint256"
        },
        {
          "indexed": true,
          "internalType": "uint256",
          "name": "_newSlot",
          "type": "uint256"
        }
      ],
      "name": "SlotChanged",
      "type": "event"
    },
    {
      "anonymous": false,
      "inputs": [
        {
          "indexed": true,
          "internalType": "address",
          "name": "_from",
          "type": "address"
        },
        {
          "indexed": true,
          "internalType": "address",
          "name": "_to",
          "type": "address"
        },
        {
          "indexed": true,
          "internalType": "uint256",
          "name": "_tokenId",
          "type": "uint256"
        }
      ],
      "name": "Transfer",
      "type": "event"
    },
    {
      "anonymous": false,
      "inputs": [
        {
          "indexed": true,
          "internalType": "uint256",
          "name": "_fromTokenId",
          "type": "uint256"
        },
        {
          "indexed": true,
          "internalType": "uint256",
          "name": "_toTokenId",
          "type": "uint256"
        },
        {
          "indexed": false,
          "internalType": "uint256",
          "name": "_value",
          "type": "uint256"
        }
      ],
      "name": "TransferValue",
      "type": "event"
    },
    {
      "inputs": [
        {
          "internalType": "uint256",
          "name": "tokenId_",
          "type": "uint256"
        },
        {
          "internalType": "address",
          "name": "operator_",
          "type": "address"
        }
      ],
      "name": "allowance",
      "outputs": [
        {
          "internalType": "uint256",
          "name": "",
          "type": "uint256"
        }
      ],
      "stateMutability": "view",
      "type": "function"
    },
    {
      "inputs": [
        {
          "internalType": "address",
          "name": "to_",
          "type": "address"
        },
        {
          "internalType": "uint256",
          "name": "tokenId_",
          "type": "uint256"
        }
      ],
      "name": "approve",
      "outputs": [],
      "stateMutability": "payable",
      "type": "function"
    },
    {
      "inputs": [
        {
          "internalType": "uint256",
          "name": "tokenId_",
          "type": "uint256"
        },
        {
          "internalType": "address",
          "name": "to_",
          "type": "address"
        },
        {
          "internalType": "uint256",
          "name": "value_",
          "type": "uint256"
        }
      ],
      "name": "approve",
      "outputs": [],
      "stateMutability": "payable",
      "type": "function"
    },
    {
      "inputs": [
        {
          "internalType": "address",
          "name": "owner_",
          "type": "address"
        }
      ],
      "name": "balanceOf",
      "outputs": [
        {
          "internalType": "uint256",
          "name": "balance",
          "type": "uint256"
        }
      ],
      "stateMutability": "view",
      "type": "function"
    },
    {
      "inputs": [
        {
          "internalType": "uint256",
          "name": "tokenId_",
          "type": "uint256"
        }
      ],
      "name": "balanceOf",
      "outputs": [
        {
          "internalType": "uint256",
          "name": "",
          "type": "uint256"
        }
      ],
      "stateMutability": "view",
      "type": "function"
    },
    {
      "inputs": [],
      "name": "contractURI",
      "outputs": [
        {
          "internalType": "string",
          "name": "",
          "type": "string"
        }
      ],
      "stateMutability": "view",
      "type": "function"
    },
    {
      "inputs": [
        {
          "internalType": "uint256",
          "name": "tokenId_",
          "type": "uint256"
        }
      ],
      "name": "getApproved",
      "outputs": [
        {
          "internalType": "address",
          "name": "",
          "type": "address"
        }
      ],
      "stateMutability": "view",
      "type": "function"
    },
    {
      "inputs": [
        {
          "internalType": "address",
          "name": "owner_",
          "type": "address"
        },
        {
          "internalType": "address",
          "name": "operator_",
          "type": "address"
        }
      ],
      "name": "isApprovedForAll",
      "outputs": [
        {
          "internalType": "bool",
          "name": "",
          "type": "bool"
        }
      ],
      "stateMutability": "view",
      "type": "function"
    },
    {
      "inputs": [],
      "name": "metadataDescriptor",
      "outputs": [
        {
          "internalType": "contract IERC3525MetadataDescriptorUpgradeable",
          "name": "",
          "type": "address"
        }
      ],
      "stateMutability": "view",
      "type": "function"
    },
    {
      "inputs": [],
      "name": "name",
      "outputs": [
        {
          "internalType": "string",
          "name": "",
          "type": "string"
        }
      ],
      "stateMutability": "view",
      "type": "function"
    },
    {
      "inputs": [
        {
          "internalType": "uint256",
          "name": "tokenId_",
          "type": "uint256"
        }
      ],
      "name": "ownerOf",
      "outputs": [
        {
          "internalType": "address",
          "name": "owner_",
          "type": "address"
        }
      ],
      "stateMutability": "view",
      "type": "function"
    },
    {
      "inputs": [
        {
          "internalType": "address",
          "name": "from_",
          "type": "address"
        },
        {
          "internalType": "address",
          "name": "to_",
          "type": "address"
        },
        {
          "internalType": "uint256",
          "name": "tokenId_",
          "type": "uint256"
        }
      ],
      "name": "safeTransferFrom",
      "outputs": [],
      "stateMutability": "payable",
      "type": "function"
    },
    {
      "inputs": [
        {
          "internalType": "address",
          "name": "from_",
          "type": "address"
        },
        {
          "internalType": "address",
          "name": "to_",
          "type": "address"
        },
        {
          "internalType": "uint256",
          "name": "tokenId_",
          "type": "uint256"
        },
        {
          "internalType": "bytes",
          "name": "data_",
          "type": "bytes"
        }
      ],
      "name": "safeTransferFrom",
      "outputs": [],
      "stateMutability": "payable",
      "type": "function"
    },
    {
      "inputs": [
        {
          "internalType": "address",
          "name": "operator_",
          "type": "address"
        },
        {
          "internalType": "bool",
          "name": "approved_",
          "type": "bool"
        }
      ],
      "name": "setApprovalForAll",
      "outputs": [],
      "stateMutability": "nonpayable",
      "type": "function"
    },
    {
      "inputs": [
        {
          "internalType": "uint256",
          "name": "index_",
          "type": "uint256"
        }
      ],
      "name": "slotByIndex",
      "outputs": [
        {
          "internalType": "uint256",
          "name": "",
          "type": "uint256"
        }
      ],
      "stateMutability": "view",
      "type": "function"
    },
    {
      "inputs": [],
      "name": "slotCount",
      "outputs": [
        {
          "internalType": "uint256",
          "name": "",
          "type": "uint256"
        }
      ],
      "stateMutability": "view",
      "type": "function"
    },
    {
      "inputs": [
        {
          "internalType": "uint256",
          "name": "tokenId_",
          "type": "uint256"
        }
      ],
      "name": "slotOf",
      "outputs": [
        {
          "internalType": "uint256",
          "name": "",
          "type": "uint256"
        }
      ],
      "stateMutability": "view",
      "type": "function"
    },
    {
      "inputs": [
        {
          "internalType": "uint256",
          "name": "slot_",
          "type": "uint256"
        }
      ],
      "name": "slotURI",
      "outputs": [
        {
          "internalType": "string",
          "name": "",
          "type": "string"
        }
      ],
      "stateMutability": "view",
      "type": "function"
    },
    {
      "inputs": [
        {
          "internalType": "bytes4",
          "name": "interfaceId",
          "type": "bytes4"
        }
      ],
      "name": "supportsInterface",
      "outputs": [
        {
          "internalType": "bool",
          "name": "",
          "type": "bool"
        }
      ],
      "stateMutability": "view",
      "type": "function"
    },
    {
      "inputs": [],
      "name": "symbol",
      "outputs": [
        {
          "internalType": "string",
          "name": "",
          "type": "string"
        }
      ],
      "stateMutability": "view",
      "type": "function"
    },
    {
      "inputs": [
        {
          "internalType": "uint256",
          "name": "index_",
          "type": "uint256"
        }
      ],
      "name": "tokenByIndex",
      "outputs": [
        {
          "internalType": "uint256",
          "name": "",
          "type": "uint256"
        }
      ],
      "stateMutability": "view",
      "type": "function"
    },
    {
      "inputs": [
        {
          "internalType": "uint256",
          "name": "slot_",
          "type": "uint256"
        },
        {
          "internalType": "uint256",
          "name": "index_",
          "type": "uint256"
        }
      ],
      "name": "tokenInSlotByIndex",
      "outputs": [
        {
          "internalType": "uint256",
          "name": "",
          "type": "uint256"
        }
      ],
      "stateMutability": "view",
      "type": "function"
    },
    {
      "inputs": [
        {
          "internalType": "address",
          "name": "owner_",
          "type": "address"
        },
        {
          "internalType": "uint256",
          "name": "index_",
          "type": "uint256"
        }
      ],
      "name": "tokenOfOwnerByIndex",
      "outputs": [
        {
          "internalType": "uint256",
          "name": "",
          "type": "uint256"
        }
      ],
      "stateMutability": "view",
      "type": "function"
    },
    {
      "inputs": [
        {
          "internalType": "uint256",
          "name": "slot_",
          "type": "uint256"
        }
      ],
      "name": "tokenSupplyInSlot",
      "outputs": [
        {
          "internalType": "uint256",
          "name": "",
          "type": "uint256"
        }
      ],
      "stateMutability": "view",
      "type": "function"
    },
    {
      "inputs": [
        {
          "internalType": "uint256",
          "name": "tokenId_",
          "type": "uint256"
        }
      ],
      "name": "tokenURI",
      "outputs": [
        {
          "internalType": "string",
          "name": "",
          "type": "string"
        }
      ],
      "stateMutability": "view",
      "type": "function"
    },
    {
      "inputs": [],
      "name": "totalSupply",
      "outputs": [
        {
          "internalType": "uint256",
          "name": "",
          "type": "uint256"
        }
      ],
      "stateMutability": "view",
      "type": "function"
    },
    {
      "inputs": [
        {
          "internalType": "uint256",
          "name": "fromTokenId_",
          "type": "uint256"
        },
        {
          "internalType": "address",
          "name": "to_",
          "type": "address"
        },
        {
          "internalType": "uint256",
          "name": "value_",
          "type": "uint256"
        }
      ],
      "name": "transferFrom",
      "outputs": [
        {
          "internalType": "uint256",
          "name": "",
          "type": "uint256"
        }
      ],
      "stateMutability": "payable",
      "type": "function"
    },
    {
      "inputs": [
        {
          "internalType": "address",
          "name": "from_",
          "type": "address"
        },
        {
          "internalType": "address",
          "name": "to_",
          "type": "address"
        },
        {
          "internalType": "uint256",
          "name": "tokenId_",
          "type": "uint256"
        }
      ],
      "name": "transferFrom",
      "outputs": [],
      "stateMutability": "payable",
      "type": "function"
    },
    {
      "inputs": [
        {
          "internalType": "uint256",
          "name": "fromTokenId_",
          "type": "uint256"
        },
        {
          "internalType": "uint256",
          "name": "toTokenId_",
          "type": "uint256"
        },
        {
          "internalType": "uint256",
          "name": "value_",
          "type": "uint256"
        }
      ],
      "name": "transferFrom",
      "outputs": [],
      "stateMutability": "payable",
      "type": "function"
    },
    {
      "inputs": [],
      "name": "valueDecimals",
      "outputs": [
        {
          "internalType": "uint8",
          "name": "",
          "type": "uint8"
        }
      ],
      "stateMutability": "view",
      "type": "function"
    }
  ],
  "bytecode": "0x6080604052604051620038c6380380620038c683398101604081905262000026916200033e565b600054610100900460ff1615808015620000475750600054600160ff909116105b8062000077575062000064306200016260201b62000fdb1760201c565b15801562000077575060005460ff166001145b620000e05760405162461bcd60e51b815260206004820152602e60248201527f496e697469616c697a61626c653a20636f6e747261637420697320616c72656160448201526d191e481a5b9a5d1a585b1a5e995960921b60648201526084015b60405180910390fd5b6000805460ff19166001179055801562000104576000805461ff0019166101001790555b6200011184848462000171565b801562000158576000805461ff0019169055604051600181527f7f26b83ff96e1f2b6a682f133852f6798a09c465da95921460cefb38474024989060200160405180910390a15b505050506200051d565b6001600160a01b03163b151590565b600054610100900460ff16620001cd5760405162461bcd60e51b815260206004820152602b6024820152600080516020620038a683398151915260448201526a6e697469616c697a696e6760a81b6064820152608401620000d7565b620001da838383620001df565b505050565b600054610100900460ff166200023b5760405162461bcd60e51b815260206004820152602b6024820152600080516020620038a683398151915260448201526a6e697469616c697a696e6760a81b6064820152608401620000d7565b603362000249848262000451565b50603462000258838262000451565b506035805460ff191660ff929092169190911790555050565b634e487b7160e01b600052604160045260246000fd5b600082601f8301126200029957600080fd5b81516001600160401b0380821115620002b657620002b662000271565b604051601f8301601f19908116603f01168101908282118183101715620002e157620002e162000271565b81604052838152602092508683858801011115620002fe57600080fd5b600091505b8382101562000322578582018301518183018401529082019062000303565b83821115620003345760008385830101525b9695505050505050565b6000806000606084860312156200035457600080fd5b83516001600160401b03808211156200036c57600080fd5b6200037a8783880162000287565b945060208601519150808211156200039157600080fd5b50620003a08682870162000287565b925050604084015160ff81168114620003b857600080fd5b809150509250925092565b600181811c90821680620003d857607f821691505b602082108103620003f957634e487b7160e01b600052602260045260246000fd5b50919050565b601f821115620001da57600081815260208120601f850160051c81016020861015620004285750805b601f850160051c820191505b81811015620004495782815560010162000434565b505050505050565b81516001600160401b038111156200046d576200046d62000271565b62000485816200047e8454620003c3565b84620003ff565b602080601f831160018114620004bd5760008415620004a45750858301515b600019600386901b1c1916600185901b17855562000449565b600085815260208120601f198616915b82811015620004ee57888601518255948401946001909101908401620004cd565b50858210156200050d5787850151600019600388901b60f8161c191681555b5050505050600190811b01905550565b613379806200052d6000396000f3fe6080604052600436106101cc5760003560e01c80634f8a0f83116100f75780639cc7f70811610095578063e345e0bc11610064578063e345e0bc146104e1578063e8a3d48514610501578063e985e9c514610516578063ed08fa801461056357600080fd5b80639cc7f7081461046e578063a22cb4651461048e578063b88d4fde146104ae578063c87b56dd146104c157600080fd5b8063840f7113116100d1578063840f7113146104065780638cb0a5111461042657806395d89b4114610439578063993bef8d1461044e57600080fd5b80634f8a0f83146103a65780636352211e146103c657806370a08231146103e657600080fd5b806318160ddd1161016f578063310ed7f01161013e578063310ed7f01461033e5780633e7e86691461035157806342842e0e146103735780634f6ccce71461038657600080fd5b806318160ddd146102d657806323b872dd146102eb578063263f3e7e146102fe5780632f745c591461031e57600080fd5b8063081812fc116101ab578063081812fc14610256578063095ea7b31461028e57806309c3dd87146102a35780630f485c02146102c357600080fd5b8062cd0110146101d157806301ffc9a71461020457806306fdde0314610234575b600080fd5b3480156101dd57600080fd5b506101f16101ec366004612b7c565b610578565b6040519081526020015b60405180910390f35b34801561021057600080fd5b5061022461021f366004612bb4565b61064e565b60405190151581526020016101fb565b34801561024057600080fd5b50610249610673565b6040516101fb9190612c29565b34801561026257600080fd5b50610276610271366004612c3c565b610705565b6040516001600160a01b0390911681526020016101fb565b6102a161029c366004612c6c565b610757565b005b3480156102af57600080fd5b506102496102be366004612c3c565b6107dc565b6101f16102d1366004612c96565b6108ce565b3480156102e257600080fd5b506038546101f1565b6102a16102f9366004612ccb565b610910565b34801561030a57600080fd5b506101f1610319366004612c3c565b610941565b34801561032a57600080fd5b506101f1610339366004612c6c565b610989565b6102a161034c366004612cf7565b610a17565b34801561035d57600080fd5b5060355460405160ff90911681526020016101fb565b6102a1610381366004612ccb565b610a2d565b34801561039257600080fd5b506101f16103a1366004612c3c565b610a48565b3480156103b257600080fd5b506101f16103c1366004612c3c565b610ad9565b3480156103d257600080fd5b506102766103e1366004612c3c565b610b2e565b3480156103f257600080fd5b506101f1610401366004612d23565b610bca565b34801561041257600080fd5b50603b54610276906001600160a01b031681565b6102a1610434366004612c96565b610c52565b34801561044557600080fd5b50610249610cd9565b34801561045a57600080fd5b506101f1610469366004612c3c565b610ce8565b34801561047a57600080fd5b506101f1610489366004612c3c565b610d85565b34801561049a57600080fd5b506102a16104a9366004612d4c565b610dcd565b6102a16104bc366004612df2565b610ddc565b3480156104cd57600080fd5b506102496104dc366004612c3c565b610e0e565b3480156104ed57600080fd5b506101f16104fc366004612e9d565b610ead565b34801561050d57600080fd5b50610249610ee1565b34801561052257600080fd5b50610224610531366004612ec9565b6001600160a01b039182166000908152603a602090815260408083209390941682526002909201909152205460ff1690565b34801561056f57600080fd5b506066546101f1565b600061058383610ad9565b82106105f45760405162461bcd60e51b815260206004820152603560248201527f45524333353235536c6f74456e756d657261626c653a20736c6f7420746f6b656044820152746e20696e646578206f7574206f6620626f756e647360581b60648201526084015b60405180910390fd5b60008381526067602052604090205460668054909190811061061857610618612ef3565b9060005260206000209060020201600101828154811061063a5761063a612ef3565b906000526020600020015490505b92915050565b60006001600160e01b03198216631dba0dcf60e11b1480610648575061064882610fea565b60606033805461068290612f09565b80601f01602080910402602001604051908101604052809291908181526020018280546106ae90612f09565b80156106fb5780601f106106d0576101008083540402835291602001916106fb565b820191906000526020600020905b8154815290600101906020018083116106de57829003601f168201915b5050505050905090565b60006107108261108c565b60008281526039602052604090205460388054909190811061073457610734612ef3565b60009182526020909120600460069092020101546001600160a01b031692915050565b600061076282610b2e565b9050806001600160a01b0316836001600160a01b0316036107955760405162461bcd60e51b81526004016105eb90612f43565b336001600160a01b03821614806107b157506107b18133610531565b6107cd5760405162461bcd60e51b81526004016105eb90612f85565b6107d783836110e0565b505050565b606060006107f560408051602081019091526000815290565b603b549091506001600160a01b031661085557600081511161082657604051806020016040528060008152506108c7565b8061083084611177565b604051602001610841929190612fe2565b6040516020818303038152906040526108c7565b603b54604051633601bfc560e11b8152600481018590526001600160a01b0390911690636c037f8a906024015b600060405180830381865afa15801561089f573d6000803e3d6000fd5b505050506040513d6000823e601f3d908101601f191682016040526108c79190810190613022565b9392505050565b60006108db338584611278565b60006108e685611308565b90506108fd84826108f688610941565b6000611312565b610908858285611457565b949350505050565b61091a338261175f565b6109365760405162461bcd60e51b81526004016105eb90613099565b6107d78383836117c7565b600061094c8261108c565b60008281526039602052604090205460388054909190811061097057610970612ef3565b9060005260206000209060060201600101549050919050565b600061099483610bca565b82106109ed5760405162461bcd60e51b815260206004820152602260248201527f455243333532353a206f776e657220696e646578206f7574206f6620626f756e604482015261647360f01b60648201526084016105eb565b6001600160a01b0383166000908152603a6020526040902080548390811061063a5761063a612ef3565b610a22338483611278565b6107d7838383611457565b6107d783838360405180602001604052806000815250610ddc565b6000610a5360385490565b8210610aad5760405162461bcd60e51b815260206004820152602360248201527f455243333532353a20676c6f62616c20696e646578206f7574206f6620626f756044820152626e647360e81b60648201526084016105eb565b60388281548110610ac057610ac0612ef3565b9060005260206000209060060201600001549050919050565b6000610ae48261193f565b610af057506000919050565b600082815260676020526040902054606680549091908110610b1457610b14612ef3565b600091825260209091206001600290920201015492915050565b6000610b398261108c565b600082815260396020526040902054603880549091908110610b5d57610b5d612ef3565b60009182526020909120600360069092020101546001600160a01b0316905080610bc55760405162461bcd60e51b8152602060048201526019602482015278115490cccd4c8d4e881a5b9d985b1a59081d1bdad95b881251603a1b60448201526064016105eb565b919050565b60006001600160a01b038216610c365760405162461bcd60e51b815260206004820152602b60248201527f455243333532353a2062616c616e636520717565727920666f7220746865207a60448201526a65726f206164647265737360a81b60648201526084016105eb565b506001600160a01b03166000908152603a602052604090205490565b6000610c5d84610b2e565b9050806001600160a01b0316836001600160a01b031603610c905760405162461bcd60e51b81526004016105eb90612f43565b336001600160a01b0382161480610cac5750610cac8133610531565b610cc85760405162461bcd60e51b81526004016105eb90612f85565b610cd384848461198b565b50505050565b60606034805461068290612f09565b6000610cf360665490565b8210610d595760405162461bcd60e51b815260206004820152602f60248201527f45524333353235536c6f74456e756d657261626c653a20736c6f7420696e646560448201526e78206f7574206f6620626f756e647360881b60648201526084016105eb565b60668281548110610d6c57610d6c612ef3565b9060005260206000209060020201600001549050919050565b6000610d908261108c565b600082815260396020526040902054603880549091908110610db457610db4612ef3565b9060005260206000209060060201600201549050919050565b610dd8338383611ac3565b5050565b610de6338361175f565b610e025760405162461bcd60e51b81526004016105eb90613099565b610cd384848484611b8d565b6060610e198261108c565b6000610e3060408051602081019091526000815290565b603b549091506001600160a01b0316610e7c576000815111610e6157604051806020016040528060008152506108c7565b80610e6b84611177565b6040516020016108419291906130eb565b603b546040516344a5a61760e11b8152600481018590526001600160a01b039091169063894b4c2e90602401610882565b6000610eb88361108c565b5060009182526037602090815260408084206001600160a01b0393909316845291905290205490565b60606000610efa60408051602081019091526000815290565b603b549091506001600160a01b0316610f5a576000815111610f2b5760405180602001604052806000815250610fd5565b80610f3530611c00565b604051602001610f4692919061311a565b604051602081830303815290604052610fd5565b603b60009054906101000a90046001600160a01b03166001600160a01b031663725fa09c6040518163ffffffff1660e01b8152600401600060405180830381865afa158015610fad573d6000803e3d6000fd5b505050506040513d6000823e601f3d908101601f19168201604052610fd59190810190613022565b91505090565b6001600160a01b03163b151590565b60006001600160e01b031982166301ffc9a760e01b148061101b57506001600160e01b03198216630354d60560e61b145b8061103657506001600160e01b031982166380ac58cd60e01b145b8061105157506001600160e01b031982166370b0048160e11b145b8061106c57506001600160e01b0319821663780e9d6360e01b145b8061064857506001600160e01b03198216635b5e139f60e01b1492915050565b61109581611c16565b6110dd5760405162461bcd60e51b8152602060048201526019602482015278115490cccd4c8d4e881a5b9d985b1a59081d1bdad95b881251603a1b60448201526064016105eb565b50565b60008181526039602052604090205460388054849290811061110457611104612ef3565b6000918252602090912060069091020160040180546001600160a01b0319166001600160a01b039283161790558190831661113e82610b2e565b6001600160a01b03167f8c5be1e5ebec7d5bd14f71427d1e84f3dd0314c0f7b2291e5b200ac8c7c3b92560405160405180910390a45050565b60608160000361119e5750506040805180820190915260018152600360fc1b602082015290565b8160005b81156111c857806111b281613174565b91506111c19050600a836131a3565b91506111a2565b60008167ffffffffffffffff8111156111e3576111e3612d83565b6040519080825280601f01601f19166020018201604052801561120d576020820181803683370190505b5090505b8415610908576112226001836131b7565b915061122f600a866131ce565b61123a9060306131e2565b60f81b81838151811061124f5761124f612ef3565b60200101906001600160f81b031916908160001a905350611271600a866131a3565b9450611211565b60006112848385610ead565b9050611290848461175f565b15801561129f57506000198114155b15610cd357818110156112f45760405162461bcd60e51b815260206004820152601f60248201527f455243333532353a20696e73756666696369656e7420616c6c6f77616e63650060448201526064016105eb565b610cd3838561130385856131b7565b61198b565b6000610648611c62565b6001600160a01b0384166113725760405162461bcd60e51b815260206004820152602160248201527f455243333532353a206d696e7420746f20746865207a65726f206164647265736044820152607360f81b60648201526084016105eb565b826000036113cc5760405162461bcd60e51b815260206004820152602160248201527f455243333532353a2063616e6e6f74206d696e74207a65726f20746f6b656e496044820152601960fa1b60648201526084016105eb565b6113d583611c16565b156114225760405162461bcd60e51b815260206004820152601d60248201527f455243333532353a20746f6b656e20616c7265616479206d696e74656400000060448201526064016105eb565b6114326000856000868686611c79565b61143d848484611cb6565b6114478382611d7c565b610cd36000856000868686611e01565b61146083611c16565b6114bc5760405162461bcd60e51b815260206004820152602760248201527f455243333532353a207472616e736665722066726f6d20696e76616c696420746044820152661bdad95b88125160ca1b60648201526084016105eb565b6114c582611c16565b61151f5760405162461bcd60e51b815260206004820152602560248201527f455243333532353a207472616e7366657220746f20696e76616c696420746f6b604482015264195b88125160da1b60648201526084016105eb565b60008381526039602052604081205460388054909190811061154357611543612ef3565b906000526020600020906006020190506000603860396000868152602001908152602001600020548154811061157b5761157b612ef3565b9060005260206000209060060201905082826002015410156115f25760405162461bcd60e51b815260206004820152602a60248201527f455243333532353a20696e73756666696369656e742062616c616e636520666f60448201526939103a3930b739b332b960b11b60648201526084016105eb565b80600101548260010154146116605760405162461bcd60e51b815260206004820152602e60248201527f455243333532353a207472616e7366657220746f20746f6b656e20776974682060448201526d191a5999995c995b9d081cdb1bdd60921b60648201526084016105eb565b60038083015490820154600184015461168b926001600160a01b039081169216908890889088611c79565b8282600201600082825461169f91906131b7565b92505081905550828160020160008282546116ba91906131e2565b9091555050604051838152849086907f0b2aac84f3ec956911fd78eae5311062972ff949f38412e8da39069d9f068cc69060200160405180910390a3600380830154908201546001840154611721926001600160a01b039081169216908890889088611e01565b61173c85858560405180602001604052806000815250611e72565b6117585760405162461bcd60e51b81526004016105eb906131fa565b5050505050565b600061176a8261108c565b600061177583610b2e565b9050806001600160a01b0316846001600160a01b0316148061179c575061179c8185610531565b806109085750836001600160a01b03166117b584610705565b6001600160a01b031614949350505050565b826001600160a01b03166117da82610b2e565b6001600160a01b03161461183c5760405162461bcd60e51b8152602060048201526024808201527f455243333532353a207472616e736665722066726f6d20696e76616c6964206f6044820152633bb732b960e11b60648201526084016105eb565b6001600160a01b0382166118a05760405162461bcd60e51b815260206004820152602560248201527f455243333532353a207472616e7366657220746f20746865207a65726f206164604482015264647265737360d81b60648201526084016105eb565b60006118ab82610941565b905060006118b883610d85565b90506118c8858585868686611c79565b6118d36000846110e0565b6118dc83611ff6565b6118e68584612092565b6118f084846121b3565b82846001600160a01b0316866001600160a01b03167fddf252ad1be2c89b69c2b068fc378daa952ba7f163c4a11628f55a4df523b3ef60405160405180910390a4611758858585868686611e01565b60665460009015801590610648575060008281526067602052604090205460668054849290811061197257611972612ef3565b9060005260206000209060020201600001541492915050565b6001600160a01b0382166119f45760405162461bcd60e51b815260206004820152602a60248201527f455243333532353a20617070726f76652076616c756520746f20746865207a65604482015269726f206164647265737360b01b60648201526084016105eb565b6119fe828461223c565b611a6457600083815260396020526040902054603880549091908110611a2657611a26612ef3565b60009182526020808320600692909202909101600501805460018101825590835291200180546001600160a01b0319166001600160a01b0384161790555b60008381526037602090815260408083206001600160a01b038616808552908352928190208490555183815285917f621b050de0ad08b51d19b48b3e6df75348c4de6bdd93e81b252ca62e28265b1b91015b60405180910390a3505050565b816001600160a01b0316836001600160a01b031603611b245760405162461bcd60e51b815260206004820152601a60248201527f455243333532353a20617070726f766520746f2063616c6c657200000000000060448201526064016105eb565b6001600160a01b038381166000818152603a602090815260408083209487168084526002909501825291829020805460ff191686151590811790915591519182527f17307eab39ab6107e8899845ad3d59bd9653f200f220920489ca2b5937696c319101611ab6565b611b988484846117c7565b611ba48484848461230f565b610cd35760405162461bcd60e51b815260206004820152602760248201527f455243333532353a207472616e7366657220746f206e6f6e204552433732315260448201526632b1b2b4bb32b960c91b60648201526084016105eb565b60606106486001600160a01b03831660146124bc565b603854600090158015906106485750600082815260396020526040902054603880548492908110611c4957611c49612ef3565b9060005260206000209060060201600001541492915050565b6000611c72603680546001019055565b5060365490565b6001600160a01b038616158015611c8e575083155b8015611ca05750611c9e8261193f565b155b15611cae57611cae82612658565b505050505050565b6040805160c081018252838152602080820184905260008284018190526001600160a01b038716606084015260808301819052835181815291820190935260a08201529050611d048161271f565b611d0e84846121b3565b60405183906001600160a01b038616906000907fddf252ad1be2c89b69c2b068fc378daa952ba7f163c4a11628f55a4df523b3ef908290a4816000847fe4f48c240d3b994948aa54f3e2f5fca59263dfe1d52b6e4cf39a5d249b5ccb6560405160405180910390a450505050565b600082815260396020526040902054603880548392908110611da057611da0612ef3565b90600052602060002090600602016002016000828254611dc091906131e2565b909155505060405181815282906000907f0b2aac84f3ec956911fd78eae5311062972ff949f38412e8da39069d9f068cc69060200160405180910390a35050565b6001600160a01b038616158015611e16575083155b8015611e295750611e278284612871565b155b15611e3d57611e3882846128fd565b611cae565b6001600160a01b038516158015611e52575082155b8015611e635750611e638285612871565b15611e3857611e38828561295e565b600080611e7e85610b2e565b90506001600160a01b0381163b15158015611f0257506040516301ffc9a760e01b8152629ce20b60e01b60048201526001600160a01b038216906301ffc9a790602401602060405180830381865afa158015611ede573d6000803e3d6000fd5b505050506040513d601f19601f82011682018060405250810190611f029190613242565b15611fec57604051629ce20b60e01b81526001600160a01b03821690629ce20b90611f399033908a908a908a908a9060040161325f565b6020604051808303816000875af1925050508015611f74575060408051601f3d908101601f19168201909252611f719181019061329d565b60015b611fd1573d808015611fa2576040519150601f19603f3d011682016040523d82523d6000602084013e611fa7565b606091505b508051600003611fc95760405162461bcd60e51b81526004016105eb906131fa565b805181602001fd5b6001600160e01b031916629ce20b60e01b1491506109089050565b6001915050610908565b60008181526039602052604081205460388054909190811061201a5761201a612ef3565b600091825260208220600560069092020190810154909250905b81811015610cd357600083600501828154811061205357612053612ef3565b60009182526020808320909101548783526037825260408084206001600160a01b0390921684529152812055508061208a81613174565b915050612034565b6000818152603960205260408120546038805490919081106120b6576120b6612ef3565b6000918252602080832060069290920290910160030180546001600160a01b0319166001600160a01b039485161790559184168152603a909152604081208054909190612105906001906131b7565b9050600082600001828154811061211e5761211e612ef3565b9060005260206000200154905060008360010160008681526020019081526020016000205490508184600001828154811061215b5761215b612ef3565b60009182526020808320909101929092558381526001860190915260408082208390558682528120558354849080612195576121956132ba565b60019003818190600052602060002001600090559055505050505050565b6000818152603960205260409020546038805484929081106121d7576121d7612ef3565b6000918252602080832060069290920290910160030180546001600160a01b0319166001600160a01b03948516179055939091168152603a80845260408083208054858552600182810188529285208190559286529082018155825292902090910155565b60008181526039602052604081205460388054839290811061226057612260612ef3565b6000918252602082206005600690920201015491505b8181101561230457600084815260396020526040902054603880546001600160a01b038816929081106122ab576122ab612ef3565b906000526020600020906006020160050182815481106122cd576122cd612ef3565b6000918252602090912001546001600160a01b0316036122f257600192505050610648565b806122fc81613174565b915050612276565b506000949350505050565b60006001600160a01b0384163b1515801561239457506040516301ffc9a760e01b8152630a85bd0160e11b60048201526001600160a01b038516906301ffc9a790602401602060405180830381865afa158015612370573d6000803e3d6000fd5b505050506040513d601f19601f820116820180604052508101906123949190613242565b156124b457604051630a85bd0160e11b81526001600160a01b0385169063150b7a02906123cb9033908990889088906004016132d0565b6020604051808303816000875af1925050508015612406575060408051601f3d908101601f191682019092526124039181019061329d565b60015b61249a573d808015612434576040519150601f19603f3d011682016040523d82523d6000602084013e612439565b606091505b508051600003611fc95760405162461bcd60e51b815260206004820152602660248201527f4552433732313a207472616e7366657220746f206e6f6e20455243373231526560448201526531b2b4bb32b960d11b60648201526084016105eb565b6001600160e01b031916630a85bd0160e11b149050610908565b506001610908565b606060006124cb83600261330d565b6124d69060026131e2565b67ffffffffffffffff8111156124ee576124ee612d83565b6040519080825280601f01601f191660200182016040528015612518576020820181803683370190505b509050600360fc1b8160008151811061253357612533612ef3565b60200101906001600160f81b031916908160001a905350600f60fb1b8160018151811061256257612562612ef3565b60200101906001600160f81b031916908160001a905350600061258684600261330d565b6125919060016131e2565b90505b6001811115612609576f181899199a1a9b1b9c1cb0b131b232b360811b85600f16601081106125c5576125c5612ef3565b1a60f81b8282815181106125db576125db612ef3565b60200101906001600160f81b031916908160001a90535060049490941c936126028161332c565b9050612594565b5083156108c75760405162461bcd60e51b815260206004820181905260248201527f537472696e67733a20686578206c656e67746820696e73756666696369656e7460448201526064016105eb565b6126618161193f565b156126c15760405162461bcd60e51b815260206004820152602a60248201527f45524333353235536c6f74456e756d657261626c653a20736c6f7420616c72656044820152696164792065786973747360b01b60648201526084016105eb565b6040805180820182528281528151600080825260208281019094529282015290506126eb81612a42565b816000807fe4f48c240d3b994948aa54f3e2f5fca59263dfe1d52b6e4cf39a5d249b5ccb6560405160405180910390a45050565b603880548251600090815260396020908152604080832084905560018401855593909152835160069092027f38395c5dceade9603479b177b68959049485df8aa97b39f3533039af5f4561998101928355818501517f38395c5dceade9603479b177b68959049485df8aa97b39f3533039af5f45619a820155928401517f38395c5dceade9603479b177b68959049485df8aa97b39f3533039af5f45619b84015560608401517f38395c5dceade9603479b177b68959049485df8aa97b39f3533039af5f45619c840180546001600160a01b039283166001600160a01b03199182161790915560808601517f38395c5dceade9603479b177b68959049485df8aa97b39f3533039af5f45619d8601805491909316911617905560a084015180518594610cd3937f38395c5dceade9603479b177b68959049485df8aa97b39f3533039af5f45619e909101920190612ac7565b60008281526067602052604081205460668054839290811061289557612895612ef3565b90600052602060002090600202019050600081600101805490501180156109085750600084815260656020908152604080832086845290915290205460018201805485929081106128e8576128e8612ef3565b90600052602060002001541491505092915050565b60008281526067602052604081205460668054909190811061292157612921612ef3565b6000918252602080832060016002909302018201805496845260658252604080852087865283528420879055918601825590825290209092015550565b60008281526067602052604081205460668054909190811061298257612982612ef3565b6000918252602082206001600290920201818101549093506129a491906131b7565b905060008260010182815481106129bd576129bd612ef3565b60009182526020808320909101548783526065825260408084208885529092529120546001850180549293509091839190839081106129fe576129fe612ef3565b6000918252602080832091909101929092558781526065825260408082208583529092528181208390558681529081205560018401805480612195576121956132ba565b60668054825160009081526067602090815260408220839055600183018455929052825160029091027f46501879b8ca8525e8c2fd519e2fbfcfa2ebea26501294aa02cbfcfb12e9435481019182558284015180518594610cd3937f46501879b8ca8525e8c2fd519e2fbfcfa2ebea26501294aa02cbfcfb12e9435501920190612b2c565b828054828255906000526020600020908101928215612b1c579160200282015b82811115612b1c57825182546001600160a01b0319166001600160a01b03909116178255602090920191600190910190612ae7565b50612b28929150612b67565b5090565b828054828255906000526020600020908101928215612b1c579160200282015b82811115612b1c578251825591602001919060010190612b4c565b5b80821115612b285760008155600101612b68565b60008060408385031215612b8f57600080fd5b50508035926020909101359150565b6001600160e01b0319811681146110dd57600080fd5b600060208284031215612bc657600080fd5b81356108c781612b9e565b60005b83811015612bec578181015183820152602001612bd4565b83811115610cd35750506000910152565b60008151808452612c15816020860160208601612bd1565b601f01601f19169290920160200192915050565b6020815260006108c76020830184612bfd565b600060208284031215612c4e57600080fd5b5035919050565b80356001600160a01b0381168114610bc557600080fd5b60008060408385031215612c7f57600080fd5b612c8883612c55565b946020939093013593505050565b600080600060608486031215612cab57600080fd5b83359250612cbb60208501612c55565b9150604084013590509250925092565b600080600060608486031215612ce057600080fd5b612ce984612c55565b9250612cbb60208501612c55565b600080600060608486031215612d0c57600080fd5b505081359360208301359350604090920135919050565b600060208284031215612d3557600080fd5b6108c782612c55565b80151581146110dd57600080fd5b60008060408385031215612d5f57600080fd5b612d6883612c55565b91506020830135612d7881612d3e565b809150509250929050565b634e487b7160e01b600052604160045260246000fd5b604051601f8201601f1916810167ffffffffffffffff81118282101715612dc257612dc2612d83565b604052919050565b600067ffffffffffffffff821115612de457612de4612d83565b50601f01601f191660200190565b60008060008060808587031215612e0857600080fd5b612e1185612c55565b9350612e1f60208601612c55565b925060408501359150606085013567ffffffffffffffff811115612e4257600080fd5b8501601f81018713612e5357600080fd5b8035612e66612e6182612dca565b612d99565b818152886020838501011115612e7b57600080fd5b8160208401602083013760006020838301015280935050505092959194509250565b60008060408385031215612eb057600080fd5b82359150612ec060208401612c55565b90509250929050565b60008060408385031215612edc57600080fd5b612ee583612c55565b9150612ec060208401612c55565b634e487b7160e01b600052603260045260246000fd5b600181811c90821680612f1d57607f821691505b602082108103612f3d57634e487b7160e01b600052602260045260246000fd5b50919050565b60208082526022908201527f455243333532353a20617070726f76616c20746f2063757272656e74206f776e60408201526132b960f11b606082015260800190565b60208082526039908201527f455243333532353a20617070726f76652063616c6c6572206973206e6f74206f60408201527f776e6572206e6f7220617070726f76656420666f7220616c6c00000000000000606082015260800190565b60008351612ff4818460208801612bd1565b64736c6f742f60d81b9083019081528351613016816005840160208801612bd1565b01600501949350505050565b60006020828403121561303457600080fd5b815167ffffffffffffffff81111561304b57600080fd5b8201601f8101841361305c57600080fd5b805161306a612e6182612dca565b81815285602083850101111561307f57600080fd5b613090826020830160208601612bd1565b95945050505050565b60208082526032908201527f455243333532353a207472616e736665722063616c6c6572206973206e6f74206040820152711bdddb995c881b9bdc88185c1c1c9bdd995960721b606082015260800190565b600083516130fd818460208801612bd1565b835190830190613111818360208801612bd1565b01949350505050565b6000835161312c818460208801612bd1565b68636f6e74726163742f60b81b9083019081528351613152816009840160208801612bd1565b01600901949350505050565b634e487b7160e01b600052601160045260246000fd5b6000600182016131865761318661315e565b5060010190565b634e487b7160e01b600052601260045260246000fd5b6000826131b2576131b261318d565b500490565b6000828210156131c9576131c961315e565b500390565b6000826131dd576131dd61318d565b500690565b600082198211156131f5576131f561315e565b500190565b60208082526028908201527f455243333532353a207472616e7366657220746f206e6f6e20455243333532356040820152672932b1b2b4bb32b960c11b606082015260800190565b60006020828403121561325457600080fd5b81516108c781612d3e565b60018060a01b038616815284602082015283604082015282606082015260a06080820152600061329260a0830184612bfd565b979650505050505050565b6000602082840312156132af57600080fd5b81516108c781612b9e565b634e487b7160e01b600052603160045260246000fd5b6001600160a01b038581168252841660208201526040810183905260806060820181905260009061330390830184612bfd565b9695505050505050565b60008160001904831182151516156133275761332761315e565b500290565b60008161333b5761333b61315e565b50600019019056fea264697066735822122075b24ef92c854ffd2e31c2cbdd4b5784fdb2d3c0d4b0ae279428e1585955d00d64736f6c634300080f0033496e697469616c697a61626c653a20636f6e7472616374206973206e6f742069",
  "linkReferences": {},
  "deployedLinkReferences": {}
}