{
  "_format": "hh-sol-artifact-1",
  "contractName": "ERC3525Burnable",
  "sourceName": "contracts/ERC3525Burnable.sol",
  "abi": [
    {
      "inputs": [
        {
          "internalType": "string",
          "name": "name_",
          "type": "string"
        },
        {
          "internalType": "string",
          "name": "symbol_",
          "type": "string"
        },
        {
          "internalType": "uint8",
          "name": "decimals_",
          "type": "uint8"
        }
      ],
      "stateMutability": "nonpayable",
      "type": "constructor"
    },
    {
      "anonymous": false,
      "inputs": [
        {
          "indexed": true,
          "internalType": "address",
          "name": "_owner",
          "type": "address"
        },
        {
          "indexed": true,
          "internalType": "address",
          "name": "_approved",
          "type": "address"
        },
        {
          "indexed": true,
          "internalType": "uint256",
          "name": "_tokenId",
          "type": "uint256"
        }
      ],
      "name": "Approval",
      "type": "event"
    },
    {
      "anonymous": false,
      "inputs": [
        {
          "indexed": true,
          "internalType": "address",
          "name": "_owner",
          "type": "address"
        },
        {
          "indexed": true,
          "internalType": "address",
          "name": "_operator",
          "type": "address"
        },
        {
          "indexed": false,
          "internalType": "bool",
          "name": "_approved",
          "type": "bool"
        }
      ],
      "name": "ApprovalForAll",
      "type": "event"
    },
    {
      "anonymous": false,
      "inputs": [
        {
          "indexed": true,
          "internalType": "uint256",
          "name": "_tokenId",
          "type": "uint256"
        },
        {
          "indexed": true,
          "internalType": "address",
          "name": "_operator",
          "type": "address"
        },
        {
          "indexed": false,
          "internalType": "uint256",
          "name": "_value",
          "type": "uint256"
        }
      ],
      "name": "ApprovalValue",
      "type": "event"
    },
    {
      "anonymous": false,
      "inputs": [
        {
          "indexed": true,
          "internalType": "address",
          "name": "metadataDescriptor",
          "type": "address"
        }
      ],
      "name": "SetMetadataDescriptor",
      "type": "event"
    },
    {
      "anonymous": false,
      "inputs": [
        {
          "indexed": true,
          "internalType": "uint256",
          "name": "_tokenId",
          "type": "uint256"
        },
        {
          "indexed": true,
          "internalType": "uint256",
          "name": "_oldSlot",
          "type": "uint256"
        },
        {
          "indexed": true,
          "internalType": "uint256",
          "name": "_newSlot",
          "type": "uint256"
        }
      ],
      "name": "SlotChanged",
      "type": "event"
    },
    {
      "anonymous": false,
      "inputs": [
        {
          "indexed": true,
          "internalType": "address",
          "name": "_from",
          "type": "address"
        },
        {
          "indexed": true,
          "internalType": "address",
          "name": "_to",
          "type": "address"
        },
        {
          "indexed": true,
          "internalType": "uint256",
          "name": "_tokenId",
          "type": "uint256"
        }
      ],
      "name": "Transfer",
      "type": "event"
    },
    {
      "anonymous": false,
      "inputs": [
        {
          "indexed": true,
          "internalType": "uint256",
          "name": "_fromTokenId",
          "type": "uint256"
        },
        {
          "indexed": true,
          "internalType": "uint256",
          "name": "_toTokenId",
          "type": "uint256"
        },
        {
          "indexed": false,
          "internalType": "uint256",
          "name": "_value",
          "type": "uint256"
        }
      ],
      "name": "TransferValue",
      "type": "event"
    },
    {
      "inputs": [
        {
          "internalType": "uint256",
          "name": "tokenId_",
          "type": "uint256"
        },
        {
          "internalType": "address",
          "name": "operator_",
          "type": "address"
        }
      ],
      "name": "allowance",
      "outputs": [
        {
          "internalType": "uint256",
          "name": "",
          "type": "uint256"
        }
      ],
      "stateMutability": "view",
      "type": "function"
    },
    {
      "inputs": [
        {
          "internalType": "address",
          "name": "to_",
          "type": "address"
        },
        {
          "internalType": "uint256",
          "name": "tokenId_",
          "type": "uint256"
        }
      ],
      "name": "approve",
      "outputs": [],
      "stateMutability": "payable",
      "type": "function"
    },
    {
      "inputs": [
        {
          "internalType": "uint256",
          "name": "tokenId_",
          "type": "uint256"
        },
        {
          "internalType": "address",
          "name": "to_",
          "type": "address"
        },
        {
          "internalType": "uint256",
          "name": "value_",
          "type": "uint256"
        }
      ],
      "name": "approve",
      "outputs": [],
      "stateMutability": "payable",
      "type": "function"
    },
    {
      "inputs": [
        {
          "internalType": "address",
          "name": "owner_",
          "type": "address"
        }
      ],
      "name": "balanceOf",
      "outputs": [
        {
          "internalType": "uint256",
          "name": "balance",
          "type": "uint256"
        }
      ],
      "stateMutability": "view",
      "type": "function"
    },
    {
      "inputs": [
        {
          "internalType": "uint256",
          "name": "tokenId_",
          "type": "uint256"
        }
      ],
      "name": "balanceOf",
      "outputs": [
        {
          "internalType": "uint256",
          "name": "",
          "type": "uint256"
        }
      ],
      "stateMutability": "view",
      "type": "function"
    },
    {
      "inputs": [
        {
          "internalType": "uint256",
          "name": "tokenId_",
          "type": "uint256"
        }
      ],
      "name": "burn",
      "outputs": [],
      "stateMutability": "nonpayable",
      "type": "function"
    },
    {
      "inputs": [
        {
          "internalType": "uint256",
          "name": "tokenId_",
          "type": "uint256"
        },
        {
          "internalType": "uint256",
          "name": "burnValue_",
          "type": "uint256"
        }
      ],
      "name": "burnValue",
      "outputs": [],
      "stateMutability": "nonpayable",
      "type": "function"
    },
    {
      "inputs": [],
      "name": "contractURI",
      "outputs": [
        {
          "internalType": "string",
          "name": "",
          "type": "string"
        }
      ],
      "stateMutability": "view",
      "type": "function"
    },
    {
      "inputs": [
        {
          "internalType": "uint256",
          "name": "tokenId_",
          "type": "uint256"
        }
      ],
      "name": "getApproved",
      "outputs": [
        {
          "internalType": "address",
          "name": "",
          "type": "address"
        }
      ],
      "stateMutability": "view",
      "type": "function"
    },
    {
      "inputs": [
        {
          "internalType": "address",
          "name": "owner_",
          "type": "address"
        },
        {
          "internalType": "address",
          "name": "operator_",
          "type": "address"
        }
      ],
      "name": "isApprovedForAll",
      "outputs": [
        {
          "internalType": "bool",
          "name": "",
          "type": "bool"
        }
      ],
      "stateMutability": "view",
      "type": "function"
    },
    {
      "inputs": [],
      "name": "metadataDescriptor",
      "outputs": [
        {
          "internalType": "contract IERC3525MetadataDescriptor",
          "name": "",
          "type": "address"
        }
      ],
      "stateMutability": "view",
      "type": "function"
    },
    {
      "inputs": [
        {
          "internalType": "address",
          "name": "mintTo_",
          "type": "address"
        },
        {
          "internalType": "uint256",
          "name": "tokenId_",
          "type": "uint256"
        },
        {
          "internalType": "uint256",
          "name": "slot_",
          "type": "uint256"
        },
        {
          "internalType": "uint256",
          "name": "value_",
          "type": "uint256"
        }
      ],
      "name": "mint",
      "outputs": [],
      "stateMutability": "nonpayable",
      "type": "function"
    },
    {
      "inputs": [
        {
          "internalType": "uint256",
          "name": "tokenId_",
          "type": "uint256"
        },
        {
          "internalType": "uint256",
          "name": "value_",
          "type": "uint256"
        }
      ],
      "name": "mintValue",
      "outputs": [],
      "stateMutability": "nonpayable",
      "type": "function"
    },
    {
      "inputs": [],
      "name": "name",
      "outputs": [
        {
          "internalType": "string",
          "name": "",
          "type": "string"
        }
      ],
      "stateMutability": "view",
      "type": "function"
    },
    {
      "inputs": [
        {
          "internalType": "uint256",
          "name": "tokenId_",
          "type": "uint256"
        }
      ],
      "name": "ownerOf",
      "outputs": [
        {
          "internalType": "address",
          "name": "owner_",
          "type": "address"
        }
      ],
      "stateMutability": "view",
      "type": "function"
    },
    {
      "inputs": [
        {
          "internalType": "address",
          "name": "from_",
          "type": "address"
        },
        {
          "internalType": "address",
          "name": "to_",
          "type": "address"
        },
        {
          "internalType": "uint256",
          "name": "tokenId_",
          "type": "uint256"
        }
      ],
      "name": "safeTransferFrom",
      "outputs": [],
      "stateMutability": "payable",
      "type": "function"
    },
    {
      "inputs": [
        {
          "internalType": "address",
          "name": "from_",
          "type": "address"
        },
        {
          "internalType": "address",
          "name": "to_",
          "type": "address"
        },
        {
          "internalType": "uint256",
          "name": "tokenId_",
          "type": "uint256"
        },
        {
          "internalType": "bytes",
          "name": "data_",
          "type": "bytes"
        }
      ],
      "name": "safeTransferFrom",
      "outputs": [],
      "stateMutability": "payable",
      "type": "function"
    },
    {
      "inputs": [
        {
          "internalType": "address",
          "name": "operator_",
          "type": "address"
        },
        {
          "internalType": "bool",
          "name": "approved_",
          "type": "bool"
        }
      ],
      "name": "setApprovalForAll",
      "outputs": [],
      "stateMutability": "nonpayable",
      "type": "function"
    },
    {
      "inputs": [
        {
          "internalType": "uint256",
          "name": "tokenId_",
          "type": "uint256"
        }
      ],
      "name": "slotOf",
      "outputs": [
        {
          "internalType": "uint256",
          "name": "",
          "type": "uint256"
        }
      ],
      "stateMutability": "view",
      "type": "function"
    },
    {
      "inputs": [
        {
          "internalType": "uint256",
          "name": "slot_",
          "type": "uint256"
        }
      ],
      "name": "slotURI",
      "outputs": [
        {
          "internalType": "string",
          "name": "",
          "type": "string"
        }
      ],
      "stateMutability": "view",
      "type": "function"
    },
    {
      "inputs": [
        {
          "internalType": "bytes4",
          "name": "interfaceId",
          "type": "bytes4"
        }
      ],
      "name": "supportsInterface",
      "outputs": [
        {
          "internalType": "bool",
          "name": "",
          "type": "bool"
        }
      ],
      "stateMutability": "view",
      "type": "function"
    },
    {
      "inputs": [],
      "name": "symbol",
      "outputs": [
        {
          "internalType": "string",
          "name": "",
          "type": "string"
        }
      ],
      "stateMutability": "view",
      "type": "function"
    },
    {
      "inputs": [
        {
          "internalType": "uint256",
          "name": "index_",
          "type": "uint256"
        }
      ],
      "name": "tokenByIndex",
      "outputs": [
        {
          "internalType": "uint256",
          "name": "",
          "type": "uint256"
        }
      ],
      "stateMutability": "view",
      "type": "function"
    },
    {
      "inputs": [
        {
          "internalType": "address",
          "name": "owner_",
          "type": "address"
        },
        {
          "internalType": "uint256",
          "name": "index_",
          "type": "uint256"
        }
      ],
      "name": "tokenOfOwnerByIndex",
      "outputs": [
        {
          "internalType": "uint256",
          "name": "",
          "type": "uint256"
        }
      ],
      "stateMutability": "view",
      "type": "function"
    },
    {
      "inputs": [
        {
          "internalType": "uint256",
          "name": "tokenId_",
          "type": "uint256"
        }
      ],
      "name": "tokenURI",
      "outputs": [
        {
          "internalType": "string",
          "name": "",
          "type": "string"
        }
      ],
      "stateMutability": "view",
      "type": "function"
    },
    {
      "inputs": [],
      "name": "totalSupply",
      "outputs": [
        {
          "internalType": "uint256",
          "name": "",
          "type": "uint256"
        }
      ],
      "stateMutability": "view",
      "type": "function"
    },
    {
      "inputs": [
        {
          "internalType": "uint256",
          "name": "fromTokenId_",
          "type": "uint256"
        },
        {
          "internalType": "address",
          "name": "to_",
          "type": "address"
        },
        {
          "internalType": "uint256",
          "name": "value_",
          "type": "uint256"
        }
      ],
      "name": "transferFrom",
      "outputs": [
        {
          "internalType": "uint256",
          "name": "",
          "type": "uint256"
        }
      ],
      "stateMutability": "payable",
      "type": "function"
    },
    {
      "inputs": [
        {
          "internalType": "address",
          "name": "from_",
          "type": "address"
        },
        {
          "internalType": "address",
          "name": "to_",
          "type": "address"
        },
        {
          "internalType": "uint256",
          "name": "tokenId_",
          "type": "uint256"
        }
      ],
      "name": "transferFrom",
      "outputs": [],
      "stateMutability": "payable",
      "type": "function"
    },
    {
      "inputs": [
        {
          "internalType": "uint256",
          "name": "fromTokenId_",
          "type": "uint256"
        },
        {
          "internalType": "uint256",
          "name": "toTokenId_",
          "type": "uint256"
        },
        {
          "internalType": "uint256",
          "name": "value_",
          "type": "uint256"
        }
      ],
      "name": "transferFrom",
      "outputs": [],
      "stateMutability": "payable",
      "type": "function"
    },
    {
      "inputs": [],
      "name": "valueDecimals",
      "outputs": [
        {
          "internalType": "uint8",
          "name": "",
          "type": "uint8"
        }
      ],
      "stateMutability": "view",
      "type": "function"
    }
  ],
  "bytecode": "0x60806040523480156200001157600080fd5b506040516200355838038062003558833981016040819052620000349162000148565b82828282828260006200004884826200025c565b5060016200005783826200025c565b506002805460ff191660ff9290921691909117905550620003289650505050505050565b634e487b7160e01b600052604160045260246000fd5b600082601f830112620000a357600080fd5b81516001600160401b0380821115620000c057620000c06200007b565b604051601f8301601f19908116603f01168101908282118183101715620000eb57620000eb6200007b565b816040528381526020925086838588010111156200010857600080fd5b600091505b838210156200012c57858201830151818301840152908201906200010d565b838211156200013e5760008385830101525b9695505050505050565b6000806000606084860312156200015e57600080fd5b83516001600160401b03808211156200017657600080fd5b620001848783880162000091565b945060208601519150808211156200019b57600080fd5b50620001aa8682870162000091565b925050604084015160ff81168114620001c257600080fd5b809150509250925092565b600181811c90821680620001e257607f821691505b6020821081036200020357634e487b7160e01b600052602260045260246000fd5b50919050565b601f8211156200025757600081815260208120601f850160051c81016020861015620002325750805b601f850160051c820191505b8181101562000253578281556001016200023e565b5050505b505050565b81516001600160401b038111156200027857620002786200007b565b6200029081620002898454620001cd565b8462000209565b602080601f831160018114620002c85760008415620002af5750858301515b600019600386901b1c1916600185901b17855562000253565b600085815260208120601f198616915b82811015620002f957888601518255948401946001909101908401620002d8565b5085821015620003185787850151600019600388901b60f8161c191681555b5050505050600190811b01905550565b61322080620003386000396000f3fe6080604052600436106101cd5760003560e01c80636352211e116100f7578063a22cb46511610095578063e345e0bc11610064578063e345e0bc146104e2578063e8a3d48514610502578063e985e9c514610517578063f0e88e7f1461056457600080fd5b8063a22cb4651461046f578063a647e8ec1461048f578063b88d4fde146104af578063c87b56dd146104c257600080fd5b806387fe8611116100d157806387fe8611146104075780638cb0a5111461042757806395d89b411461043a5780639cc7f7081461044f57600080fd5b80636352211e146103a757806370a08231146103c7578063840f7113146103e757600080fd5b806323b872dd1161016f5780633e7e86691161013e5780633e7e86691461033257806342842e0e1461035457806342966c68146103675780634f6ccce71461038757600080fd5b806323b872dd146102cc578063263f3e7e146102df5780632f745c59146102ff578063310ed7f01461031f57600080fd5b8063095ea7b3116101ab578063095ea7b31461026157806309c3dd87146102765780630f485c021461029657806318160ddd146102b757600080fd5b806301ffc9a7146101d257806306fdde0314610207578063081812fc14610229575b600080fd5b3480156101de57600080fd5b506101f26101ed366004612991565b610584565b60405190151581526020015b60405180910390f35b34801561021357600080fd5b5061021c610627565b6040516101fe9190612a06565b34801561023557600080fd5b50610249610244366004612a19565b6106b9565b6040516001600160a01b0390911681526020016101fe565b61027461026f366004612a49565b61070b565b005b34801561028257600080fd5b5061021c610291366004612a19565b610799565b6102a96102a4366004612a73565b61088b565b6040519081526020016101fe565b3480156102c357600080fd5b506005546102a9565b6102746102da366004612aa8565b6108cd565b3480156102eb57600080fd5b506102a96102fa366004612a19565b6108ff565b34801561030b57600080fd5b506102a961031a366004612a49565b610947565b61027461032d366004612ad4565b6109e8565b34801561033e57600080fd5b5060025460405160ff90911681526020016101fe565b610274610362366004612aa8565b6109fe565b34801561037357600080fd5b50610274610382366004612a19565b610a19565b34801561039357600080fd5b506102a96103a2366004612a19565b610a4a565b3480156103b357600080fd5b506102496103c2366004612a19565b610adb565b3480156103d357600080fd5b506102a96103e2366004612b00565b610b77565b3480156103f357600080fd5b50600854610249906001600160a01b031681565b34801561041357600080fd5b50610274610422366004612b1b565b610bff565b610274610435366004612a73565b610c34565b34801561044657600080fd5b5061021c610cbb565b34801561045b57600080fd5b506102a961046a366004612a19565b610cca565b34801561047b57600080fd5b5061027461048a366004612b4b565b610d12565b34801561049b57600080fd5b506102746104aa366004612b82565b610d1d565b6102746104bd366004612c2a565b610d29565b3480156104ce57600080fd5b5061021c6104dd366004612a19565b610d5a565b3480156104ee57600080fd5b506102a96104fd366004612cd5565b610df9565b34801561050e57600080fd5b5061021c610e2d565b34801561052357600080fd5b506101f2610532366004612d01565b6001600160a01b0391821660009081526007602090815260408083209390941682526002909201909152205460ff1690565b34801561057057600080fd5b5061027461057f366004612b1b565b610f27565b60006001600160e01b031982166301ffc9a760e01b14806105b557506001600160e01b03198216630354d60560e61b145b806105d057506001600160e01b031982166380ac58cd60e01b145b806105eb57506001600160e01b031982166370b0048160e11b145b8061060657506001600160e01b0319821663780e9d6360e01b145b8061062157506001600160e01b03198216635b5e139f60e01b145b92915050565b60606000805461063690612d2b565b80601f016020809104026020016040519081016040528092919081815260200182805461066290612d2b565b80156106af5780601f10610684576101008083540402835291602001916106af565b820191906000526020600020905b81548152906001019060200180831161069257829003601f168201915b5050505050905090565b60006106c482610f31565b6000828152600660205260409020546005805490919081106106e8576106e8612d65565b60009182526020909120600460069092020101546001600160a01b031692915050565b600061071682610adb565b9050806001600160a01b0316836001600160a01b0316036107525760405162461bcd60e51b815260040161074990612d7b565b60405180910390fd5b336001600160a01b038216148061076e575061076e8133610532565b61078a5760405162461bcd60e51b815260040161074990612dbd565b6107948383610f82565b505050565b606060006107b260408051602081019091526000815290565b6008549091506001600160a01b03166108125760008151116107e35760405180602001604052806000815250610884565b806107ed84611019565b6040516020016107fe929190612e1a565b604051602081830303815290604052610884565b600854604051633601bfc560e11b8152600481018590526001600160a01b0390911690636c037f8a906024015b600060405180830381865afa15801561085c573d6000803e3d6000fd5b505050506040513d6000823e601f3d908101601f191682016040526108849190810190612e5a565b9392505050565b600061089833858461111a565b60006108a3856111aa565b90506108ba84826108b3886108ff565b60006111b4565b6108c58582856112de565b949350505050565b6108d8335b8261157e565b6108f45760405162461bcd60e51b815260040161074990612ed1565b6107948383836115e6565b600061090a82610f31565b60008281526006602052604090205460058054909190811061092e5761092e612d65565b9060005260206000209060060201600101549050919050565b600061095283610b77565b82106109ab5760405162461bcd60e51b815260206004820152602260248201527f455243333532353a206f776e657220696e646578206f7574206f6620626f756e604482015261647360f01b6064820152608401610749565b6001600160a01b03831660009081526007602052604090208054839081106109d5576109d5612d65565b9060005260206000200154905092915050565b6109f333848361111a565b6107948383836112de565b61079483838360405180602001604052806000815250610d29565b610a22336108d2565b610a3e5760405162461bcd60e51b815260040161074990612f23565b610a4781611747565b50565b6000610a5560055490565b8210610aaf5760405162461bcd60e51b815260206004820152602360248201527f455243333532353a20676c6f62616c20696e646578206f7574206f6620626f756044820152626e647360e81b6064820152608401610749565b60058281548110610ac257610ac2612d65565b9060005260206000209060060201600001549050919050565b6000610ae682610f31565b600082815260066020526040902054600580549091908110610b0a57610b0a612d65565b60009182526020909120600360069092020101546001600160a01b0316905080610b725760405162461bcd60e51b8152602060048201526019602482015278115490cccd4c8d4e881a5b9d985b1a59081d1bdad95b881251603a1b6044820152606401610749565b919050565b60006001600160a01b038216610be35760405162461bcd60e51b815260206004820152602b60248201527f455243333532353a2062616c616e636520717565727920666f7220746865207a60448201526a65726f206164647265737360a81b6064820152608401610749565b506001600160a01b031660009081526007602052604090205490565b610c0a335b8361157e565b610c265760405162461bcd60e51b815260040161074990612f23565b610c308282611856565b5050565b6000610c3f84610adb565b9050806001600160a01b0316836001600160a01b031603610c725760405162461bcd60e51b815260040161074990612d7b565b336001600160a01b0382161480610c8e5750610c8e8133610532565b610caa5760405162461bcd60e51b815260040161074990612dbd565b610cb5848484611954565b50505050565b60606001805461063690612d2b565b6000610cd582610f31565b600082815260066020526040902054600580549091908110610cf957610cf9612d65565b9060005260206000209060060201600201549050919050565b610c30338383611a8c565b610cb5848484846111b4565b610d3233610c04565b610d4e5760405162461bcd60e51b815260040161074990612ed1565b610cb584848484611b56565b6060610d6582610f31565b6000610d7c60408051602081019091526000815290565b6008549091506001600160a01b0316610dc8576000815111610dad5760405180602001604052806000815250610884565b80610db784611019565b6040516020016107fe929190612f72565b6008546040516344a5a61760e11b8152600481018590526001600160a01b039091169063894b4c2e9060240161083f565b6000610e0483610f31565b5060009182526004602090815260408084206001600160a01b0393909316845291905290205490565b60606000610e4660408051602081019091526000815290565b6008549091506001600160a01b0316610ea6576000815111610e775760405180602001604052806000815250610f21565b80610e8130611bc9565b604051602001610e92929190612fa1565b604051602081830303815290604052610f21565b600860009054906101000a90046001600160a01b03166001600160a01b031663725fa09c6040518163ffffffff1660e01b8152600401600060405180830381865afa158015610ef9573d6000803e3d6000fd5b505050506040513d6000823e601f3d908101601f19168201604052610f219190810190612e5a565b91505090565b610c308282611bdf565b610f3a81611c0c565b610a475760405162461bcd60e51b8152602060048201526019602482015278115490cccd4c8d4e881a5b9d985b1a59081d1bdad95b881251603a1b6044820152606401610749565b600081815260066020526040902054600580548492908110610fa657610fa6612d65565b6000918252602090912060069091020160040180546001600160a01b0319166001600160a01b0392831617905581908316610fe082610adb565b6001600160a01b03167f8c5be1e5ebec7d5bd14f71427d1e84f3dd0314c0f7b2291e5b200ac8c7c3b92560405160405180910390a45050565b6060816000036110405750506040805180820190915260018152600360fc1b602082015290565b8160005b811561106a578061105481612ffb565b91506110639050600a8361302a565b9150611044565b60008167ffffffffffffffff81111561108557611085612bbb565b6040519080825280601f01601f1916602001820160405280156110af576020820181803683370190505b5090505b84156108c5576110c460018361303e565b91506110d1600a86613055565b6110dc906030613069565b60f81b8183815181106110f1576110f1612d65565b60200101906001600160f81b031916908160001a905350611113600a8661302a565b94506110b3565b60006111268385610df9565b9050611132848461157e565b15801561114157506000198114155b15610cb557818110156111965760405162461bcd60e51b815260206004820152601f60248201527f455243333532353a20696e73756666696369656e7420616c6c6f77616e6365006044820152606401610749565b610cb583856111a5858561303e565b611954565b6000610621611c58565b6001600160a01b0384166112145760405162461bcd60e51b815260206004820152602160248201527f455243333532353a206d696e7420746f20746865207a65726f206164647265736044820152607360f81b6064820152608401610749565b8260000361126e5760405162461bcd60e51b815260206004820152602160248201527f455243333532353a2063616e6e6f74206d696e74207a65726f20746f6b656e496044820152601960fa1b6064820152608401610749565b61127783611c0c565b156112c45760405162461bcd60e51b815260206004820152601d60248201527f455243333532353a20746f6b656e20616c7265616479206d696e7465640000006044820152606401610749565b6112cf848484611c6f565b6112d98382611d35565b610cb5565b6112e783611c0c565b6113435760405162461bcd60e51b815260206004820152602760248201527f455243333532353a207472616e736665722066726f6d20696e76616c696420746044820152661bdad95b88125160ca1b6064820152608401610749565b61134c82611c0c565b6113a65760405162461bcd60e51b815260206004820152602560248201527f455243333532353a207472616e7366657220746f20696e76616c696420746f6b604482015264195b88125160da1b6064820152608401610749565b6000838152600660205260408120546005805490919081106113ca576113ca612d65565b906000526020600020906006020190506000600560066000868152602001908152602001600020548154811061140257611402612d65565b9060005260206000209060060201905082826002015410156114795760405162461bcd60e51b815260206004820152602a60248201527f455243333532353a20696e73756666696369656e742062616c616e636520666f60448201526939103a3930b739b332b960b11b6064820152608401610749565b80600101548260010154146114e75760405162461bcd60e51b815260206004820152602e60248201527f455243333532353a207472616e7366657220746f20746f6b656e20776974682060448201526d191a5999995c995b9d081cdb1bdd60921b6064820152608401610749565b828260020160008282546114fb919061303e565b92505081905550828160020160008282546115169190613069565b9091555050604051838152849086906000805160206131cb8339815191529060200160405180910390a361155b85858560405180602001604052806000815250611da8565b6115775760405162461bcd60e51b815260040161074990613081565b5050505050565b600061158982610f31565b600061159483610adb565b9050806001600160a01b0316846001600160a01b031614806115bb57506115bb8185610532565b806108c55750836001600160a01b03166115d4846106b9565b6001600160a01b031614949350505050565b826001600160a01b03166115f982610adb565b6001600160a01b03161461165b5760405162461bcd60e51b8152602060048201526024808201527f455243333532353a207472616e736665722066726f6d20696e76616c6964206f6044820152633bb732b960e11b6064820152608401610749565b6001600160a01b0382166116bf5760405162461bcd60e51b815260206004820152602560248201527f455243333532353a207472616e7366657220746f20746865207a65726f206164604482015264647265737360d81b6064820152608401610749565b60006116ca826108ff565b905060006116d783610cca565b90506116e4600084610f82565b6116ed83611f2c565b6116f78584611fc8565b61170184846120e9565b82846001600160a01b0316866001600160a01b03167fddf252ad1be2c89b69c2b068fc378daa952ba7f163c4a11628f55a4df523b3ef60405160405180910390a4611577565b61175081610f31565b60008181526006602052604081205460058054909190811061177457611774612d65565b60009182526020909120600691909102016003810154600182015460028301549293506001600160a01b03909116916117ac85611f2c565b6117b68386611fc8565b6117bf85612172565b6000856000805160206131cb833981519152836040516117e191815260200190565b60405180910390a3600082867fe4f48c240d3b994948aa54f3e2f5fca59263dfe1d52b6e4cf39a5d249b5ccb6560405160405180910390a460405185906000906001600160a01b038616907fddf252ad1be2c89b69c2b068fc378daa952ba7f163c4a11628f55a4df523b3ef908390a4611577565b61185f82610f31565b60008281526006602052604081205460058054909190811061188357611883612d65565b600091825260209091206006909102016003810154600182015460028301549293506001600160a01b03909116918481101561190d5760405162461bcd60e51b815260206004820152602360248201527f455243333532353a206275726e2076616c756520657863656564732062616c616044820152626e636560e81b6064820152608401610749565b84846002016000828254611921919061303e565b909155505060405185815260009087906000805160206131cb8339815191529060200160405180910390a3505050505050565b6001600160a01b0382166119bd5760405162461bcd60e51b815260206004820152602a60248201527f455243333532353a20617070726f76652076616c756520746f20746865207a65604482015269726f206164647265737360b01b6064820152608401610749565b6119c78284612380565b611a2d576000838152600660205260409020546005805490919081106119ef576119ef612d65565b60009182526020808320600692909202909101600501805460018101825590835291200180546001600160a01b0319166001600160a01b0384161790555b60008381526004602090815260408083206001600160a01b038616808552908352928190208490555183815285917f621b050de0ad08b51d19b48b3e6df75348c4de6bdd93e81b252ca62e28265b1b91015b60405180910390a3505050565b816001600160a01b0316836001600160a01b031603611aed5760405162461bcd60e51b815260206004820152601a60248201527f455243333532353a20617070726f766520746f2063616c6c65720000000000006044820152606401610749565b6001600160a01b0383811660008181526007602090815260408083209487168084526002909501825291829020805460ff191686151590811790915591519182527f17307eab39ab6107e8899845ad3d59bd9653f200f220920489ca2b5937696c319101611a7f565b611b618484846115e6565b611b6d84848484612453565b610cb55760405162461bcd60e51b815260206004820152602760248201527f455243333532353a207472616e7366657220746f206e6f6e204552433732315260448201526632b1b2b4bb32b960c91b6064820152608401610749565b60606106216001600160a01b0383166014612600565b611be882610f31565b6000611bf383610adb565b90506000611c00846108ff565b90506112d98484611d35565b600554600090158015906106215750600082815260066020526040902054600580548492908110611c3f57611c3f612d65565b9060005260206000209060060201600001541492915050565b6000611c68600380546001019055565b5060035490565b6040805160c081018252838152602080820184905260008284018190526001600160a01b038716606084015260808301819052835181815291820190935260a08201529050611cbd8161279c565b611cc784846120e9565b60405183906001600160a01b038616906000907fddf252ad1be2c89b69c2b068fc378daa952ba7f163c4a11628f55a4df523b3ef908290a4816000847fe4f48c240d3b994948aa54f3e2f5fca59263dfe1d52b6e4cf39a5d249b5ccb6560405160405180910390a450505050565b600082815260066020526040902054600580548392908110611d5957611d59612d65565b90600052602060002090600602016002016000828254611d799190613069565b909155505060405181815282906000906000805160206131cb8339815191529060200160405180910390a35050565b600080611db485610adb565b90506001600160a01b0381163b15158015611e3857506040516301ffc9a760e01b8152629ce20b60e01b60048201526001600160a01b038216906301ffc9a790602401602060405180830381865afa158015611e14573d6000803e3d6000fd5b505050506040513d601f19601f82011682018060405250810190611e3891906130c9565b15611f2257604051629ce20b60e01b81526001600160a01b03821690629ce20b90611e6f9033908a908a908a908a906004016130e6565b6020604051808303816000875af1925050508015611eaa575060408051601f3d908101601f19168201909252611ea791810190613124565b60015b611f07573d808015611ed8576040519150601f19603f3d011682016040523d82523d6000602084013e611edd565b606091505b508051600003611eff5760405162461bcd60e51b815260040161074990613081565b805181602001fd5b6001600160e01b031916629ce20b60e01b1491506108c59050565b60019150506108c5565b600081815260066020526040812054600580549091908110611f5057611f50612d65565b600091825260208220600560069092020190810154909250905b81811015610cb5576000836005018281548110611f8957611f89612d65565b60009182526020808320909101548783526004825260408084206001600160a01b03909216845291528120555080611fc081612ffb565b915050611f6a565b600081815260066020526040812054600580549091908110611fec57611fec612d65565b6000918252602080832060069290920290910160030180546001600160a01b0319166001600160a01b039485161790559184168152600790915260408120805490919061203b9060019061303e565b9050600082600001828154811061205457612054612d65565b9060005260206000200154905060008360010160008681526020019081526020016000205490508184600001828154811061209157612091612d65565b600091825260208083209091019290925583815260018601909152604080822083905586825281205583548490806120cb576120cb613141565b60019003818190600052602060002001600090559055505050505050565b60008181526006602052604090205460058054849290811061210d5761210d612d65565b6000918252602080832060069290920290910160030180546001600160a01b0319166001600160a01b03948516179055939091168152600780845260408083208054858552600182810188529285208190559286529082018155825292902090910155565b6005546000906121849060019061303e565b600083815260066020526040812054600580549394509092849081106121ac576121ac612d65565b60009182526020918290206040805160c08101825260069093029091018054835260018101548385015260028101548383015260038101546001600160a01b03908116606085015260048201541660808401526005810180548351818702810187019094528084529394919360a08601939283018282801561225757602002820191906000526020600020905b81546001600160a01b03168152600190910190602001808311612239575b5050505050815250509050806005838154811061227657612276612d65565b600091825260209182902083516006909202019081558282015160018201556040830151600282015560608301516003820180546001600160a01b039283166001600160a01b031991821617909155608085015160048401805491909316911617905560a0830151805191926122f4926005850192909101906128e7565b5050815160009081526006602052604080822085905586825281205550600580548061232257612322613141565b60008281526020812060066000199093019283020181815560018101829055600281018290556003810180546001600160a01b0319908116909155600482018054909116905590612376600583018261294c565b5050905550505050565b6000818152600660205260408120546005805483929081106123a4576123a4612d65565b6000918252602082206005600690920201015491505b8181101561244857600084815260066020526040902054600580546001600160a01b038816929081106123ef576123ef612d65565b9060005260206000209060060201600501828154811061241157612411612d65565b6000918252602090912001546001600160a01b03160361243657600192505050610621565b8061244081612ffb565b9150506123ba565b506000949350505050565b60006001600160a01b0384163b151580156124d857506040516301ffc9a760e01b8152630a85bd0160e11b60048201526001600160a01b038516906301ffc9a790602401602060405180830381865afa1580156124b4573d6000803e3d6000fd5b505050506040513d601f19601f820116820180604052508101906124d891906130c9565b156125f857604051630a85bd0160e11b81526001600160a01b0385169063150b7a029061250f903390899088908890600401613157565b6020604051808303816000875af192505050801561254a575060408051601f3d908101601f1916820190925261254791810190613124565b60015b6125de573d808015612578576040519150601f19603f3d011682016040523d82523d6000602084013e61257d565b606091505b508051600003611eff5760405162461bcd60e51b815260206004820152602660248201527f4552433732313a207472616e7366657220746f206e6f6e20455243373231526560448201526531b2b4bb32b960d11b6064820152608401610749565b6001600160e01b031916630a85bd0160e11b1490506108c5565b5060016108c5565b6060600061260f836002613194565b61261a906002613069565b67ffffffffffffffff81111561263257612632612bbb565b6040519080825280601f01601f19166020018201604052801561265c576020820181803683370190505b509050600360fc1b8160008151811061267757612677612d65565b60200101906001600160f81b031916908160001a905350600f60fb1b816001815181106126a6576126a6612d65565b60200101906001600160f81b031916908160001a90535060006126ca846002613194565b6126d5906001613069565b90505b600181111561274d576f181899199a1a9b1b9c1cb0b131b232b360811b85600f166010811061270957612709612d65565b1a60f81b82828151811061271f5761271f612d65565b60200101906001600160f81b031916908160001a90535060049490941c93612746816131b3565b90506126d8565b5083156108845760405162461bcd60e51b815260206004820181905260248201527f537472696e67733a20686578206c656e67746820696e73756666696369656e746044820152606401610749565b600580548251600090815260066020818152604080842085905560018501865594909252845192027f036b6384b5eca791c62761152d0c79bb0604c104a5fb6f4eb0703f3154bb3db08101928355818501517f036b6384b5eca791c62761152d0c79bb0604c104a5fb6f4eb0703f3154bb3db1820155928401517f036b6384b5eca791c62761152d0c79bb0604c104a5fb6f4eb0703f3154bb3db284015560608401517f036b6384b5eca791c62761152d0c79bb0604c104a5fb6f4eb0703f3154bb3db3840180546001600160a01b039283166001600160a01b03199182161790915560808601517f036b6384b5eca791c62761152d0c79bb0604c104a5fb6f4eb0703f3154bb3db48601805491909316911617905560a084015180518594610cb5937f036b6384b5eca791c62761152d0c79bb0604c104a5fb6f4eb0703f3154bb3db59091019201905b82805482825590600052602060002090810192821561293c579160200282015b8281111561293c57825182546001600160a01b0319166001600160a01b03909116178255602090920191600190910190612907565b50612948929150612966565b5090565b5080546000825590600052602060002090810190610a4791905b5b808211156129485760008155600101612967565b6001600160e01b031981168114610a4757600080fd5b6000602082840312156129a357600080fd5b81356108848161297b565b60005b838110156129c95781810151838201526020016129b1565b83811115610cb55750506000910152565b600081518084526129f28160208601602086016129ae565b601f01601f19169290920160200192915050565b60208152600061088460208301846129da565b600060208284031215612a2b57600080fd5b5035919050565b80356001600160a01b0381168114610b7257600080fd5b60008060408385031215612a5c57600080fd5b612a6583612a32565b946020939093013593505050565b600080600060608486031215612a8857600080fd5b83359250612a9860208501612a32565b9150604084013590509250925092565b600080600060608486031215612abd57600080fd5b612ac684612a32565b9250612a9860208501612a32565b600080600060608486031215612ae957600080fd5b505081359360208301359350604090920135919050565b600060208284031215612b1257600080fd5b61088482612a32565b60008060408385031215612b2e57600080fd5b50508035926020909101359150565b8015158114610a4757600080fd5b60008060408385031215612b5e57600080fd5b612b6783612a32565b91506020830135612b7781612b3d565b809150509250929050565b60008060008060808587031215612b9857600080fd5b612ba185612a32565b966020860135965060408601359560600135945092505050565b634e487b7160e01b600052604160045260246000fd5b604051601f8201601f1916810167ffffffffffffffff81118282101715612bfa57612bfa612bbb565b604052919050565b600067ffffffffffffffff821115612c1c57612c1c612bbb565b50601f01601f191660200190565b60008060008060808587031215612c4057600080fd5b612c4985612a32565b9350612c5760208601612a32565b925060408501359150606085013567ffffffffffffffff811115612c7a57600080fd5b8501601f81018713612c8b57600080fd5b8035612c9e612c9982612c02565b612bd1565b818152886020838501011115612cb357600080fd5b8160208401602083013760006020838301015280935050505092959194509250565b60008060408385031215612ce857600080fd5b82359150612cf860208401612a32565b90509250929050565b60008060408385031215612d1457600080fd5b612d1d83612a32565b9150612cf860208401612a32565b600181811c90821680612d3f57607f821691505b602082108103612d5f57634e487b7160e01b600052602260045260246000fd5b50919050565b634e487b7160e01b600052603260045260246000fd5b60208082526022908201527f455243333532353a20617070726f76616c20746f2063757272656e74206f776e60408201526132b960f11b606082015260800190565b60208082526039908201527f455243333532353a20617070726f76652063616c6c6572206973206e6f74206f60408201527f776e6572206e6f7220617070726f76656420666f7220616c6c00000000000000606082015260800190565b60008351612e2c8184602088016129ae565b64736c6f742f60d81b9083019081528351612e4e8160058401602088016129ae565b01600501949350505050565b600060208284031215612e6c57600080fd5b815167ffffffffffffffff811115612e8357600080fd5b8201601f81018413612e9457600080fd5b8051612ea2612c9982612c02565b818152856020838501011115612eb757600080fd5b612ec88260208301602086016129ae565b95945050505050565b60208082526032908201527f455243333532353a207472616e736665722063616c6c6572206973206e6f74206040820152711bdddb995c881b9bdc88185c1c1c9bdd995960721b606082015260800190565b6020808252602f908201527f455243333532353a2063616c6c6572206973206e6f7420746f6b656e206f776e60408201526e195c881b9bdc88185c1c1c9bdd9959608a1b606082015260800190565b60008351612f848184602088016129ae565b835190830190612f988183602088016129ae565b01949350505050565b60008351612fb38184602088016129ae565b68636f6e74726163742f60b81b9083019081528351612fd98160098401602088016129ae565b01600901949350505050565b634e487b7160e01b600052601160045260246000fd5b60006001820161300d5761300d612fe5565b5060010190565b634e487b7160e01b600052601260045260246000fd5b60008261303957613039613014565b500490565b60008282101561305057613050612fe5565b500390565b60008261306457613064613014565b500690565b6000821982111561307c5761307c612fe5565b500190565b60208082526028908201527f455243333532353a207472616e7366657220746f206e6f6e20455243333532356040820152672932b1b2b4bb32b960c11b606082015260800190565b6000602082840312156130db57600080fd5b815161088481612b3d565b60018060a01b038616815284602082015283604082015282606082015260a06080820152600061311960a08301846129da565b979650505050505050565b60006020828403121561313657600080fd5b81516108848161297b565b634e487b7160e01b600052603160045260246000fd5b6001600160a01b038581168252841660208201526040810183905260806060820181905260009061318a908301846129da565b9695505050505050565b60008160001904831182151516156131ae576131ae612fe5565b500290565b6000816131c2576131c2612fe5565b50600019019056fe0b2aac84f3ec956911fd78eae5311062972ff949f38412e8da39069d9f068cc6a2646970667358221220081f33eba22d9b1b93d09e0cab168538ef4297f5c68f157142f052cc9dc1eb6064736f6c634300080f0033",
  "linkReferences": {},
  "deployedLinkReferences": {}
}