{
  "_format": "hh-sol-artifact-1",
  "contractName": "ERC3525SlotApprovable",
  "sourceName": "contracts/ERC3525SlotApprovable.sol",
  "abi": [
    {
      "inputs": [
        {
          "internalType": "string",
          "name": "name_",
          "type": "string"
        },
        {
          "internalType": "string",
          "name": "symbol_",
          "type": "string"
        },
        {
          "internalType": "uint8",
          "name": "decimals_",
          "type": "uint8"
        }
      ],
      "stateMutability": "nonpayable",
      "type": "constructor"
    },
    {
      "anonymous": false,
      "inputs": [
        {
          "indexed": true,
          "internalType": "address",
          "name": "_owner",
          "type": "address"
        },
        {
          "indexed": true,
          "internalType": "address",
          "name": "_approved",
          "type": "address"
        },
        {
          "indexed": true,
          "internalType": "uint256",
          "name": "_tokenId",
          "type": "uint256"
        }
      ],
      "name": "Approval",
      "type": "event"
    },
    {
      "anonymous": false,
      "inputs": [
        {
          "indexed": true,
          "internalType": "address",
          "name": "_owner",
          "type": "address"
        },
        {
          "indexed": true,
          "internalType": "address",
          "name": "_operator",
          "type": "address"
        },
        {
          "indexed": false,
          "internalType": "bool",
          "name": "_approved",
          "type": "bool"
        }
      ],
      "name": "ApprovalForAll",
      "type": "event"
    },
    {
      "anonymous": false,
      "inputs": [
        {
          "indexed": true,
          "internalType": "address",
          "name": "_owner",
          "type": "address"
        },
        {
          "indexed": true,
          "internalType": "uint256",
          "name": "_slot",
          "type": "uint256"
        },
        {
          "indexed": true,
          "internalType": "address",
          "name": "_operator",
          "type": "address"
        },
        {
          "indexed": false,
          "internalType": "bool",
          "name": "_approved",
          "type": "bool"
        }
      ],
      "name": "ApprovalForSlot",
      "type": "event"
    },
    {
      "anonymous": false,
      "inputs": [
        {
          "indexed": true,
          "internalType": "uint256",
          "name": "_tokenId",
          "type": "uint256"
        },
        {
          "indexed": true,
          "internalType": "address",
          "name": "_operator",
          "type": "address"
        },
        {
          "indexed": false,
          "internalType": "uint256",
          "name": "_value",
          "type": "uint256"
        }
      ],
      "name": "ApprovalValue",
      "type": "event"
    },
    {
      "anonymous": false,
      "inputs": [
        {
          "indexed": true,
          "internalType": "address",
          "name": "metadataDescriptor",
          "type": "address"
        }
      ],
      "name": "SetMetadataDescriptor",
      "type": "event"
    },
    {
      "anonymous": false,
      "inputs": [
        {
          "indexed": true,
          "internalType": "uint256",
          "name": "_tokenId",
          "type": "uint256"
        },
        {
          "indexed": true,
          "internalType": "uint256",
          "name": "_oldSlot",
          "type": "uint256"
        },
        {
          "indexed": true,
          "internalType": "uint256",
          "name": "_newSlot",
          "type": "uint256"
        }
      ],
      "name": "SlotChanged",
      "type": "event"
    },
    {
      "anonymous": false,
      "inputs": [
        {
          "indexed": true,
          "internalType": "address",
          "name": "_from",
          "type": "address"
        },
        {
          "indexed": true,
          "internalType": "address",
          "name": "_to",
          "type": "address"
        },
        {
          "indexed": true,
          "internalType": "uint256",
          "name": "_tokenId",
          "type": "uint256"
        }
      ],
      "name": "Transfer",
      "type": "event"
    },
    {
      "anonymous": false,
      "inputs": [
        {
          "indexed": true,
          "internalType": "uint256",
          "name": "_fromTokenId",
          "type": "uint256"
        },
        {
          "indexed": true,
          "internalType": "uint256",
          "name": "_toTokenId",
          "type": "uint256"
        },
        {
          "indexed": false,
          "internalType": "uint256",
          "name": "_value",
          "type": "uint256"
        }
      ],
      "name": "TransferValue",
      "type": "event"
    },
    {
      "inputs": [
        {
          "internalType": "uint256",
          "name": "tokenId_",
          "type": "uint256"
        },
        {
          "internalType": "address",
          "name": "operator_",
          "type": "address"
        }
      ],
      "name": "allowance",
      "outputs": [
        {
          "internalType": "uint256",
          "name": "",
          "type": "uint256"
        }
      ],
      "stateMutability": "view",
      "type": "function"
    },
    {
      "inputs": [
        {
          "internalType": "address",
          "name": "to_",
          "type": "address"
        },
        {
          "internalType": "uint256",
          "name": "tokenId_",
          "type": "uint256"
        }
      ],
      "name": "approve",
      "outputs": [],
      "stateMutability": "payable",
      "type": "function"
    },
    {
      "inputs": [
        {
          "internalType": "uint256",
          "name": "tokenId_",
          "type": "uint256"
        },
        {
          "internalType": "address",
          "name": "to_",
          "type": "address"
        },
        {
          "internalType": "uint256",
          "name": "value_",
          "type": "uint256"
        }
      ],
      "name": "approve",
      "outputs": [],
      "stateMutability": "payable",
      "type": "function"
    },
    {
      "inputs": [
        {
          "internalType": "address",
          "name": "owner_",
          "type": "address"
        }
      ],
      "name": "balanceOf",
      "outputs": [
        {
          "internalType": "uint256",
          "name": "balance",
          "type": "uint256"
        }
      ],
      "stateMutability": "view",
      "type": "function"
    },
    {
      "inputs": [
        {
          "internalType": "uint256",
          "name": "tokenId_",
          "type": "uint256"
        }
      ],
      "name": "balanceOf",
      "outputs": [
        {
          "internalType": "uint256",
          "name": "",
          "type": "uint256"
        }
      ],
      "stateMutability": "view",
      "type": "function"
    },
    {
      "inputs": [],
      "name": "contractURI",
      "outputs": [
        {
          "internalType": "string",
          "name": "",
          "type": "string"
        }
      ],
      "stateMutability": "view",
      "type": "function"
    },
    {
      "inputs": [
        {
          "internalType": "uint256",
          "name": "tokenId_",
          "type": "uint256"
        }
      ],
      "name": "getApproved",
      "outputs": [
        {
          "internalType": "address",
          "name": "",
          "type": "address"
        }
      ],
      "stateMutability": "view",
      "type": "function"
    },
    {
      "inputs": [
        {
          "internalType": "address",
          "name": "owner_",
          "type": "address"
        },
        {
          "internalType": "address",
          "name": "operator_",
          "type": "address"
        }
      ],
      "name": "isApprovedForAll",
      "outputs": [
        {
          "internalType": "bool",
          "name": "",
          "type": "bool"
        }
      ],
      "stateMutability": "view",
      "type": "function"
    },
    {
      "inputs": [
        {
          "internalType": "address",
          "name": "owner_",
          "type": "address"
        },
        {
          "internalType": "uint256",
          "name": "slot_",
          "type": "uint256"
        },
        {
          "internalType": "address",
          "name": "operator_",
          "type": "address"
        }
      ],
      "name": "isApprovedForSlot",
      "outputs": [
        {
          "internalType": "bool",
          "name": "",
          "type": "bool"
        }
      ],
      "stateMutability": "view",
      "type": "function"
    },
    {
      "inputs": [],
      "name": "metadataDescriptor",
      "outputs": [
        {
          "internalType": "contract IERC3525MetadataDescriptor",
          "name": "",
          "type": "address"
        }
      ],
      "stateMutability": "view",
      "type": "function"
    },
    {
      "inputs": [],
      "name": "name",
      "outputs": [
        {
          "internalType": "string",
          "name": "",
          "type": "string"
        }
      ],
      "stateMutability": "view",
      "type": "function"
    },
    {
      "inputs": [
        {
          "internalType": "uint256",
          "name": "tokenId_",
          "type": "uint256"
        }
      ],
      "name": "ownerOf",
      "outputs": [
        {
          "internalType": "address",
          "name": "owner_",
          "type": "address"
        }
      ],
      "stateMutability": "view",
      "type": "function"
    },
    {
      "inputs": [
        {
          "internalType": "address",
          "name": "from_",
          "type": "address"
        },
        {
          "internalType": "address",
          "name": "to_",
          "type": "address"
        },
        {
          "internalType": "uint256",
          "name": "tokenId_",
          "type": "uint256"
        }
      ],
      "name": "safeTransferFrom",
      "outputs": [],
      "stateMutability": "payable",
      "type": "function"
    },
    {
      "inputs": [
        {
          "internalType": "address",
          "name": "from_",
          "type": "address"
        },
        {
          "internalType": "address",
          "name": "to_",
          "type": "address"
        },
        {
          "internalType": "uint256",
          "name": "tokenId_",
          "type": "uint256"
        },
        {
          "internalType": "bytes",
          "name": "data_",
          "type": "bytes"
        }
      ],
      "name": "safeTransferFrom",
      "outputs": [],
      "stateMutability": "payable",
      "type": "function"
    },
    {
      "inputs": [
        {
          "internalType": "address",
          "name": "operator_",
          "type": "address"
        },
        {
          "internalType": "bool",
          "name": "approved_",
          "type": "bool"
        }
      ],
      "name": "setApprovalForAll",
      "outputs": [],
      "stateMutability": "nonpayable",
      "type": "function"
    },
    {
      "inputs": [
        {
          "internalType": "address",
          "name": "owner_",
          "type": "address"
        },
        {
          "internalType": "uint256",
          "name": "slot_",
          "type": "uint256"
        },
        {
          "internalType": "address",
          "name": "operator_",
          "type": "address"
        },
        {
          "internalType": "bool",
          "name": "approved_",
          "type": "bool"
        }
      ],
      "name": "setApprovalForSlot",
      "outputs": [],
      "stateMutability": "payable",
      "type": "function"
    },
    {
      "inputs": [
        {
          "internalType": "uint256",
          "name": "index_",
          "type": "uint256"
        }
      ],
      "name": "slotByIndex",
      "outputs": [
        {
          "internalType": "uint256",
          "name": "",
          "type": "uint256"
        }
      ],
      "stateMutability": "view",
      "type": "function"
    },
    {
      "inputs": [],
      "name": "slotCount",
      "outputs": [
        {
          "internalType": "uint256",
          "name": "",
          "type": "uint256"
        }
      ],
      "stateMutability": "view",
      "type": "function"
    },
    {
      "inputs": [
        {
          "internalType": "uint256",
          "name": "tokenId_",
          "type": "uint256"
        }
      ],
      "name": "slotOf",
      "outputs": [
        {
          "internalType": "uint256",
          "name": "",
          "type": "uint256"
        }
      ],
      "stateMutability": "view",
      "type": "function"
    },
    {
      "inputs": [
        {
          "internalType": "uint256",
          "name": "slot_",
          "type": "uint256"
        }
      ],
      "name": "slotURI",
      "outputs": [
        {
          "internalType": "string",
          "name": "",
          "type": "string"
        }
      ],
      "stateMutability": "view",
      "type": "function"
    },
    {
      "inputs": [
        {
          "internalType": "bytes4",
          "name": "interfaceId",
          "type": "bytes4"
        }
      ],
      "name": "supportsInterface",
      "outputs": [
        {
          "internalType": "bool",
          "name": "",
          "type": "bool"
        }
      ],
      "stateMutability": "view",
      "type": "function"
    },
    {
      "inputs": [],
      "name": "symbol",
      "outputs": [
        {
          "internalType": "string",
          "name": "",
          "type": "string"
        }
      ],
      "stateMutability": "view",
      "type": "function"
    },
    {
      "inputs": [
        {
          "internalType": "uint256",
          "name": "index_",
          "type": "uint256"
        }
      ],
      "name": "tokenByIndex",
      "outputs": [
        {
          "internalType": "uint256",
          "name": "",
          "type": "uint256"
        }
      ],
      "stateMutability": "view",
      "type": "function"
    },
    {
      "inputs": [
        {
          "internalType": "uint256",
          "name": "slot_",
          "type": "uint256"
        },
        {
          "internalType": "uint256",
          "name": "index_",
          "type": "uint256"
        }
      ],
      "name": "tokenInSlotByIndex",
      "outputs": [
        {
          "internalType": "uint256",
          "name": "",
          "type": "uint256"
        }
      ],
      "stateMutability": "view",
      "type": "function"
    },
    {
      "inputs": [
        {
          "internalType": "address",
          "name": "owner_",
          "type": "address"
        },
        {
          "internalType": "uint256",
          "name": "index_",
          "type": "uint256"
        }
      ],
      "name": "tokenOfOwnerByIndex",
      "outputs": [
        {
          "internalType": "uint256",
          "name": "",
          "type": "uint256"
        }
      ],
      "stateMutability": "view",
      "type": "function"
    },
    {
      "inputs": [
        {
          "internalType": "uint256",
          "name": "slot_",
          "type": "uint256"
        }
      ],
      "name": "tokenSupplyInSlot",
      "outputs": [
        {
          "internalType": "uint256",
          "name": "",
          "type": "uint256"
        }
      ],
      "stateMutability": "view",
      "type": "function"
    },
    {
      "inputs": [
        {
          "internalType": "uint256",
          "name": "tokenId_",
          "type": "uint256"
        }
      ],
      "name": "tokenURI",
      "outputs": [
        {
          "internalType": "string",
          "name": "",
          "type": "string"
        }
      ],
      "stateMutability": "view",
      "type": "function"
    },
    {
      "inputs": [],
      "name": "totalSupply",
      "outputs": [
        {
          "internalType": "uint256",
          "name": "",
          "type": "uint256"
        }
      ],
      "stateMutability": "view",
      "type": "function"
    },
    {
      "inputs": [
        {
          "internalType": "uint256",
          "name": "fromTokenId_",
          "type": "uint256"
        },
        {
          "internalType": "address",
          "name": "to_",
          "type": "address"
        },
        {
          "internalType": "uint256",
          "name": "value_",
          "type": "uint256"
        }
      ],
      "name": "transferFrom",
      "outputs": [
        {
          "internalType": "uint256",
          "name": "",
          "type": "uint256"
        }
      ],
      "stateMutability": "payable",
      "type": "function"
    },
    {
      "inputs": [
        {
          "internalType": "address",
          "name": "from_",
          "type": "address"
        },
        {
          "internalType": "address",
          "name": "to_",
          "type": "address"
        },
        {
          "internalType": "uint256",
          "name": "tokenId_",
          "type": "uint256"
        }
      ],
      "name": "transferFrom",
      "outputs": [],
      "stateMutability": "payable",
      "type": "function"
    },
    {
      "inputs": [
        {
          "internalType": "uint256",
          "name": "fromTokenId_",
          "type": "uint256"
        },
        {
          "internalType": "uint256",
          "name": "toTokenId_",
          "type": "uint256"
        },
        {
          "internalType": "uint256",
          "name": "value_",
          "type": "uint256"
        }
      ],
      "name": "transferFrom",
      "outputs": [],
      "stateMutability": "payable",
      "type": "function"
    },
    {
      "inputs": [],
      "name": "valueDecimals",
      "outputs": [
        {
          "internalType": "uint8",
          "name": "",
          "type": "uint8"
        }
      ],
      "stateMutability": "view",
      "type": "function"
    }
  ],
  "bytecode": "0x60806040523480156200001157600080fd5b506040516200399f3803806200399f833981016040819052620000349162000148565b82828282828260006200004884826200025c565b5060016200005783826200025c565b506002805460ff191660ff9290921691909117905550620003289650505050505050565b634e487b7160e01b600052604160045260246000fd5b600082601f830112620000a357600080fd5b81516001600160401b0380821115620000c057620000c06200007b565b604051601f8301601f19908116603f01168101908282118183101715620000eb57620000eb6200007b565b816040528381526020925086838588010111156200010857600080fd5b600091505b838210156200012c57858201830151818301840152908201906200010d565b838211156200013e5760008385830101525b9695505050505050565b6000806000606084860312156200015e57600080fd5b83516001600160401b03808211156200017657600080fd5b620001848783880162000091565b945060208601519150808211156200019b57600080fd5b50620001aa8682870162000091565b925050604084015160ff81168114620001c257600080fd5b809150509250925092565b600181811c90821680620001e257607f821691505b6020821081036200020357634e487b7160e01b600052602260045260246000fd5b50919050565b601f8211156200025757600081815260208120601f850160051c81016020861015620002325750805b601f850160051c820191505b8181101562000253578281556001016200023e565b5050505b505050565b81516001600160401b038111156200027857620002786200007b565b6200029081620002898454620001cd565b8462000209565b602080601f831160018114620002c85760008415620002af5750858301515b600019600386901b1c1916600185901b17855562000253565b600085815260208120601f198616915b82811015620002f957888601518255948401946001909101908401620002d8565b5085821015620003185787850151600019600388901b60f8161c191681555b5050505050600190811b01905550565b61366780620003386000396000f3fe6080604052600436106101e25760003560e01c806355cd4e0611610102578063a22cb46511610095578063e345f05e11610064578063e345f05e1461052a578063e8a3d4851461057b578063e985e9c514610590578063ed08fa80146105dd57600080fd5b8063a22cb465146104b7578063b88d4fde146104d7578063c87b56dd146104ea578063e345e0bc1461050a57600080fd5b80638cb0a511116100d15780638cb0a5111461044f57806395d89b4114610462578063993bef8d146104775780639cc7f7081461049757600080fd5b806355cd4e06146103dc5780636352211e146103ef57806370a082311461040f578063840f71131461042f57600080fd5b806323b872dd1161017a5780633e7e8669116101495780633e7e86691461036757806342842e0e146103895780634f6ccce71461039c5780634f8a0f83146103bc57600080fd5b806323b872dd14610301578063263f3e7e146103145780632f745c5914610334578063310ed7f01461035457600080fd5b8063095ea7b3116101b6578063095ea7b3146102a457806309c3dd87146102b95780630f485c02146102d957806318160ddd146102ec57600080fd5b8062cd0110146101e757806301ffc9a71461021a57806306fdde031461024a578063081812fc1461026c575b600080fd5b3480156101f357600080fd5b50610207610202366004612de8565b6105f2565b6040519081526020015b60405180910390f35b34801561022657600080fd5b5061023a610235366004612e20565b6106c8565b6040519015158152602001610211565b34801561025657600080fd5b5061025f6106ed565b6040516102119190612e95565b34801561027857600080fd5b5061028c610287366004612ea8565b61077f565b6040516001600160a01b039091168152602001610211565b6102b76102b2366004612ed8565b6107d1565b005b3480156102c557600080fd5b5061025f6102d4366004612ea8565b610875565b6102076102e7366004612f02565b610967565b3480156102f857600080fd5b50600554610207565b6102b761030f366004612f37565b6109a9565b34801561032057600080fd5b5061020761032f366004612ea8565b6109df565b34801561034057600080fd5b5061020761034f366004612ed8565b610a27565b6102b7610362366004612f63565b610ab5565b34801561037357600080fd5b5060025460405160ff9091168152602001610211565b6102b7610397366004612f37565b610acb565b3480156103a857600080fd5b506102076103b7366004612ea8565b610ae6565b3480156103c857600080fd5b506102076103d7366004612ea8565b610b77565b6102b76103ea366004612f9d565b610bcc565b3480156103fb57600080fd5b5061028c61040a366004612ea8565b610c66565b34801561041b57600080fd5b5061020761042a366004612fec565b610d02565b34801561043b57600080fd5b5060085461028c906001600160a01b031681565b6102b761045d366004612f02565b610d8a565b34801561046e57600080fd5b5061025f610e30565b34801561048357600080fd5b50610207610492366004612ea8565b610e3f565b3480156104a357600080fd5b506102076104b2366004612ea8565b610edc565b3480156104c357600080fd5b506102b76104d2366004613007565b610f24565b6102b76104e53660046130ad565b610f33565b3480156104f657600080fd5b5061025f610505366004612ea8565b610f65565b34801561051657600080fd5b50610207610525366004613158565b611004565b34801561053657600080fd5b5061023a610545366004613184565b6001600160a01b039283166000908152600c60209081526040808320948352938152838220929094168152925290205460ff1690565b34801561058757600080fd5b5061025f611038565b34801561059c57600080fd5b5061023a6105ab3660046131c0565b6001600160a01b0391821660009081526007602090815260408083209390941682526002909201909152205460ff1690565b3480156105e957600080fd5b50600a54610207565b60006105fd83610b77565b821061066e5760405162461bcd60e51b815260206004820152603560248201527f45524333353235536c6f74456e756d657261626c653a20736c6f7420746f6b656044820152746e20696e646578206f7574206f6620626f756e647360581b60648201526084015b60405180910390fd5b6000838152600b6020526040902054600a80549091908110610692576106926131ea565b906000526020600020906002020160010182815481106106b4576106b46131ea565b906000526020600020015490505b92915050565b60006001600160e01b031982166316d117cb60e31b14806106c257506106c282611132565b6060600080546106fc90613200565b80601f016020809104026020016040519081016040528092919081815260200182805461072890613200565b80156107755780601f1061074a57610100808354040283529160200191610775565b820191906000526020600020905b81548152906001019060200180831161075857829003601f168201915b5050505050905090565b600061078a82611157565b6000828152600660205260409020546005805490919081106107ae576107ae6131ea565b60009182526020909120600460069092020101546001600160a01b031692915050565b60006107dc82610c66565b905060006107e9836109df565b9050816001600160a01b0316846001600160a01b03160361081c5760405162461bcd60e51b81526004016106659061323a565b336001600160a01b0383161480610838575061083882336105ab565b806108495750610849828233610545565b6108655760405162461bcd60e51b81526004016106659061327c565b61086f84846111ab565b50505050565b6060600061088e60408051602081019091526000815290565b6008549091506001600160a01b03166108ee5760008151116108bf5760405180602001604052806000815250610960565b806108c984611242565b6040516020016108da9291906132d9565b604051602081830303815290604052610960565b600854604051633601bfc560e11b8152600481018590526001600160a01b0390911690636c037f8a906024015b600060405180830381865afa158015610938573d6000803e3d6000fd5b505050506040513d6000823e601f3d908101601f191682016040526109609190810190613319565b9392505050565b6000610974338584611343565b600061097f856113d3565b9050610996848261098f886109df565b60006113dd565b6109a1858285611522565b949350505050565b6109b33382611823565b6109cf5760405162461bcd60e51b815260040161066590613387565b6109da8383836118ab565b505050565b60006109ea82611157565b600082815260066020526040902054600580549091908110610a0e57610a0e6131ea565b9060005260206000209060060201600101549050919050565b6000610a3283610d02565b8210610a8b5760405162461bcd60e51b815260206004820152602260248201527f455243333532353a206f776e657220696e646578206f7574206f6620626f756e604482015261647360f01b6064820152608401610665565b6001600160a01b03831660009081526007602052604090208054839081106106b4576106b46131ea565b610ac0338483611343565b6109da838383611522565b6109da83838360405180602001604052806000815250610f33565b6000610af160055490565b8210610b4b5760405162461bcd60e51b815260206004820152602360248201527f455243333532353a20676c6f62616c20696e646578206f7574206f6620626f756044820152626e647360e81b6064820152608401610665565b60058281548110610b5e57610b5e6131ea565b9060005260206000209060060201600001549050919050565b6000610b8282611a23565b610b8e57506000919050565b6000828152600b6020526040902054600a80549091908110610bb257610bb26131ea565b600091825260209091206001600290920201015492915050565b336001600160a01b0385161480610be85750610be884336105ab565b610c5a5760405162461bcd60e51b815260206004820152603f60248201527f45524333353235536c6f74417070726f7661626c653a2063616c6c657220697360448201527f206e6f74206f776e6572206e6f7220617070726f76656420666f7220616c6c006064820152608401610665565b61086f84848484611a6f565b6000610c7182611157565b600082815260066020526040902054600580549091908110610c9557610c956131ea565b60009182526020909120600360069092020101546001600160a01b0316905080610cfd5760405162461bcd60e51b8152602060048201526019602482015278115490cccd4c8d4e881a5b9d985b1a59081d1bdad95b881251603a1b6044820152606401610665565b919050565b60006001600160a01b038216610d6e5760405162461bcd60e51b815260206004820152602b60248201527f455243333532353a2062616c616e636520717565727920666f7220746865207a60448201526a65726f206164647265737360a81b6064820152608401610665565b506001600160a01b031660009081526007602052604090205490565b6000610d9584610c66565b90506000610da2856109df565b9050816001600160a01b0316846001600160a01b031603610dd55760405162461bcd60e51b81526004016106659061323a565b336001600160a01b0383161480610df15750610df182336105ab565b80610e025750610e02828233610545565b610e1e5760405162461bcd60e51b81526004016106659061327c565b610e29858585611b59565b5050505050565b6060600180546106fc90613200565b6000610e4a600a5490565b8210610eb05760405162461bcd60e51b815260206004820152602f60248201527f45524333353235536c6f74456e756d657261626c653a20736c6f7420696e646560448201526e78206f7574206f6620626f756e647360881b6064820152608401610665565b600a8281548110610ec357610ec36131ea565b9060005260206000209060020201600001549050919050565b6000610ee782611157565b600082815260066020526040902054600580549091908110610f0b57610f0b6131ea565b9060005260206000209060060201600201549050919050565b610f2f338383611c91565b5050565b610f3d3383611823565b610f595760405162461bcd60e51b815260040161066590613387565b61086f84848484611d5b565b6060610f7082611157565b6000610f8760408051602081019091526000815290565b6008549091506001600160a01b0316610fd3576000815111610fb85760405180602001604052806000815250610960565b80610fc284611242565b6040516020016108da9291906133d9565b6008546040516344a5a61760e11b8152600481018590526001600160a01b039091169063894b4c2e9060240161091b565b600061100f83611157565b5060009182526004602090815260408084206001600160a01b0393909316845291905290205490565b6060600061105160408051602081019091526000815290565b6008549091506001600160a01b03166110b1576000815111611082576040518060200160405280600081525061112c565b8061108c30611dce565b60405160200161109d929190613408565b60405160208183030381529060405261112c565b600860009054906101000a90046001600160a01b03166001600160a01b031663725fa09c6040518163ffffffff1660e01b8152600401600060405180830381865afa158015611104573d6000803e3d6000fd5b505050506040513d6000823e601f3d908101601f1916820160405261112c9190810190613319565b91505090565b60006001600160e01b03198216631dba0dcf60e11b14806106c257506106c282611de4565b61116081611e86565b6111a85760405162461bcd60e51b8152602060048201526019602482015278115490cccd4c8d4e881a5b9d985b1a59081d1bdad95b881251603a1b6044820152606401610665565b50565b6000818152600660205260409020546005805484929081106111cf576111cf6131ea565b6000918252602090912060069091020160040180546001600160a01b0319166001600160a01b039283161790558190831661120982610c66565b6001600160a01b03167f8c5be1e5ebec7d5bd14f71427d1e84f3dd0314c0f7b2291e5b200ac8c7c3b92560405160405180910390a45050565b6060816000036112695750506040805180820190915260018152600360fc1b602082015290565b8160005b8115611293578061127d81613462565b915061128c9050600a83613491565b915061126d565b60008167ffffffffffffffff8111156112ae576112ae61303e565b6040519080825280601f01601f1916602001820160405280156112d8576020820181803683370190505b5090505b84156109a1576112ed6001836134a5565b91506112fa600a866134bc565b6113059060306134d0565b60f81b81838151811061131a5761131a6131ea565b60200101906001600160f81b031916908160001a90535061133c600a86613491565b94506112dc565b600061134f8385611004565b905061135b8484611823565b15801561136a57506000198114155b1561086f57818110156113bf5760405162461bcd60e51b815260206004820152601f60248201527f455243333532353a20696e73756666696369656e7420616c6c6f77616e6365006044820152606401610665565b61086f83856113ce85856134a5565b611b59565b60006106c2611ed2565b6001600160a01b03841661143d5760405162461bcd60e51b815260206004820152602160248201527f455243333532353a206d696e7420746f20746865207a65726f206164647265736044820152607360f81b6064820152608401610665565b826000036114975760405162461bcd60e51b815260206004820152602160248201527f455243333532353a2063616e6e6f74206d696e74207a65726f20746f6b656e496044820152601960fa1b6064820152608401610665565b6114a083611e86565b156114ed5760405162461bcd60e51b815260206004820152601d60248201527f455243333532353a20746f6b656e20616c7265616479206d696e7465640000006044820152606401610665565b6114fd6000856000868686611ee9565b611508848484611f26565b6115128382611fec565b61086f6000856000868686612071565b61152b83611e86565b6115875760405162461bcd60e51b815260206004820152602760248201527f455243333532353a207472616e736665722066726f6d20696e76616c696420746044820152661bdad95b88125160ca1b6064820152608401610665565b61159082611e86565b6115ea5760405162461bcd60e51b815260206004820152602560248201527f455243333532353a207472616e7366657220746f20696e76616c696420746f6b604482015264195b88125160da1b6064820152608401610665565b60008381526006602052604081205460058054909190811061160e5761160e6131ea565b9060005260206000209060060201905060006005600660008681526020019081526020016000205481548110611646576116466131ea565b9060005260206000209060060201905082826002015410156116bd5760405162461bcd60e51b815260206004820152602a60248201527f455243333532353a20696e73756666696369656e742062616c616e636520666f60448201526939103a3930b739b332b960b11b6064820152608401610665565b806001015482600101541461172b5760405162461bcd60e51b815260206004820152602e60248201527f455243333532353a207472616e7366657220746f20746f6b656e20776974682060448201526d191a5999995c995b9d081cdb1bdd60921b6064820152608401610665565b600380830154908201546001840154611756926001600160a01b039081169216908890889088611ee9565b8282600201600082825461176a91906134a5565b925050819055508281600201600082825461178591906134d0565b9091555050604051838152849086907f0b2aac84f3ec956911fd78eae5311062972ff949f38412e8da39069d9f068cc69060200160405180910390a36003808301549082015460018401546117ec926001600160a01b039081169216908890889088612071565b611807858585604051806020016040528060008152506120e2565b610e295760405162461bcd60e51b8152600401610665906134e8565b600061182e82611157565b600061183983610c66565b90506000611846846109df565b9050816001600160a01b0316856001600160a01b031614806118815750846001600160a01b03166118768561077f565b6001600160a01b0316145b80611891575061189182866105ab565b806118a257506118a2828287610545565b95945050505050565b826001600160a01b03166118be82610c66565b6001600160a01b0316146119205760405162461bcd60e51b8152602060048201526024808201527f455243333532353a207472616e736665722066726f6d20696e76616c6964206f6044820152633bb732b960e11b6064820152608401610665565b6001600160a01b0382166119845760405162461bcd60e51b815260206004820152602560248201527f455243333532353a207472616e7366657220746f20746865207a65726f206164604482015264647265737360d81b6064820152608401610665565b600061198f826109df565b9050600061199c83610edc565b90506119ac858585868686611ee9565b6119b76000846111ab565b6119c083612266565b6119ca8584612302565b6119d48484612423565b82846001600160a01b0316866001600160a01b03167fddf252ad1be2c89b69c2b068fc378daa952ba7f163c4a11628f55a4df523b3ef60405160405180910390a4610e29858585868686612071565b600a54600090158015906106c257506000828152600b6020526040902054600a80548492908110611a5657611a566131ea565b9060005260206000209060020201600001541492915050565b816001600160a01b0316846001600160a01b031603611ae05760405162461bcd60e51b815260206004820152602760248201527f45524333353235536c6f74417070726f7661626c653a20617070726f76652074604482015266379037bbb732b960c91b6064820152608401610665565b6001600160a01b038481166000818152600c60209081526040808320888452825280832094871680845294825291829020805460ff191686151590811790915591519182528692917f7bdf71e6625aa496095bf08b60c677cf81c963f402cf258981e3bd7507d3480c910160405180910390a450505050565b6001600160a01b038216611bc25760405162461bcd60e51b815260206004820152602a60248201527f455243333532353a20617070726f76652076616c756520746f20746865207a65604482015269726f206164647265737360b01b6064820152608401610665565b611bcc82846124ac565b611c3257600083815260066020526040902054600580549091908110611bf457611bf46131ea565b60009182526020808320600692909202909101600501805460018101825590835291200180546001600160a01b0319166001600160a01b0384161790555b60008381526004602090815260408083206001600160a01b038616808552908352928190208490555183815285917f621b050de0ad08b51d19b48b3e6df75348c4de6bdd93e81b252ca62e28265b1b91015b60405180910390a3505050565b816001600160a01b0316836001600160a01b031603611cf25760405162461bcd60e51b815260206004820152601a60248201527f455243333532353a20617070726f766520746f2063616c6c65720000000000006044820152606401610665565b6001600160a01b0383811660008181526007602090815260408083209487168084526002909501825291829020805460ff191686151590811790915591519182527f17307eab39ab6107e8899845ad3d59bd9653f200f220920489ca2b5937696c319101611c84565b611d668484846118ab565b611d728484848461257f565b61086f5760405162461bcd60e51b815260206004820152602760248201527f455243333532353a207472616e7366657220746f206e6f6e204552433732315260448201526632b1b2b4bb32b960c91b6064820152608401610665565b60606106c26001600160a01b038316601461272c565b60006001600160e01b031982166301ffc9a760e01b1480611e1557506001600160e01b03198216630354d60560e61b145b80611e3057506001600160e01b031982166380ac58cd60e01b145b80611e4b57506001600160e01b031982166370b0048160e11b145b80611e6657506001600160e01b0319821663780e9d6360e01b145b806106c257506001600160e01b03198216635b5e139f60e01b1492915050565b600554600090158015906106c25750600082815260066020526040902054600580548492908110611eb957611eb96131ea565b9060005260206000209060060201600001541492915050565b6000611ee2600380546001019055565b5060035490565b6001600160a01b038616158015611efe575083155b8015611f105750611f0e82611a23565b155b15611f1e57611f1e826128c8565b505050505050565b6040805160c081018252838152602080820184905260008284018190526001600160a01b038716606084015260808301819052835181815291820190935260a08201529050611f748161298f565b611f7e8484612423565b60405183906001600160a01b038616906000907fddf252ad1be2c89b69c2b068fc378daa952ba7f163c4a11628f55a4df523b3ef908290a4816000847fe4f48c240d3b994948aa54f3e2f5fca59263dfe1d52b6e4cf39a5d249b5ccb6560405160405180910390a450505050565b600082815260066020526040902054600580548392908110612010576120106131ea565b9060005260206000209060060201600201600082825461203091906134d0565b909155505060405181815282906000907f0b2aac84f3ec956911fd78eae5311062972ff949f38412e8da39069d9f068cc69060200160405180910390a35050565b6001600160a01b038616158015612086575083155b801561209957506120978284612ade565b155b156120ad576120a88284612b69565b611f1e565b6001600160a01b0385161580156120c2575082155b80156120d357506120d38285612ade565b156120a8576120a88285612bca565b6000806120ee85610c66565b90506001600160a01b0381163b1515801561217257506040516301ffc9a760e01b8152629ce20b60e01b60048201526001600160a01b038216906301ffc9a790602401602060405180830381865afa15801561214e573d6000803e3d6000fd5b505050506040513d601f19601f820116820180604052508101906121729190613530565b1561225c57604051629ce20b60e01b81526001600160a01b03821690629ce20b906121a99033908a908a908a908a9060040161354d565b6020604051808303816000875af19250505080156121e4575060408051601f3d908101601f191682019092526121e19181019061358b565b60015b612241573d808015612212576040519150601f19603f3d011682016040523d82523d6000602084013e612217565b606091505b5080516000036122395760405162461bcd60e51b8152600401610665906134e8565b805181602001fd5b6001600160e01b031916629ce20b60e01b1491506109a19050565b60019150506109a1565b60008181526006602052604081205460058054909190811061228a5761228a6131ea565b600091825260208220600560069092020190810154909250905b8181101561086f5760008360050182815481106122c3576122c36131ea565b60009182526020808320909101548783526004825260408084206001600160a01b039092168452915281205550806122fa81613462565b9150506122a4565b600081815260066020526040812054600580549091908110612326576123266131ea565b6000918252602080832060069290920290910160030180546001600160a01b0319166001600160a01b0394851617905591841681526007909152604081208054909190612375906001906134a5565b9050600082600001828154811061238e5761238e6131ea565b906000526020600020015490506000836001016000868152602001908152602001600020549050818460000182815481106123cb576123cb6131ea565b60009182526020808320909101929092558381526001860190915260408082208390558682528120558354849080612405576124056135a8565b60019003818190600052602060002001600090559055505050505050565b600081815260066020526040902054600580548492908110612447576124476131ea565b6000918252602080832060069290920290910160030180546001600160a01b0319166001600160a01b03948516179055939091168152600780845260408083208054858552600182810188529285208190559286529082018155825292902090910155565b6000818152600660205260408120546005805483929081106124d0576124d06131ea565b6000918252602082206005600690920201015491505b8181101561257457600084815260066020526040902054600580546001600160a01b0388169290811061251b5761251b6131ea565b9060005260206000209060060201600501828154811061253d5761253d6131ea565b6000918252602090912001546001600160a01b031603612562576001925050506106c2565b8061256c81613462565b9150506124e6565b506000949350505050565b60006001600160a01b0384163b1515801561260457506040516301ffc9a760e01b8152630a85bd0160e11b60048201526001600160a01b038516906301ffc9a790602401602060405180830381865afa1580156125e0573d6000803e3d6000fd5b505050506040513d601f19601f820116820180604052508101906126049190613530565b1561272457604051630a85bd0160e11b81526001600160a01b0385169063150b7a029061263b9033908990889088906004016135be565b6020604051808303816000875af1925050508015612676575060408051601f3d908101601f191682019092526126739181019061358b565b60015b61270a573d8080156126a4576040519150601f19603f3d011682016040523d82523d6000602084013e6126a9565b606091505b5080516000036122395760405162461bcd60e51b815260206004820152602660248201527f4552433732313a207472616e7366657220746f206e6f6e20455243373231526560448201526531b2b4bb32b960d11b6064820152608401610665565b6001600160e01b031916630a85bd0160e11b1490506109a1565b5060016109a1565b6060600061273b8360026135fb565b6127469060026134d0565b67ffffffffffffffff81111561275e5761275e61303e565b6040519080825280601f01601f191660200182016040528015612788576020820181803683370190505b509050600360fc1b816000815181106127a3576127a36131ea565b60200101906001600160f81b031916908160001a905350600f60fb1b816001815181106127d2576127d26131ea565b60200101906001600160f81b031916908160001a90535060006127f68460026135fb565b6128019060016134d0565b90505b6001811115612879576f181899199a1a9b1b9c1cb0b131b232b360811b85600f1660108110612835576128356131ea565b1a60f81b82828151811061284b5761284b6131ea565b60200101906001600160f81b031916908160001a90535060049490941c936128728161361a565b9050612804565b5083156109605760405162461bcd60e51b815260206004820181905260248201527f537472696e67733a20686578206c656e67746820696e73756666696369656e746044820152606401610665565b6128d181611a23565b156129315760405162461bcd60e51b815260206004820152602a60248201527f45524333353235536c6f74456e756d657261626c653a20736c6f7420616c72656044820152696164792065786973747360b01b6064820152608401610665565b60408051808201825282815281516000808252602082810190945292820152905061295b81612cae565b816000807fe4f48c240d3b994948aa54f3e2f5fca59263dfe1d52b6e4cf39a5d249b5ccb6560405160405180910390a45050565b600580548251600090815260066020818152604080842085905560018501865594909252845192027f036b6384b5eca791c62761152d0c79bb0604c104a5fb6f4eb0703f3154bb3db08101928355818501517f036b6384b5eca791c62761152d0c79bb0604c104a5fb6f4eb0703f3154bb3db1820155928401517f036b6384b5eca791c62761152d0c79bb0604c104a5fb6f4eb0703f3154bb3db284015560608401517f036b6384b5eca791c62761152d0c79bb0604c104a5fb6f4eb0703f3154bb3db3840180546001600160a01b039283166001600160a01b03199182161790915560808601517f036b6384b5eca791c62761152d0c79bb0604c104a5fb6f4eb0703f3154bb3db48601805491909316911617905560a08401518051859461086f937f036b6384b5eca791c62761152d0c79bb0604c104a5fb6f4eb0703f3154bb3db5909101920190612d33565b6000828152600b6020526040812054600a80548392908110612b0257612b026131ea565b90600052602060002090600202019050600081600101805490501180156109a1575060008481526009602090815260408083208684529091529020546001820180548592908110612b5557612b556131ea565b906000526020600020015414949350505050565b6000828152600b6020526040812054600a80549091908110612b8d57612b8d6131ea565b6000918252602080832060016002909302018201805496845260098252604080852087865283528420879055918601825590825290209092015550565b6000828152600b6020526040812054600a80549091908110612bee57612bee6131ea565b600091825260208220600160029092020181810154909350612c1091906134a5565b90506000826001018281548110612c2957612c296131ea565b6000918252602080832090910154878352600982526040808420888552909252912054600185018054929350909183919083908110612c6a57612c6a6131ea565b6000918252602080832091909101929092558781526009825260408082208583529092528181208390558681529081205560018401805480612405576124056135a8565b600a805482516000908152600b602090815260408220839055600183018455929052825160029091027fc65a7bb8d6351c1cf70c95a316cc6a92839c986682d98bc35f958f4883f9d2a88101918255828401518051859461086f937fc65a7bb8d6351c1cf70c95a316cc6a92839c986682d98bc35f958f4883f9d2a901920190612d98565b828054828255906000526020600020908101928215612d88579160200282015b82811115612d8857825182546001600160a01b0319166001600160a01b03909116178255602090920191600190910190612d53565b50612d94929150612dd3565b5090565b828054828255906000526020600020908101928215612d88579160200282015b82811115612d88578251825591602001919060010190612db8565b5b80821115612d945760008155600101612dd4565b60008060408385031215612dfb57600080fd5b50508035926020909101359150565b6001600160e01b0319811681146111a857600080fd5b600060208284031215612e3257600080fd5b813561096081612e0a565b60005b83811015612e58578181015183820152602001612e40565b8381111561086f5750506000910152565b60008151808452612e81816020860160208601612e3d565b601f01601f19169290920160200192915050565b6020815260006109606020830184612e69565b600060208284031215612eba57600080fd5b5035919050565b80356001600160a01b0381168114610cfd57600080fd5b60008060408385031215612eeb57600080fd5b612ef483612ec1565b946020939093013593505050565b600080600060608486031215612f1757600080fd5b83359250612f2760208501612ec1565b9150604084013590509250925092565b600080600060608486031215612f4c57600080fd5b612f5584612ec1565b9250612f2760208501612ec1565b600080600060608486031215612f7857600080fd5b505081359360208301359350604090920135919050565b80151581146111a857600080fd5b60008060008060808587031215612fb357600080fd5b612fbc85612ec1565b935060208501359250612fd160408601612ec1565b91506060850135612fe181612f8f565b939692955090935050565b600060208284031215612ffe57600080fd5b61096082612ec1565b6000806040838503121561301a57600080fd5b61302383612ec1565b9150602083013561303381612f8f565b809150509250929050565b634e487b7160e01b600052604160045260246000fd5b604051601f8201601f1916810167ffffffffffffffff8111828210171561307d5761307d61303e565b604052919050565b600067ffffffffffffffff82111561309f5761309f61303e565b50601f01601f191660200190565b600080600080608085870312156130c357600080fd5b6130cc85612ec1565b93506130da60208601612ec1565b925060408501359150606085013567ffffffffffffffff8111156130fd57600080fd5b8501601f8101871361310e57600080fd5b803561312161311c82613085565b613054565b81815288602083850101111561313657600080fd5b8160208401602083013760006020838301015280935050505092959194509250565b6000806040838503121561316b57600080fd5b8235915061317b60208401612ec1565b90509250929050565b60008060006060848603121561319957600080fd5b6131a284612ec1565b9250602084013591506131b760408501612ec1565b90509250925092565b600080604083850312156131d357600080fd5b6131dc83612ec1565b915061317b60208401612ec1565b634e487b7160e01b600052603260045260246000fd5b600181811c9082168061321457607f821691505b60208210810361323457634e487b7160e01b600052602260045260246000fd5b50919050565b60208082526022908201527f455243333532353a20617070726f76616c20746f2063757272656e74206f776e60408201526132b960f11b606082015260800190565b6020808252603e908201527f455243333532353a20617070726f76652063616c6c6572206973206e6f74206f60408201527f776e6572206e6f7220617070726f76656420666f7220616c6c2f736c6f740000606082015260800190565b600083516132eb818460208801612e3d565b64736c6f742f60d81b908301908152835161330d816005840160208801612e3d565b01600501949350505050565b60006020828403121561332b57600080fd5b815167ffffffffffffffff81111561334257600080fd5b8201601f8101841361335357600080fd5b805161336161311c82613085565b81815285602083850101111561337657600080fd5b6118a2826020830160208601612e3d565b60208082526032908201527f455243333532353a207472616e736665722063616c6c6572206973206e6f74206040820152711bdddb995c881b9bdc88185c1c1c9bdd995960721b606082015260800190565b600083516133eb818460208801612e3d565b8351908301906133ff818360208801612e3d565b01949350505050565b6000835161341a818460208801612e3d565b68636f6e74726163742f60b81b9083019081528351613440816009840160208801612e3d565b01600901949350505050565b634e487b7160e01b600052601160045260246000fd5b6000600182016134745761347461344c565b5060010190565b634e487b7160e01b600052601260045260246000fd5b6000826134a0576134a061347b565b500490565b6000828210156134b7576134b761344c565b500390565b6000826134cb576134cb61347b565b500690565b600082198211156134e3576134e361344c565b500190565b60208082526028908201527f455243333532353a207472616e7366657220746f206e6f6e20455243333532356040820152672932b1b2b4bb32b960c11b606082015260800190565b60006020828403121561354257600080fd5b815161096081612f8f565b60018060a01b038616815284602082015283604082015282606082015260a06080820152600061358060a0830184612e69565b979650505050505050565b60006020828403121561359d57600080fd5b815161096081612e0a565b634e487b7160e01b600052603160045260246000fd5b6001600160a01b03858116825284166020820152604081018390526080606082018190526000906135f190830184612e69565b9695505050505050565b60008160001904831182151516156136155761361561344c565b500290565b6000816136295761362961344c565b50600019019056fea26469706673582212205880f80c77176a176f023a29dbe3cb9d462f64e6f4bab91fcf354f83a2d92ccb64736f6c634300080f0033",
  "linkReferences": {},
  "deployedLinkReferences": {}
}