{
  "_format": "hh-sol-artifact-1",
  "contractName": "ERC3525AllRoundMockUpgradeableWithInit",
  "sourceName": "contracts/mocks/WithInit.sol",
  "abi": [
    {
      "inputs": [
        {
          "internalType": "string",
          "name": "name_",
          "type": "string"
        },
        {
          "internalType": "string",
          "name": "symbol_",
          "type": "string"
        },
        {
          "internalType": "uint8",
          "name": "decimals_",
          "type": "uint8"
        }
      ],
      "stateMutability": "payable",
      "type": "constructor"
    },
    {
      "anonymous": false,
      "inputs": [
        {
          "indexed": true,
          "internalType": "address",
          "name": "_owner",
          "type": "address"
        },
        {
          "indexed": true,
          "internalType": "address",
          "name": "_approved",
          "type": "address"
        },
        {
          "indexed": true,
          "internalType": "uint256",
          "name": "_tokenId",
          "type": "uint256"
        }
      ],
      "name": "Approval",
      "type": "event"
    },
    {
      "anonymous": false,
      "inputs": [
        {
          "indexed": true,
          "internalType": "address",
          "name": "_owner",
          "type": "address"
        },
        {
          "indexed": true,
          "internalType": "address",
          "name": "_operator",
          "type": "address"
        },
        {
          "indexed": false,
          "internalType": "bool",
          "name": "_approved",
          "type": "bool"
        }
      ],
      "name": "ApprovalForAll",
      "type": "event"
    },
    {
      "anonymous": false,
      "inputs": [
        {
          "indexed": true,
          "internalType": "address",
          "name": "_owner",
          "type": "address"
        },
        {
          "indexed": true,
          "internalType": "uint256",
          "name": "_slot",
          "type": "uint256"
        },
        {
          "indexed": true,
          "internalType": "address",
          "name": "_operator",
          "type": "address"
        },
        {
          "indexed": false,
          "internalType": "bool",
          "name": "_approved",
          "type": "bool"
        }
      ],
      "name": "ApprovalForSlot",
      "type": "event"
    },
    {
      "anonymous": false,
      "inputs": [
        {
          "indexed": true,
          "internalType": "uint256",
          "name": "_tokenId",
          "type": "uint256"
        },
        {
          "indexed": true,
          "internalType": "address",
          "name": "_operator",
          "type": "address"
        },
        {
          "indexed": false,
          "internalType": "uint256",
          "name": "_value",
          "type": "uint256"
        }
      ],
      "name": "ApprovalValue",
      "type": "event"
    },
    {
      "anonymous": false,
      "inputs": [
        {
          "indexed": false,
          "internalType": "uint8",
          "name": "version",
          "type": "uint8"
        }
      ],
      "name": "Initialized",
      "type": "event"
    },
    {
      "anonymous": false,
      "inputs": [
        {
          "indexed": true,
          "internalType": "address",
          "name": "metadataDescriptor",
          "type": "address"
        }
      ],
      "name": "SetMetadataDescriptor",
      "type": "event"
    },
    {
      "anonymous": false,
      "inputs": [
        {
          "indexed": true,
          "internalType": "uint256",
          "name": "_tokenId",
          "type": "uint256"
        },
        {
          "indexed": true,
          "internalType": "uint256",
          "name": "_oldSlot",
          "type": "uint256"
        },
        {
          "indexed": true,
          "internalType": "uint256",
          "name": "_newSlot",
          "type": "uint256"
        }
      ],
      "name": "SlotChanged",
      "type": "event"
    },
    {
      "anonymous": false,
      "inputs": [
        {
          "indexed": true,
          "internalType": "address",
          "name": "_from",
          "type": "address"
        },
        {
          "indexed": true,
          "internalType": "address",
          "name": "_to",
          "type": "address"
        },
        {
          "indexed": true,
          "internalType": "uint256",
          "name": "_tokenId",
          "type": "uint256"
        }
      ],
      "name": "Transfer",
      "type": "event"
    },
    {
      "anonymous": false,
      "inputs": [
        {
          "indexed": true,
          "internalType": "uint256",
          "name": "_fromTokenId",
          "type": "uint256"
        },
        {
          "indexed": true,
          "internalType": "uint256",
          "name": "_toTokenId",
          "type": "uint256"
        },
        {
          "indexed": false,
          "internalType": "uint256",
          "name": "_value",
          "type": "uint256"
        }
      ],
      "name": "TransferValue",
      "type": "event"
    },
    {
      "inputs": [
        {
          "internalType": "uint256",
          "name": "tokenId_",
          "type": "uint256"
        },
        {
          "internalType": "address",
          "name": "operator_",
          "type": "address"
        }
      ],
      "name": "allowance",
      "outputs": [
        {
          "internalType": "uint256",
          "name": "",
          "type": "uint256"
        }
      ],
      "stateMutability": "view",
      "type": "function"
    },
    {
      "inputs": [
        {
          "internalType": "address",
          "name": "to_",
          "type": "address"
        },
        {
          "internalType": "uint256",
          "name": "tokenId_",
          "type": "uint256"
        }
      ],
      "name": "approve",
      "outputs": [],
      "stateMutability": "payable",
      "type": "function"
    },
    {
      "inputs": [
        {
          "internalType": "uint256",
          "name": "tokenId_",
          "type": "uint256"
        },
        {
          "internalType": "address",
          "name": "to_",
          "type": "address"
        },
        {
          "internalType": "uint256",
          "name": "value_",
          "type": "uint256"
        }
      ],
      "name": "approve",
      "outputs": [],
      "stateMutability": "payable",
      "type": "function"
    },
    {
      "inputs": [
        {
          "internalType": "address",
          "name": "owner_",
          "type": "address"
        }
      ],
      "name": "balanceOf",
      "outputs": [
        {
          "internalType": "uint256",
          "name": "balance",
          "type": "uint256"
        }
      ],
      "stateMutability": "view",
      "type": "function"
    },
    {
      "inputs": [
        {
          "internalType": "uint256",
          "name": "tokenId_",
          "type": "uint256"
        }
      ],
      "name": "balanceOf",
      "outputs": [
        {
          "internalType": "uint256",
          "name": "",
          "type": "uint256"
        }
      ],
      "stateMutability": "view",
      "type": "function"
    },
    {
      "inputs": [
        {
          "internalType": "uint256",
          "name": "tokenId_",
          "type": "uint256"
        }
      ],
      "name": "burn",
      "outputs": [],
      "stateMutability": "nonpayable",
      "type": "function"
    },
    {
      "inputs": [
        {
          "internalType": "uint256",
          "name": "tokenId_",
          "type": "uint256"
        },
        {
          "internalType": "uint256",
          "name": "burnValue_",
          "type": "uint256"
        }
      ],
      "name": "burnValue",
      "outputs": [],
      "stateMutability": "nonpayable",
      "type": "function"
    },
    {
      "inputs": [],
      "name": "contractURI",
      "outputs": [
        {
          "internalType": "string",
          "name": "",
          "type": "string"
        }
      ],
      "stateMutability": "view",
      "type": "function"
    },
    {
      "inputs": [
        {
          "internalType": "uint256",
          "name": "tokenId_",
          "type": "uint256"
        }
      ],
      "name": "getApproved",
      "outputs": [
        {
          "internalType": "address",
          "name": "",
          "type": "address"
        }
      ],
      "stateMutability": "view",
      "type": "function"
    },
    {
      "inputs": [
        {
          "internalType": "address",
          "name": "owner_",
          "type": "address"
        },
        {
          "internalType": "address",
          "name": "operator_",
          "type": "address"
        }
      ],
      "name": "isApprovedForAll",
      "outputs": [
        {
          "internalType": "bool",
          "name": "",
          "type": "bool"
        }
      ],
      "stateMutability": "view",
      "type": "function"
    },
    {
      "inputs": [
        {
          "internalType": "address",
          "name": "owner_",
          "type": "address"
        },
        {
          "internalType": "uint256",
          "name": "slot_",
          "type": "uint256"
        },
        {
          "internalType": "address",
          "name": "operator_",
          "type": "address"
        }
      ],
      "name": "isApprovedForSlot",
      "outputs": [
        {
          "internalType": "bool",
          "name": "",
          "type": "bool"
        }
      ],
      "stateMutability": "view",
      "type": "function"
    },
    {
      "inputs": [],
      "name": "metadataDescriptor",
      "outputs": [
        {
          "internalType": "contract IERC3525MetadataDescriptorUpgradeable",
          "name": "",
          "type": "address"
        }
      ],
      "stateMutability": "view",
      "type": "function"
    },
    {
      "inputs": [
        {
          "internalType": "address",
          "name": "mintTo_",
          "type": "address"
        },
        {
          "internalType": "uint256",
          "name": "tokenId_",
          "type": "uint256"
        },
        {
          "internalType": "uint256",
          "name": "slot_",
          "type": "uint256"
        },
        {
          "internalType": "uint256",
          "name": "value_",
          "type": "uint256"
        }
      ],
      "name": "mint",
      "outputs": [],
      "stateMutability": "nonpayable",
      "type": "function"
    },
    {
      "inputs": [
        {
          "internalType": "uint256",
          "name": "tokenId_",
          "type": "uint256"
        },
        {
          "internalType": "uint256",
          "name": "value_",
          "type": "uint256"
        }
      ],
      "name": "mintValue",
      "outputs": [],
      "stateMutability": "nonpayable",
      "type": "function"
    },
    {
      "inputs": [],
      "name": "name",
      "outputs": [
        {
          "internalType": "string",
          "name": "",
          "type": "string"
        }
      ],
      "stateMutability": "view",
      "type": "function"
    },
    {
      "inputs": [
        {
          "internalType": "uint256",
          "name": "tokenId_",
          "type": "uint256"
        }
      ],
      "name": "ownerOf",
      "outputs": [
        {
          "internalType": "address",
          "name": "owner_",
          "type": "address"
        }
      ],
      "stateMutability": "view",
      "type": "function"
    },
    {
      "inputs": [
        {
          "internalType": "address",
          "name": "from_",
          "type": "address"
        },
        {
          "internalType": "address",
          "name": "to_",
          "type": "address"
        },
        {
          "internalType": "uint256",
          "name": "tokenId_",
          "type": "uint256"
        }
      ],
      "name": "safeTransferFrom",
      "outputs": [],
      "stateMutability": "payable",
      "type": "function"
    },
    {
      "inputs": [
        {
          "internalType": "address",
          "name": "from_",
          "type": "address"
        },
        {
          "internalType": "address",
          "name": "to_",
          "type": "address"
        },
        {
          "internalType": "uint256",
          "name": "tokenId_",
          "type": "uint256"
        },
        {
          "internalType": "bytes",
          "name": "data_",
          "type": "bytes"
        }
      ],
      "name": "safeTransferFrom",
      "outputs": [],
      "stateMutability": "payable",
      "type": "function"
    },
    {
      "inputs": [
        {
          "internalType": "address",
          "name": "operator_",
          "type": "address"
        },
        {
          "internalType": "bool",
          "name": "approved_",
          "type": "bool"
        }
      ],
      "name": "setApprovalForAll",
      "outputs": [],
      "stateMutability": "nonpayable",
      "type": "function"
    },
    {
      "inputs": [
        {
          "internalType": "address",
          "name": "owner_",
          "type": "address"
        },
        {
          "internalType": "uint256",
          "name": "slot_",
          "type": "uint256"
        },
        {
          "internalType": "address",
          "name": "operator_",
          "type": "address"
        },
        {
          "internalType": "bool",
          "name": "approved_",
          "type": "bool"
        }
      ],
      "name": "setApprovalForSlot",
      "outputs": [],
      "stateMutability": "payable",
      "type": "function"
    },
    {
      "inputs": [
        {
          "internalType": "uint256",
          "name": "index_",
          "type": "uint256"
        }
      ],
      "name": "slotByIndex",
      "outputs": [
        {
          "internalType": "uint256",
          "name": "",
          "type": "uint256"
        }
      ],
      "stateMutability": "view",
      "type": "function"
    },
    {
      "inputs": [],
      "name": "slotCount",
      "outputs": [
        {
          "internalType": "uint256",
          "name": "",
          "type": "uint256"
        }
      ],
      "stateMutability": "view",
      "type": "function"
    },
    {
      "inputs": [
        {
          "internalType": "uint256",
          "name": "tokenId_",
          "type": "uint256"
        }
      ],
      "name": "slotOf",
      "outputs": [
        {
          "internalType": "uint256",
          "name": "",
          "type": "uint256"
        }
      ],
      "stateMutability": "view",
      "type": "function"
    },
    {
      "inputs": [
        {
          "internalType": "uint256",
          "name": "slot_",
          "type": "uint256"
        }
      ],
      "name": "slotURI",
      "outputs": [
        {
          "internalType": "string",
          "name": "",
          "type": "string"
        }
      ],
      "stateMutability": "view",
      "type": "function"
    },
    {
      "inputs": [
        {
          "internalType": "bytes4",
          "name": "interfaceId",
          "type": "bytes4"
        }
      ],
      "name": "supportsInterface",
      "outputs": [
        {
          "internalType": "bool",
          "name": "",
          "type": "bool"
        }
      ],
      "stateMutability": "view",
      "type": "function"
    },
    {
      "inputs": [],
      "name": "symbol",
      "outputs": [
        {
          "internalType": "string",
          "name": "",
          "type": "string"
        }
      ],
      "stateMutability": "view",
      "type": "function"
    },
    {
      "inputs": [
        {
          "internalType": "uint256",
          "name": "index_",
          "type": "uint256"
        }
      ],
      "name": "tokenByIndex",
      "outputs": [
        {
          "internalType": "uint256",
          "name": "",
          "type": "uint256"
        }
      ],
      "stateMutability": "view",
      "type": "function"
    },
    {
      "inputs": [
        {
          "internalType": "uint256",
          "name": "slot_",
          "type": "uint256"
        },
        {
          "internalType": "uint256",
          "name": "index_",
          "type": "uint256"
        }
      ],
      "name": "tokenInSlotByIndex",
      "outputs": [
        {
          "internalType": "uint256",
          "name": "",
          "type": "uint256"
        }
      ],
      "stateMutability": "view",
      "type": "function"
    },
    {
      "inputs": [
        {
          "internalType": "address",
          "name": "owner_",
          "type": "address"
        },
        {
          "internalType": "uint256",
          "name": "index_",
          "type": "uint256"
        }
      ],
      "name": "tokenOfOwnerByIndex",
      "outputs": [
        {
          "internalType": "uint256",
          "name": "",
          "type": "uint256"
        }
      ],
      "stateMutability": "view",
      "type": "function"
    },
    {
      "inputs": [
        {
          "internalType": "uint256",
          "name": "slot_",
          "type": "uint256"
        }
      ],
      "name": "tokenSupplyInSlot",
      "outputs": [
        {
          "internalType": "uint256",
          "name": "",
          "type": "uint256"
        }
      ],
      "stateMutability": "view",
      "type": "function"
    },
    {
      "inputs": [
        {
          "internalType": "uint256",
          "name": "tokenId_",
          "type": "uint256"
        }
      ],
      "name": "tokenURI",
      "outputs": [
        {
          "internalType": "string",
          "name": "",
          "type": "string"
        }
      ],
      "stateMutability": "view",
      "type": "function"
    },
    {
      "inputs": [],
      "name": "totalSupply",
      "outputs": [
        {
          "internalType": "uint256",
          "name": "",
          "type": "uint256"
        }
      ],
      "stateMutability": "view",
      "type": "function"
    },
    {
      "inputs": [
        {
          "internalType": "uint256",
          "name": "fromTokenId_",
          "type": "uint256"
        },
        {
          "internalType": "address",
          "name": "to_",
          "type": "address"
        },
        {
          "internalType": "uint256",
          "name": "value_",
          "type": "uint256"
        }
      ],
      "name": "transferFrom",
      "outputs": [
        {
          "internalType": "uint256",
          "name": "",
          "type": "uint256"
        }
      ],
      "stateMutability": "payable",
      "type": "function"
    },
    {
      "inputs": [
        {
          "internalType": "address",
          "name": "from_",
          "type": "address"
        },
        {
          "internalType": "address",
          "name": "to_",
          "type": "address"
        },
        {
          "internalType": "uint256",
          "name": "tokenId_",
          "type": "uint256"
        }
      ],
      "name": "transferFrom",
      "outputs": [],
      "stateMutability": "payable",
      "type": "function"
    },
    {
      "inputs": [
        {
          "internalType": "uint256",
          "name": "fromTokenId_",
          "type": "uint256"
        },
        {
          "internalType": "uint256",
          "name": "toTokenId_",
          "type": "uint256"
        },
        {
          "internalType": "uint256",
          "name": "value_",
          "type": "uint256"
        }
      ],
      "name": "transferFrom",
      "outputs": [],
      "stateMutability": "payable",
      "type": "function"
    },
    {
      "inputs": [],
      "name": "valueDecimals",
      "outputs": [
        {
          "internalType": "uint8",
          "name": "",
          "type": "uint8"
        }
      ],
      "stateMutability": "view",
      "type": "function"
    }
  ],
  "bytecode": "0x60806040526040516200429b3803806200429b8339810160408190526200002691620003b4565b600054610100900460ff1615808015620000475750600054600160ff909116105b8062000077575062000064306200016260201b620012561760201c565b15801562000077575060005460ff166001145b620000e05760405162461bcd60e51b815260206004820152602e60248201527f496e697469616c697a61626c653a20636f6e747261637420697320616c72656160448201526d191e481a5b9a5d1a585b1a5e995960921b60648201526084015b60405180910390fd5b6000805460ff19166001179055801562000104576000805461ff0019166101001790555b6200011184848462000171565b801562000158576000805461ff0019169055604051600181527f7f26b83ff96e1f2b6a682f133852f6798a09c465da95921460cefb38474024989060200160405180910390a15b5050505062000593565b6001600160a01b03163b151590565b600054610100900460ff16620001cd5760405162461bcd60e51b815260206004820152602b60248201526000805160206200427b83398151915260448201526a6e697469616c697a696e6760a81b6064820152608401620000d7565b620001da838383620001f9565b620001e78383836200028b565b620001f48383836200028b565b505050565b600054610100900460ff16620002555760405162461bcd60e51b815260206004820152602b60248201526000805160206200427b83398151915260448201526a6e697469616c697a696e6760a81b6064820152608401620000d7565b6033620002638482620004c7565b506034620002728382620004c7565b506035805460ff191660ff929092169190911790555050565b600054610100900460ff16620001f45760405162461bcd60e51b815260206004820152602b60248201526000805160206200427b83398151915260448201526a6e697469616c697a696e6760a81b6064820152608401620000d7565b634e487b7160e01b600052604160045260246000fd5b600082601f8301126200030f57600080fd5b81516001600160401b03808211156200032c576200032c620002e7565b604051601f8301601f19908116603f01168101908282118183101715620003575762000357620002e7565b816040528381526020925086838588010111156200037457600080fd5b600091505b8382101562000398578582018301518183018401529082019062000379565b83821115620003aa5760008385830101525b9695505050505050565b600080600060608486031215620003ca57600080fd5b83516001600160401b0380821115620003e257600080fd5b620003f087838801620002fd565b945060208601519150808211156200040757600080fd5b506200041686828701620002fd565b925050604084015160ff811681146200042e57600080fd5b809150509250925092565b600181811c908216806200044e57607f821691505b6020821081036200046f57634e487b7160e01b600052602260045260246000fd5b50919050565b601f821115620001f457600081815260208120601f850160051c810160208610156200049e5750805b601f850160051c820191505b81811015620004bf57828155600101620004aa565b505050505050565b81516001600160401b03811115620004e357620004e3620002e7565b620004fb81620004f4845462000439565b8462000475565b602080601f8311600181146200053357600084156200051a5750858301515b600019600386901b1c1916600185901b178555620004bf565b600085815260208120601f198616915b82811015620005645788860151825594840194600190910190840162000543565b5085821015620005835787850151600019600388901b60f8161c191681555b5050505050600190811b01905550565b613cd880620005a36000396000f3fe60806040526004361061020e5760003560e01c80636352211e11610118578063a647e8ec116100a0578063e345f05e1161006f578063e345f05e146105b6578063e8a3d48514610607578063e985e9c51461061c578063ed08fa8014610669578063f0e88e7f1461067e57600080fd5b8063a647e8ec14610543578063b88d4fde14610563578063c87b56dd14610576578063e345e0bc1461059657600080fd5b80638cb0a511116100e75780638cb0a511146104bb57806395d89b41146104ce578063993bef8d146104e35780639cc7f70814610503578063a22cb4651461052357600080fd5b80636352211e1461043b57806370a082311461045b578063840f71131461047b57806387fe86111461049b57600080fd5b8063263f3e7e1161019b57806342842e0e1161016a57806342842e0e146103b557806342966c68146103c85780634f6ccce7146103e85780634f8a0f831461040857806355cd4e061461042857600080fd5b8063263f3e7e146103405780632f745c5914610360578063310ed7f0146103805780633e7e86691461039357600080fd5b8063095ea7b3116101e2578063095ea7b3146102d057806309c3dd87146102e55780630f485c021461030557806318160ddd1461031857806323b872dd1461032d57600080fd5b8062cd01101461021357806301ffc9a71461024657806306fdde0314610276578063081812fc14610298575b600080fd5b34801561021f57600080fd5b5061023361022e3660046133b1565b61069e565b6040519081526020015b60405180910390f35b34801561025257600080fd5b506102666102613660046133e9565b610774565b604051901515815260200161023d565b34801561028257600080fd5b5061028b610799565b60405161023d919061345e565b3480156102a457600080fd5b506102b86102b3366004613471565b61082b565b6040516001600160a01b03909116815260200161023d565b6102e36102de3660046134a1565b61087d565b005b3480156102f157600080fd5b5061028b610300366004613471565b610921565b6102336103133660046134cb565b610a13565b34801561032457600080fd5b50603854610233565b6102e361033b366004613500565b610a55565b34801561034c57600080fd5b5061023361035b366004613471565b610a8c565b34801561036c57600080fd5b5061023361037b3660046134a1565b610ad4565b6102e361038e36600461352c565b610b62565b34801561039f57600080fd5b5060355460405160ff909116815260200161023d565b6102e36103c3366004613500565b610b78565b3480156103d457600080fd5b506102e36103e3366004613471565b610b93565b3480156103f457600080fd5b50610233610403366004613471565b610bc4565b34801561041457600080fd5b50610233610423366004613471565b610c55565b6102e3610436366004613566565b610caa565b34801561044757600080fd5b506102b8610456366004613471565b610d44565b34801561046757600080fd5b506102336104763660046135b5565b610de0565b34801561048757600080fd5b50603b546102b8906001600160a01b031681565b3480156104a757600080fd5b506102e36104b63660046133b1565b610e68565b6102e36104c93660046134cb565b610e9d565b3480156104da57600080fd5b5061028b610f43565b3480156104ef57600080fd5b506102336104fe366004613471565b610f52565b34801561050f57600080fd5b5061023361051e366004613471565b610fef565b34801561052f57600080fd5b506102e361053e3660046135d0565b611037565b34801561054f57600080fd5b506102e361055e366004613607565b611042565b6102e36105713660046136af565b61104e565b34801561058257600080fd5b5061028b610591366004613471565b61107f565b3480156105a257600080fd5b506102336105b136600461375a565b61111e565b3480156105c257600080fd5b506102666105d1366004613786565b6001600160a01b039283166000908152609760209081526040808320948352938152838220929094168152925290205460ff1690565b34801561061357600080fd5b5061028b611152565b34801561062857600080fd5b506102666106373660046137c2565b6001600160a01b039182166000908152603a602090815260408083209390941682526002909201909152205460ff1690565b34801561067557600080fd5b50606654610233565b34801561068a57600080fd5b506102e36106993660046133b1565b61124c565b60006106a983610c55565b821061071a5760405162461bcd60e51b815260206004820152603560248201527f45524333353235536c6f74456e756d657261626c653a20736c6f7420746f6b656044820152746e20696e646578206f7574206f6620626f756e647360581b60648201526084015b60405180910390fd5b60008381526067602052604090205460668054909190811061073e5761073e6137ec565b90600052602060002090600202016001018281548110610760576107606137ec565b906000526020600020015490505b92915050565b60006001600160e01b031982166316d117cb60e31b148061076e575061076e82611265565b6060603380546107a890613802565b80601f01602080910402602001604051908101604052809291908181526020018280546107d490613802565b80156108215780601f106107f657610100808354040283529160200191610821565b820191906000526020600020905b81548152906001019060200180831161080457829003601f168201915b5050505050905090565b60006108368261128a565b60008281526039602052604090205460388054909190811061085a5761085a6137ec565b60009182526020909120600460069092020101546001600160a01b031692915050565b600061088882610d44565b9050600061089583610a8c565b9050816001600160a01b0316846001600160a01b0316036108c85760405162461bcd60e51b81526004016107119061383c565b336001600160a01b03831614806108e457506108e48233610637565b806108f557506108f58282336105d1565b6109115760405162461bcd60e51b81526004016107119061387e565b61091b84846112db565b50505050565b6060600061093a60408051602081019091526000815290565b603b549091506001600160a01b031661099a57600081511161096b5760405180602001604052806000815250610a0c565b8061097584611372565b6040516020016109869291906138db565b604051602081830303815290604052610a0c565b603b54604051633601bfc560e11b8152600481018590526001600160a01b0390911690636c037f8a906024015b600060405180830381865afa1580156109e4573d6000803e3d6000fd5b505050506040513d6000823e601f3d908101601f19168201604052610a0c919081019061391b565b9392505050565b6000610a20338584611473565b6000610a2b85611503565b9050610a428482610a3b88610a8c565b600061150d565b610a4d858285611652565b949350505050565b610a60335b82611941565b610a7c5760405162461bcd60e51b815260040161071190613989565b610a878383836119c9565b505050565b6000610a978261128a565b600082815260396020526040902054603880549091908110610abb57610abb6137ec565b9060005260206000209060060201600101549050919050565b6000610adf83610de0565b8210610b385760405162461bcd60e51b815260206004820152602260248201527f455243333532353a206f776e657220696e646578206f7574206f6620626f756e604482015261647360f01b6064820152608401610711565b6001600160a01b0383166000908152603a60205260409020805483908110610760576107606137ec565b610b6d338483611473565b610a87838383611652565b610a878383836040518060200160405280600081525061104e565b610b9c33610a5a565b610bb85760405162461bcd60e51b8152600401610711906139db565b610bc181611b41565b50565b6000610bcf60385490565b8210610c295760405162461bcd60e51b815260206004820152602360248201527f455243333532353a20676c6f62616c20696e646578206f7574206f6620626f756044820152626e647360e81b6064820152608401610711565b60388281548110610c3c57610c3c6137ec565b9060005260206000209060060201600001549050919050565b6000610c6082611c6c565b610c6c57506000919050565b600082815260676020526040902054606680549091908110610c9057610c906137ec565b600091825260209091206001600290920201015492915050565b336001600160a01b0385161480610cc65750610cc68433610637565b610d385760405162461bcd60e51b815260206004820152603f60248201527f45524333353235536c6f74417070726f7661626c653a2063616c6c657220697360448201527f206e6f74206f776e6572206e6f7220617070726f76656420666f7220616c6c006064820152608401610711565b61091b84848484611cb8565b6000610d4f8261128a565b600082815260396020526040902054603880549091908110610d7357610d736137ec565b60009182526020909120600360069092020101546001600160a01b0316905080610ddb5760405162461bcd60e51b8152602060048201526019602482015278115490cccd4c8d4e881a5b9d985b1a59081d1bdad95b881251603a1b6044820152606401610711565b919050565b60006001600160a01b038216610e4c5760405162461bcd60e51b815260206004820152602b60248201527f455243333532353a2062616c616e636520717565727920666f7220746865207a60448201526a65726f206164647265737360a81b6064820152608401610711565b506001600160a01b03166000908152603a602052604090205490565b610e73335b83611941565b610e8f5760405162461bcd60e51b8152600401610711906139db565b610e998282611da2565b5050565b6000610ea884610d44565b90506000610eb585610a8c565b9050816001600160a01b0316846001600160a01b031603610ee85760405162461bcd60e51b81526004016107119061383c565b336001600160a01b0383161480610f045750610f048233610637565b80610f155750610f158282336105d1565b610f315760405162461bcd60e51b81526004016107119061387e565b610f3c858585611ec0565b5050505050565b6060603480546107a890613802565b6000610f5d60665490565b8210610fc35760405162461bcd60e51b815260206004820152602f60248201527f45524333353235536c6f74456e756d657261626c653a20736c6f7420696e646560448201526e78206f7574206f6620626f756e647360881b6064820152608401610711565b60668281548110610fd657610fd66137ec565b9060005260206000209060020201600001549050919050565b6000610ffa8261128a565b60008281526039602052604090205460388054909190811061101e5761101e6137ec565b9060005260206000209060060201600201549050919050565b610e99338383611ff8565b61091b8484848461150d565b61105733610e6d565b6110735760405162461bcd60e51b815260040161071190613989565b61091b848484846120c2565b606061108a8261128a565b60006110a160408051602081019091526000815290565b603b549091506001600160a01b03166110ed5760008151116110d25760405180602001604052806000815250610a0c565b806110dc84611372565b604051602001610986929190613a2a565b603b546040516344a5a61760e11b8152600481018590526001600160a01b039091169063894b4c2e906024016109c7565b60006111298361128a565b5060009182526037602090815260408084206001600160a01b0393909316845291905290205490565b6060600061116b60408051602081019091526000815290565b603b549091506001600160a01b03166111cb57600081511161119c5760405180602001604052806000815250611246565b806111a630612135565b6040516020016111b7929190613a59565b604051602081830303815290604052611246565b603b60009054906101000a90046001600160a01b03166001600160a01b031663725fa09c6040518163ffffffff1660e01b8152600401600060405180830381865afa15801561121e573d6000803e3d6000fd5b505050506040513d6000823e601f3d908101601f19168201604052611246919081019061391b565b91505090565b610e99828261214b565b6001600160a01b03163b151590565b60006001600160e01b03198216631dba0dcf60e11b148061076e575061076e82612198565b6112938161223a565b610bc15760405162461bcd60e51b8152602060048201526019602482015278115490cccd4c8d4e881a5b9d985b1a59081d1bdad95b881251603a1b6044820152606401610711565b6000818152603960205260409020546038805484929081106112ff576112ff6137ec565b6000918252602090912060069091020160040180546001600160a01b0319166001600160a01b039283161790558190831661133982610d44565b6001600160a01b03167f8c5be1e5ebec7d5bd14f71427d1e84f3dd0314c0f7b2291e5b200ac8c7c3b92560405160405180910390a45050565b6060816000036113995750506040805180820190915260018152600360fc1b602082015290565b8160005b81156113c357806113ad81613ab3565b91506113bc9050600a83613ae2565b915061139d565b60008167ffffffffffffffff8111156113de576113de613640565b6040519080825280601f01601f191660200182016040528015611408576020820181803683370190505b5090505b8415610a4d5761141d600183613af6565b915061142a600a86613b0d565b611435906030613b21565b60f81b81838151811061144a5761144a6137ec565b60200101906001600160f81b031916908160001a90535061146c600a86613ae2565b945061140c565b600061147f838561111e565b905061148b8484611941565b15801561149a57506000198114155b1561091b57818110156114ef5760405162461bcd60e51b815260206004820152601f60248201527f455243333532353a20696e73756666696369656e7420616c6c6f77616e6365006044820152606401610711565b61091b83856114fe8585613af6565b611ec0565b600061076e612286565b6001600160a01b03841661156d5760405162461bcd60e51b815260206004820152602160248201527f455243333532353a206d696e7420746f20746865207a65726f206164647265736044820152607360f81b6064820152608401610711565b826000036115c75760405162461bcd60e51b815260206004820152602160248201527f455243333532353a2063616e6e6f74206d696e74207a65726f20746f6b656e496044820152601960fa1b6064820152608401610711565b6115d08361223a565b1561161d5760405162461bcd60e51b815260206004820152601d60248201527f455243333532353a20746f6b656e20616c7265616479206d696e7465640000006044820152606401610711565b61162d600085600086868661229d565b6116388484846122d2565b6116428382612398565b61091b600085600086868661240b565b61165b8361223a565b6116b75760405162461bcd60e51b815260206004820152602760248201527f455243333532353a207472616e736665722066726f6d20696e76616c696420746044820152661bdad95b88125160ca1b6064820152608401610711565b6116c08261223a565b61171a5760405162461bcd60e51b815260206004820152602560248201527f455243333532353a207472616e7366657220746f20696e76616c696420746f6b604482015264195b88125160da1b6064820152608401610711565b60008381526039602052604081205460388054909190811061173e5761173e6137ec565b9060005260206000209060060201905060006038603960008681526020019081526020016000205481548110611776576117766137ec565b9060005260206000209060060201905082826002015410156117ed5760405162461bcd60e51b815260206004820152602a60248201527f455243333532353a20696e73756666696369656e742062616c616e636520666f60448201526939103a3930b739b332b960b11b6064820152608401610711565b806001015482600101541461185b5760405162461bcd60e51b815260206004820152602e60248201527f455243333532353a207472616e7366657220746f20746f6b656e20776974682060448201526d191a5999995c995b9d081cdb1bdd60921b6064820152608401610711565b600380830154908201546001840154611886926001600160a01b03908116921690889088908861229d565b8282600201600082825461189a9190613af6565b92505081905550828160020160008282546118b59190613b21565b909155505060405183815284908690600080516020613c838339815191529060200160405180910390a360038083015490820154600184015461190a926001600160a01b03908116921690889088908861240b565b6119258585856040518060200160405280600081525061247c565b610f3c5760405162461bcd60e51b815260040161071190613b39565b600061194c8261128a565b600061195783610d44565b9050600061196484610a8c565b9050816001600160a01b0316856001600160a01b0316148061199f5750846001600160a01b03166119948561082b565b6001600160a01b0316145b806119af57506119af8286610637565b806119c057506119c08282876105d1565b95945050505050565b826001600160a01b03166119dc82610d44565b6001600160a01b031614611a3e5760405162461bcd60e51b8152602060048201526024808201527f455243333532353a207472616e736665722066726f6d20696e76616c6964206f6044820152633bb732b960e11b6064820152608401610711565b6001600160a01b038216611aa25760405162461bcd60e51b815260206004820152602560248201527f455243333532353a207472616e7366657220746f20746865207a65726f206164604482015264647265737360d81b6064820152608401610711565b6000611aad82610a8c565b90506000611aba83610fef565b9050611aca85858586868661229d565b611ad56000846112db565b611ade83612600565b611ae8858461269c565b611af284846127bd565b82846001600160a01b0316866001600160a01b03167fddf252ad1be2c89b69c2b068fc378daa952ba7f163c4a11628f55a4df523b3ef60405160405180910390a4610f3c85858586868661240b565b611b4a8161128a565b600081815260396020526040812054603880549091908110611b6e57611b6e6137ec565b600091825260208220600360069092020190810154600182015460028301549294506001600160a01b0390911692909190611bae9084908781868661229d565b611bb785612600565b611bc1838661269c565b611bca85612846565b600085600080516020613c8383398151915283604051611bec91815260200190565b60405180910390a3600082867fe4f48c240d3b994948aa54f3e2f5fca59263dfe1d52b6e4cf39a5d249b5ccb6560405160405180910390a460405185906000906001600160a01b038616907fddf252ad1be2c89b69c2b068fc378daa952ba7f163c4a11628f55a4df523b3ef908390a4610f3c836000876000868661240b565b6066546000901580159061076e5750600082815260676020526040902054606680548492908110611c9f57611c9f6137ec565b9060005260206000209060020201600001541492915050565b816001600160a01b0316846001600160a01b031603611d295760405162461bcd60e51b815260206004820152602760248201527f45524333353235536c6f74417070726f7661626c653a20617070726f76652074604482015266379037bbb732b960c91b6064820152608401610711565b6001600160a01b038481166000818152609760209081526040808320888452825280832094871680845294825291829020805460ff191686151590811790915591519182528692917f7bdf71e6625aa496095bf08b60c677cf81c963f402cf258981e3bd7507d3480c910160405180910390a450505050565b611dab8261128a565b600082815260396020526040812054603880549091908110611dcf57611dcf6137ec565b600091825260209091206006909102016003810154600182015460028301549293506001600160a01b039091169184811015611e595760405162461bcd60e51b815260206004820152602360248201527f455243333532353a206275726e2076616c756520657863656564732062616c616044820152626e636560e81b6064820152608401610711565b611e69836000886000868a61229d565b84846002016000828254611e7d9190613af6565b90915550506040518581526000908790600080516020613c838339815191529060200160405180910390a3611eb8836000886000868a61240b565b505050505050565b6001600160a01b038216611f295760405162461bcd60e51b815260206004820152602a60248201527f455243333532353a20617070726f76652076616c756520746f20746865207a65604482015269726f206164647265737360b01b6064820152608401610711565b611f338284612a54565b611f9957600083815260396020526040902054603880549091908110611f5b57611f5b6137ec565b60009182526020808320600692909202909101600501805460018101825590835291200180546001600160a01b0319166001600160a01b0384161790555b60008381526037602090815260408083206001600160a01b038616808552908352928190208490555183815285917f621b050de0ad08b51d19b48b3e6df75348c4de6bdd93e81b252ca62e28265b1b91015b60405180910390a3505050565b816001600160a01b0316836001600160a01b0316036120595760405162461bcd60e51b815260206004820152601a60248201527f455243333532353a20617070726f766520746f2063616c6c65720000000000006044820152606401610711565b6001600160a01b038381166000818152603a602090815260408083209487168084526002909501825291829020805460ff191686151590811790915591519182527f17307eab39ab6107e8899845ad3d59bd9653f200f220920489ca2b5937696c319101611feb565b6120cd8484846119c9565b6120d984848484612b27565b61091b5760405162461bcd60e51b815260206004820152602760248201527f455243333532353a207472616e7366657220746f206e6f6e204552433732315260448201526632b1b2b4bb32b960c91b6064820152608401610711565b606061076e6001600160a01b0383166014612cd4565b6121548261128a565b600061215f83610d44565b9050600061216c84610a8c565b905061217e600083600087858861229d565b6121888484612398565b61091b600083600087858861240b565b60006001600160e01b031982166301ffc9a760e01b14806121c957506001600160e01b03198216630354d60560e61b145b806121e457506001600160e01b031982166380ac58cd60e01b145b806121ff57506001600160e01b031982166370b0048160e11b145b8061221a57506001600160e01b0319821663780e9d6360e01b145b8061076e57506001600160e01b03198216635b5e139f60e01b1492915050565b6038546000901580159061076e575060008281526039602052604090205460388054849290811061226d5761226d6137ec565b9060005260206000209060060201600001541492915050565b6000612296603680546001019055565b5060365490565b6001600160a01b0386161580156122b2575083155b80156122c457506122c282611c6c565b155b15611eb857611eb882612e70565b6040805160c081018252838152602080820184905260008284018190526001600160a01b038716606084015260808301819052835181815291820190935260a0820152905061232081612f37565b61232a84846127bd565b60405183906001600160a01b038616906000907fddf252ad1be2c89b69c2b068fc378daa952ba7f163c4a11628f55a4df523b3ef908290a4816000847fe4f48c240d3b994948aa54f3e2f5fca59263dfe1d52b6e4cf39a5d249b5ccb6560405160405180910390a450505050565b6000828152603960205260409020546038805483929081106123bc576123bc6137ec565b906000526020600020906006020160020160008282546123dc9190613b21565b90915550506040518181528290600090600080516020613c838339815191529060200160405180910390a35050565b6001600160a01b038616158015612420575083155b801561243357506124318284613089565b155b15612447576124428284613114565b611eb8565b6001600160a01b03851615801561245c575082155b801561246d575061246d8285613089565b15612442576124428285613175565b60008061248885610d44565b90506001600160a01b0381163b1515801561250c57506040516301ffc9a760e01b8152629ce20b60e01b60048201526001600160a01b038216906301ffc9a790602401602060405180830381865afa1580156124e8573d6000803e3d6000fd5b505050506040513d601f19601f8201168201806040525081019061250c9190613b81565b156125f657604051629ce20b60e01b81526001600160a01b03821690629ce20b906125439033908a908a908a908a90600401613b9e565b6020604051808303816000875af192505050801561257e575060408051601f3d908101601f1916820190925261257b91810190613bdc565b60015b6125db573d8080156125ac576040519150601f19603f3d011682016040523d82523d6000602084013e6125b1565b606091505b5080516000036125d35760405162461bcd60e51b815260040161071190613b39565b805181602001fd5b6001600160e01b031916629ce20b60e01b149150610a4d9050565b6001915050610a4d565b600081815260396020526040812054603880549091908110612624576126246137ec565b600091825260208220600560069092020190810154909250905b8181101561091b57600083600501828154811061265d5761265d6137ec565b60009182526020808320909101548783526037825260408084206001600160a01b0390921684529152812055508061269481613ab3565b91505061263e565b6000818152603960205260408120546038805490919081106126c0576126c06137ec565b6000918252602080832060069290920290910160030180546001600160a01b0319166001600160a01b039485161790559184168152603a90915260408120805490919061270f90600190613af6565b90506000826000018281548110612728576127286137ec565b90600052602060002001549050600083600101600086815260200190815260200160002054905081846000018281548110612765576127656137ec565b6000918252602080832090910192909255838152600186019091526040808220839055868252812055835484908061279f5761279f613bf9565b60019003818190600052602060002001600090559055505050505050565b6000818152603960205260409020546038805484929081106127e1576127e16137ec565b6000918252602080832060069290920290910160030180546001600160a01b0319166001600160a01b03948516179055939091168152603a80845260408083208054858552600182810188529285208190559286529082018155825292902090910155565b60385460009061285890600190613af6565b60008381526039602052604081205460388054939450909284908110612880576128806137ec565b60009182526020918290206040805160c08101825260069093029091018054835260018101548385015260028101548383015260038101546001600160a01b03908116606085015260048201541660808401526005810180548351818702810187019094528084529394919360a08601939283018282801561292b57602002820191906000526020600020905b81546001600160a01b0316815260019091019060200180831161290d575b5050505050815250509050806038838154811061294a5761294a6137ec565b600091825260209182902083516006909202019081558282015160018201556040830151600282015560608301516003820180546001600160a01b039283166001600160a01b031991821617909155608085015160048401805491909316911617905560a0830151805191926129c8926005850192909101906132de565b505081516000908152603960205260408082208590558682528120555060388054806129f6576129f6613bf9565b60008281526020812060066000199093019283020181815560018101829055600281018290556003810180546001600160a01b0319908116909155600482018054909116905590612a4a6005830182613343565b5050905550505050565b600081815260396020526040812054603880548392908110612a7857612a786137ec565b6000918252602082206005600690920201015491505b81811015612b1c57600084815260396020526040902054603880546001600160a01b03881692908110612ac357612ac36137ec565b90600052602060002090600602016005018281548110612ae557612ae56137ec565b6000918252602090912001546001600160a01b031603612b0a5760019250505061076e565b80612b1481613ab3565b915050612a8e565b506000949350505050565b60006001600160a01b0384163b15158015612bac57506040516301ffc9a760e01b8152630a85bd0160e11b60048201526001600160a01b038516906301ffc9a790602401602060405180830381865afa158015612b88573d6000803e3d6000fd5b505050506040513d601f19601f82011682018060405250810190612bac9190613b81565b15612ccc57604051630a85bd0160e11b81526001600160a01b0385169063150b7a0290612be3903390899088908890600401613c0f565b6020604051808303816000875af1925050508015612c1e575060408051601f3d908101601f19168201909252612c1b91810190613bdc565b60015b612cb2573d808015612c4c576040519150601f19603f3d011682016040523d82523d6000602084013e612c51565b606091505b5080516000036125d35760405162461bcd60e51b815260206004820152602660248201527f4552433732313a207472616e7366657220746f206e6f6e20455243373231526560448201526531b2b4bb32b960d11b6064820152608401610711565b6001600160e01b031916630a85bd0160e11b149050610a4d565b506001610a4d565b60606000612ce3836002613c4c565b612cee906002613b21565b67ffffffffffffffff811115612d0657612d06613640565b6040519080825280601f01601f191660200182016040528015612d30576020820181803683370190505b509050600360fc1b81600081518110612d4b57612d4b6137ec565b60200101906001600160f81b031916908160001a905350600f60fb1b81600181518110612d7a57612d7a6137ec565b60200101906001600160f81b031916908160001a9053506000612d9e846002613c4c565b612da9906001613b21565b90505b6001811115612e21576f181899199a1a9b1b9c1cb0b131b232b360811b85600f1660108110612ddd57612ddd6137ec565b1a60f81b828281518110612df357612df36137ec565b60200101906001600160f81b031916908160001a90535060049490941c93612e1a81613c6b565b9050612dac565b508315610a0c5760405162461bcd60e51b815260206004820181905260248201527f537472696e67733a20686578206c656e67746820696e73756666696369656e746044820152606401610711565b612e7981611c6c565b15612ed95760405162461bcd60e51b815260206004820152602a60248201527f45524333353235536c6f74456e756d657261626c653a20736c6f7420616c72656044820152696164792065786973747360b01b6064820152608401610711565b604080518082018252828152815160008082526020828101909452928201529050612f0381613259565b816000807fe4f48c240d3b994948aa54f3e2f5fca59263dfe1d52b6e4cf39a5d249b5ccb6560405160405180910390a45050565b603880548251600090815260396020908152604080832084905560018401855593909152835160069092027f38395c5dceade9603479b177b68959049485df8aa97b39f3533039af5f4561998101928355818501517f38395c5dceade9603479b177b68959049485df8aa97b39f3533039af5f45619a820155928401517f38395c5dceade9603479b177b68959049485df8aa97b39f3533039af5f45619b84015560608401517f38395c5dceade9603479b177b68959049485df8aa97b39f3533039af5f45619c840180546001600160a01b039283166001600160a01b03199182161790915560808601517f38395c5dceade9603479b177b68959049485df8aa97b39f3533039af5f45619d8601805491909316911617905560a08401518051859461091b937f38395c5dceade9603479b177b68959049485df8aa97b39f3533039af5f45619e9091019201906132de565b6000828152606760205260408120546066805483929081106130ad576130ad6137ec565b9060005260206000209060020201905060008160010180549050118015610a4d575060008481526065602090815260408083208684529091529020546001820180548592908110613100576131006137ec565b906000526020600020015414949350505050565b600082815260676020526040812054606680549091908110613138576131386137ec565b6000918252602080832060016002909302018201805496845260658252604080852087865283528420879055918601825590825290209092015550565b600082815260676020526040812054606680549091908110613199576131996137ec565b6000918252602082206001600290920201818101549093506131bb9190613af6565b905060008260010182815481106131d4576131d46137ec565b6000918252602080832090910154878352606582526040808420888552909252912054600185018054929350909183919083908110613215576132156137ec565b600091825260208083209190910192909255878152606582526040808220858352909252818120839055868152908120556001840180548061279f5761279f613bf9565b60668054825160009081526067602090815260408220839055600183018455929052825160029091027f46501879b8ca8525e8c2fd519e2fbfcfa2ebea26501294aa02cbfcfb12e943548101918255828401518051859461091b937f46501879b8ca8525e8c2fd519e2fbfcfa2ebea26501294aa02cbfcfb12e9435501920190613361565b828054828255906000526020600020908101928215613333579160200282015b8281111561333357825182546001600160a01b0319166001600160a01b039091161782556020909201916001909101906132fe565b5061333f92915061339c565b5090565b5080546000825590600052602060002090810190610bc1919061339c565b828054828255906000526020600020908101928215613333579160200282015b82811115613333578251825591602001919060010190613381565b5b8082111561333f576000815560010161339d565b600080604083850312156133c457600080fd5b50508035926020909101359150565b6001600160e01b031981168114610bc157600080fd5b6000602082840312156133fb57600080fd5b8135610a0c816133d3565b60005b83811015613421578181015183820152602001613409565b8381111561091b5750506000910152565b6000815180845261344a816020860160208601613406565b601f01601f19169290920160200192915050565b602081526000610a0c6020830184613432565b60006020828403121561348357600080fd5b5035919050565b80356001600160a01b0381168114610ddb57600080fd5b600080604083850312156134b457600080fd5b6134bd8361348a565b946020939093013593505050565b6000806000606084860312156134e057600080fd5b833592506134f06020850161348a565b9150604084013590509250925092565b60008060006060848603121561351557600080fd5b61351e8461348a565b92506134f06020850161348a565b60008060006060848603121561354157600080fd5b505081359360208301359350604090920135919050565b8015158114610bc157600080fd5b6000806000806080858703121561357c57600080fd5b6135858561348a565b93506020850135925061359a6040860161348a565b915060608501356135aa81613558565b939692955090935050565b6000602082840312156135c757600080fd5b610a0c8261348a565b600080604083850312156135e357600080fd5b6135ec8361348a565b915060208301356135fc81613558565b809150509250929050565b6000806000806080858703121561361d57600080fd5b6136268561348a565b966020860135965060408601359560600135945092505050565b634e487b7160e01b600052604160045260246000fd5b604051601f8201601f1916810167ffffffffffffffff8111828210171561367f5761367f613640565b604052919050565b600067ffffffffffffffff8211156136a1576136a1613640565b50601f01601f191660200190565b600080600080608085870312156136c557600080fd5b6136ce8561348a565b93506136dc6020860161348a565b925060408501359150606085013567ffffffffffffffff8111156136ff57600080fd5b8501601f8101871361371057600080fd5b803561372361371e82613687565b613656565b81815288602083850101111561373857600080fd5b8160208401602083013760006020838301015280935050505092959194509250565b6000806040838503121561376d57600080fd5b8235915061377d6020840161348a565b90509250929050565b60008060006060848603121561379b57600080fd5b6137a48461348a565b9250602084013591506137b96040850161348a565b90509250925092565b600080604083850312156137d557600080fd5b6137de8361348a565b915061377d6020840161348a565b634e487b7160e01b600052603260045260246000fd5b600181811c9082168061381657607f821691505b60208210810361383657634e487b7160e01b600052602260045260246000fd5b50919050565b60208082526022908201527f455243333532353a20617070726f76616c20746f2063757272656e74206f776e60408201526132b960f11b606082015260800190565b6020808252603e908201527f455243333532353a20617070726f76652063616c6c6572206973206e6f74206f60408201527f776e6572206e6f7220617070726f76656420666f7220616c6c2f736c6f740000606082015260800190565b600083516138ed818460208801613406565b64736c6f742f60d81b908301908152835161390f816005840160208801613406565b01600501949350505050565b60006020828403121561392d57600080fd5b815167ffffffffffffffff81111561394457600080fd5b8201601f8101841361395557600080fd5b805161396361371e82613687565b81815285602083850101111561397857600080fd5b6119c0826020830160208601613406565b60208082526032908201527f455243333532353a207472616e736665722063616c6c6572206973206e6f74206040820152711bdddb995c881b9bdc88185c1c1c9bdd995960721b606082015260800190565b6020808252602f908201527f455243333532353a2063616c6c6572206973206e6f7420746f6b656e206f776e60408201526e195c881b9bdc88185c1c1c9bdd9959608a1b606082015260800190565b60008351613a3c818460208801613406565b835190830190613a50818360208801613406565b01949350505050565b60008351613a6b818460208801613406565b68636f6e74726163742f60b81b9083019081528351613a91816009840160208801613406565b01600901949350505050565b634e487b7160e01b600052601160045260246000fd5b600060018201613ac557613ac5613a9d565b5060010190565b634e487b7160e01b600052601260045260246000fd5b600082613af157613af1613acc565b500490565b600082821015613b0857613b08613a9d565b500390565b600082613b1c57613b1c613acc565b500690565b60008219821115613b3457613b34613a9d565b500190565b60208082526028908201527f455243333532353a207472616e7366657220746f206e6f6e20455243333532356040820152672932b1b2b4bb32b960c11b606082015260800190565b600060208284031215613b9357600080fd5b8151610a0c81613558565b60018060a01b038616815284602082015283604082015282606082015260a060808201526000613bd160a0830184613432565b979650505050505050565b600060208284031215613bee57600080fd5b8151610a0c816133d3565b634e487b7160e01b600052603160045260246000fd5b6001600160a01b0385811682528416602082015260408101839052608060608201819052600090613c4290830184613432565b9695505050505050565b6000816000190483118215151615613c6657613c66613a9d565b500290565b600081613c7a57613c7a613a9d565b50600019019056fe0b2aac84f3ec956911fd78eae5311062972ff949f38412e8da39069d9f068cc6a264697066735822122024f776ffb7824b3d67b419fa7f997a8d5f43b457ddb9b635cbaeefbc93fc7d9664736f6c634300080f0033496e697469616c697a61626c653a20636f6e7472616374206973206e6f742069",
  "linkReferences": {},
  "deployedLinkReferences": {}
}