{
  "_format": "hh-sol-artifact-1",
  "contractName": "ERC3525Upgradeable",
  "sourceName": "contracts/ERC3525Upgradeable.sol",
  "abi": [
    {
      "anonymous": false,
      "inputs": [
        {
          "indexed": true,
          "internalType": "address",
          "name": "_owner",
          "type": "address"
        },
        {
          "indexed": true,
          "internalType": "address",
          "name": "_approved",
          "type": "address"
        },
        {
          "indexed": true,
          "internalType": "uint256",
          "name": "_tokenId",
          "type": "uint256"
        }
      ],
      "name": "Approval",
      "type": "event"
    },
    {
      "anonymous": false,
      "inputs": [
        {
          "indexed": true,
          "internalType": "address",
          "name": "_owner",
          "type": "address"
        },
        {
          "indexed": true,
          "internalType": "address",
          "name": "_operator",
          "type": "address"
        },
        {
          "indexed": false,
          "internalType": "bool",
          "name": "_approved",
          "type": "bool"
        }
      ],
      "name": "ApprovalForAll",
      "type": "event"
    },
    {
      "anonymous": false,
      "inputs": [
        {
          "indexed": true,
          "internalType": "uint256",
          "name": "_tokenId",
          "type": "uint256"
        },
        {
          "indexed": true,
          "internalType": "address",
          "name": "_operator",
          "type": "address"
        },
        {
          "indexed": false,
          "internalType": "uint256",
          "name": "_value",
          "type": "uint256"
        }
      ],
      "name": "ApprovalValue",
      "type": "event"
    },
    {
      "anonymous": false,
      "inputs": [
        {
          "indexed": false,
          "internalType": "uint8",
          "name": "version",
          "type": "uint8"
        }
      ],
      "name": "Initialized",
      "type": "event"
    },
    {
      "anonymous": false,
      "inputs": [
        {
          "indexed": true,
          "internalType": "address",
          "name": "metadataDescriptor",
          "type": "address"
        }
      ],
      "name": "SetMetadataDescriptor",
      "type": "event"
    },
    {
      "anonymous": false,
      "inputs": [
        {
          "indexed": true,
          "internalType": "uint256",
          "name": "_tokenId",
          "type": "uint256"
        },
        {
          "indexed": true,
          "internalType": "uint256",
          "name": "_oldSlot",
          "type": "uint256"
        },
        {
          "indexed": true,
          "internalType": "uint256",
          "name": "_newSlot",
          "type": "uint256"
        }
      ],
      "name": "SlotChanged",
      "type": "event"
    },
    {
      "anonymous": false,
      "inputs": [
        {
          "indexed": true,
          "internalType": "address",
          "name": "_from",
          "type": "address"
        },
        {
          "indexed": true,
          "internalType": "address",
          "name": "_to",
          "type": "address"
        },
        {
          "indexed": true,
          "internalType": "uint256",
          "name": "_tokenId",
          "type": "uint256"
        }
      ],
      "name": "Transfer",
      "type": "event"
    },
    {
      "anonymous": false,
      "inputs": [
        {
          "indexed": true,
          "internalType": "uint256",
          "name": "_fromTokenId",
          "type": "uint256"
        },
        {
          "indexed": true,
          "internalType": "uint256",
          "name": "_toTokenId",
          "type": "uint256"
        },
        {
          "indexed": false,
          "internalType": "uint256",
          "name": "_value",
          "type": "uint256"
        }
      ],
      "name": "TransferValue",
      "type": "event"
    },
    {
      "inputs": [
        {
          "internalType": "uint256",
          "name": "tokenId_",
          "type": "uint256"
        },
        {
          "internalType": "address",
          "name": "operator_",
          "type": "address"
        }
      ],
      "name": "allowance",
      "outputs": [
        {
          "internalType": "uint256",
          "name": "",
          "type": "uint256"
        }
      ],
      "stateMutability": "view",
      "type": "function"
    },
    {
      "inputs": [
        {
          "internalType": "address",
          "name": "to_",
          "type": "address"
        },
        {
          "internalType": "uint256",
          "name": "tokenId_",
          "type": "uint256"
        }
      ],
      "name": "approve",
      "outputs": [],
      "stateMutability": "payable",
      "type": "function"
    },
    {
      "inputs": [
        {
          "internalType": "uint256",
          "name": "tokenId_",
          "type": "uint256"
        },
        {
          "internalType": "address",
          "name": "to_",
          "type": "address"
        },
        {
          "internalType": "uint256",
          "name": "value_",
          "type": "uint256"
        }
      ],
      "name": "approve",
      "outputs": [],
      "stateMutability": "payable",
      "type": "function"
    },
    {
      "inputs": [
        {
          "internalType": "address",
          "name": "owner_",
          "type": "address"
        }
      ],
      "name": "balanceOf",
      "outputs": [
        {
          "internalType": "uint256",
          "name": "balance",
          "type": "uint256"
        }
      ],
      "stateMutability": "view",
      "type": "function"
    },
    {
      "inputs": [
        {
          "internalType": "uint256",
          "name": "tokenId_",
          "type": "uint256"
        }
      ],
      "name": "balanceOf",
      "outputs": [
        {
          "internalType": "uint256",
          "name": "",
          "type": "uint256"
        }
      ],
      "stateMutability": "view",
      "type": "function"
    },
    {
      "inputs": [],
      "name": "contractURI",
      "outputs": [
        {
          "internalType": "string",
          "name": "",
          "type": "string"
        }
      ],
      "stateMutability": "view",
      "type": "function"
    },
    {
      "inputs": [
        {
          "internalType": "uint256",
          "name": "tokenId_",
          "type": "uint256"
        }
      ],
      "name": "getApproved",
      "outputs": [
        {
          "internalType": "address",
          "name": "",
          "type": "address"
        }
      ],
      "stateMutability": "view",
      "type": "function"
    },
    {
      "inputs": [
        {
          "internalType": "address",
          "name": "owner_",
          "type": "address"
        },
        {
          "internalType": "address",
          "name": "operator_",
          "type": "address"
        }
      ],
      "name": "isApprovedForAll",
      "outputs": [
        {
          "internalType": "bool",
          "name": "",
          "type": "bool"
        }
      ],
      "stateMutability": "view",
      "type": "function"
    },
    {
      "inputs": [],
      "name": "metadataDescriptor",
      "outputs": [
        {
          "internalType": "contract IERC3525MetadataDescriptorUpgradeable",
          "name": "",
          "type": "address"
        }
      ],
      "stateMutability": "view",
      "type": "function"
    },
    {
      "inputs": [],
      "name": "name",
      "outputs": [
        {
          "internalType": "string",
          "name": "",
          "type": "string"
        }
      ],
      "stateMutability": "view",
      "type": "function"
    },
    {
      "inputs": [
        {
          "internalType": "uint256",
          "name": "tokenId_",
          "type": "uint256"
        }
      ],
      "name": "ownerOf",
      "outputs": [
        {
          "internalType": "address",
          "name": "owner_",
          "type": "address"
        }
      ],
      "stateMutability": "view",
      "type": "function"
    },
    {
      "inputs": [
        {
          "internalType": "address",
          "name": "from_",
          "type": "address"
        },
        {
          "internalType": "address",
          "name": "to_",
          "type": "address"
        },
        {
          "internalType": "uint256",
          "name": "tokenId_",
          "type": "uint256"
        }
      ],
      "name": "safeTransferFrom",
      "outputs": [],
      "stateMutability": "payable",
      "type": "function"
    },
    {
      "inputs": [
        {
          "internalType": "address",
          "name": "from_",
          "type": "address"
        },
        {
          "internalType": "address",
          "name": "to_",
          "type": "address"
        },
        {
          "internalType": "uint256",
          "name": "tokenId_",
          "type": "uint256"
        },
        {
          "internalType": "bytes",
          "name": "data_",
          "type": "bytes"
        }
      ],
      "name": "safeTransferFrom",
      "outputs": [],
      "stateMutability": "payable",
      "type": "function"
    },
    {
      "inputs": [
        {
          "internalType": "address",
          "name": "operator_",
          "type": "address"
        },
        {
          "internalType": "bool",
          "name": "approved_",
          "type": "bool"
        }
      ],
      "name": "setApprovalForAll",
      "outputs": [],
      "stateMutability": "nonpayable",
      "type": "function"
    },
    {
      "inputs": [
        {
          "internalType": "uint256",
          "name": "tokenId_",
          "type": "uint256"
        }
      ],
      "name": "slotOf",
      "outputs": [
        {
          "internalType": "uint256",
          "name": "",
          "type": "uint256"
        }
      ],
      "stateMutability": "view",
      "type": "function"
    },
    {
      "inputs": [
        {
          "internalType": "uint256",
          "name": "slot_",
          "type": "uint256"
        }
      ],
      "name": "slotURI",
      "outputs": [
        {
          "internalType": "string",
          "name": "",
          "type": "string"
        }
      ],
      "stateMutability": "view",
      "type": "function"
    },
    {
      "inputs": [
        {
          "internalType": "bytes4",
          "name": "interfaceId",
          "type": "bytes4"
        }
      ],
      "name": "supportsInterface",
      "outputs": [
        {
          "internalType": "bool",
          "name": "",
          "type": "bool"
        }
      ],
      "stateMutability": "view",
      "type": "function"
    },
    {
      "inputs": [],
      "name": "symbol",
      "outputs": [
        {
          "internalType": "string",
          "name": "",
          "type": "string"
        }
      ],
      "stateMutability": "view",
      "type": "function"
    },
    {
      "inputs": [
        {
          "internalType": "uint256",
          "name": "index_",
          "type": "uint256"
        }
      ],
      "name": "tokenByIndex",
      "outputs": [
        {
          "internalType": "uint256",
          "name": "",
          "type": "uint256"
        }
      ],
      "stateMutability": "view",
      "type": "function"
    },
    {
      "inputs": [
        {
          "internalType": "address",
          "name": "owner_",
          "type": "address"
        },
        {
          "internalType": "uint256",
          "name": "index_",
          "type": "uint256"
        }
      ],
      "name": "tokenOfOwnerByIndex",
      "outputs": [
        {
          "internalType": "uint256",
          "name": "",
          "type": "uint256"
        }
      ],
      "stateMutability": "view",
      "type": "function"
    },
    {
      "inputs": [
        {
          "internalType": "uint256",
          "name": "tokenId_",
          "type": "uint256"
        }
      ],
      "name": "tokenURI",
      "outputs": [
        {
          "internalType": "string",
          "name": "",
          "type": "string"
        }
      ],
      "stateMutability": "view",
      "type": "function"
    },
    {
      "inputs": [],
      "name": "totalSupply",
      "outputs": [
        {
          "internalType": "uint256",
          "name": "",
          "type": "uint256"
        }
      ],
      "stateMutability": "view",
      "type": "function"
    },
    {
      "inputs": [
        {
          "internalType": "uint256",
          "name": "fromTokenId_",
          "type": "uint256"
        },
        {
          "internalType": "address",
          "name": "to_",
          "type": "address"
        },
        {
          "internalType": "uint256",
          "name": "value_",
          "type": "uint256"
        }
      ],
      "name": "transferFrom",
      "outputs": [
        {
          "internalType": "uint256",
          "name": "",
          "type": "uint256"
        }
      ],
      "stateMutability": "payable",
      "type": "function"
    },
    {
      "inputs": [
        {
          "internalType": "address",
          "name": "from_",
          "type": "address"
        },
        {
          "internalType": "address",
          "name": "to_",
          "type": "address"
        },
        {
          "internalType": "uint256",
          "name": "tokenId_",
          "type": "uint256"
        }
      ],
      "name": "transferFrom",
      "outputs": [],
      "stateMutability": "payable",
      "type": "function"
    },
    {
      "inputs": [
        {
          "internalType": "uint256",
          "name": "fromTokenId_",
          "type": "uint256"
        },
        {
          "internalType": "uint256",
          "name": "toTokenId_",
          "type": "uint256"
        },
        {
          "internalType": "uint256",
          "name": "value_",
          "type": "uint256"
        }
      ],
      "name": "transferFrom",
      "outputs": [],
      "stateMutability": "payable",
      "type": "function"
    },
    {
      "inputs": [],
      "name": "valueDecimals",
      "outputs": [
        {
          "internalType": "uint8",
          "name": "",
          "type": "uint8"
        }
      ],
      "stateMutability": "view",
      "type": "function"
    }
  ],
  "bytecode": "0x608060405234801561001057600080fd5b50612bd9806100206000396000f3fe6080604052600436106101815760003560e01c80634f6ccce7116100d15780639cc7f7081161008a578063c87b56dd11610064578063c87b56dd14610416578063e345e0bc14610436578063e8a3d48514610456578063e985e9c51461046b57600080fd5b80639cc7f708146103c3578063a22cb465146103e3578063b88d4fde1461040357600080fd5b80634f6ccce71461031b5780636352211e1461033b57806370a082311461035b578063840f71131461037b5780638cb0a5111461039b57806395d89b41146103ae57600080fd5b806318160ddd1161013e5780632f745c59116101185780632f745c59146102b3578063310ed7f0146102d35780633e7e8669146102e657806342842e0e1461030857600080fd5b806318160ddd1461026b57806323b872dd14610280578063263f3e7e1461029357600080fd5b806301ffc9a71461018657806306fdde03146101bb578063081812fc146101dd578063095ea7b31461021557806309c3dd871461022a5780630f485c021461024a575b600080fd5b34801561019257600080fd5b506101a66101a1366004612414565b6104b8565b60405190151581526020015b60405180910390f35b3480156101c757600080fd5b506101d061055b565b6040516101b29190612489565b3480156101e957600080fd5b506101fd6101f836600461249c565b6105ed565b6040516001600160a01b0390911681526020016101b2565b6102286102233660046124cc565b61063f565b005b34801561023657600080fd5b506101d061024536600461249c565b6106cd565b61025d6102583660046124f6565b6107bf565b6040519081526020016101b2565b34801561027757600080fd5b5060385461025d565b61022861028e36600461252b565b610801565b34801561029f57600080fd5b5061025d6102ae36600461249c565b610832565b3480156102bf57600080fd5b5061025d6102ce3660046124cc565b61087a565b6102286102e1366004612557565b61091b565b3480156102f257600080fd5b5060355460405160ff90911681526020016101b2565b61022861031636600461252b565b610931565b34801561032757600080fd5b5061025d61033636600461249c565b61094c565b34801561034757600080fd5b506101fd61035636600461249c565b6109dd565b34801561036757600080fd5b5061025d610376366004612583565b610a79565b34801561038757600080fd5b50603b546101fd906001600160a01b031681565b6102286103a93660046124f6565b610b01565b3480156103ba57600080fd5b506101d0610b88565b3480156103cf57600080fd5b5061025d6103de36600461249c565b610b97565b3480156103ef57600080fd5b506102286103fe3660046125ac565b610bdf565b610228610411366004612652565b610bee565b34801561042257600080fd5b506101d061043136600461249c565b610c20565b34801561044257600080fd5b5061025d6104513660046126fd565b610cbf565b34801561046257600080fd5b506101d0610cf3565b34801561047757600080fd5b506101a6610486366004612729565b6001600160a01b039182166000908152603a602090815260408083209390941682526002909201909152205460ff1690565b60006001600160e01b031982166301ffc9a760e01b14806104e957506001600160e01b03198216630354d60560e61b145b8061050457506001600160e01b031982166380ac58cd60e01b145b8061051f57506001600160e01b031982166370b0048160e11b145b8061053a57506001600160e01b0319821663780e9d6360e01b145b8061055557506001600160e01b03198216635b5e139f60e01b145b92915050565b60606033805461056a90612753565b80601f016020809104026020016040519081016040528092919081815260200182805461059690612753565b80156105e35780601f106105b8576101008083540402835291602001916105e3565b820191906000526020600020905b8154815290600101906020018083116105c657829003601f168201915b5050505050905090565b60006105f882610ded565b60008281526039602052604090205460388054909190811061061c5761061c61278d565b60009182526020909120600460069092020101546001600160a01b031692915050565b600061064a826109dd565b9050806001600160a01b0316836001600160a01b0316036106865760405162461bcd60e51b815260040161067d906127a3565b60405180910390fd5b336001600160a01b03821614806106a257506106a28133610486565b6106be5760405162461bcd60e51b815260040161067d906127e5565b6106c88383610e41565b505050565b606060006106e660408051602081019091526000815290565b603b549091506001600160a01b031661074657600081511161071757604051806020016040528060008152506107b8565b8061072184610ed8565b604051602001610732929190612842565b6040516020818303038152906040526107b8565b603b54604051633601bfc560e11b8152600481018590526001600160a01b0390911690636c037f8a906024015b600060405180830381865afa158015610790573d6000803e3d6000fd5b505050506040513d6000823e601f3d908101601f191682016040526107b89190810190612882565b9392505050565b60006107cc338584610fd9565b60006107d785611069565b90506107ee84826107e788610832565b6000611073565b6107f985828561119d565b949350505050565b61080b338261144f565b6108275760405162461bcd60e51b815260040161067d906128f9565b6106c88383836114b7565b600061083d82610ded565b6000828152603960205260409020546038805490919081106108615761086161278d565b9060005260206000209060060201600101549050919050565b600061088583610a79565b82106108de5760405162461bcd60e51b815260206004820152602260248201527f455243333532353a206f776e657220696e646578206f7574206f6620626f756e604482015261647360f01b606482015260840161067d565b6001600160a01b0383166000908152603a602052604090208054839081106109085761090861278d565b9060005260206000200154905092915050565b610926338483610fd9565b6106c883838361119d565b6106c883838360405180602001604052806000815250610bee565b600061095760385490565b82106109b15760405162461bcd60e51b815260206004820152602360248201527f455243333532353a20676c6f62616c20696e646578206f7574206f6620626f756044820152626e647360e81b606482015260840161067d565b603882815481106109c4576109c461278d565b9060005260206000209060060201600001549050919050565b60006109e882610ded565b600082815260396020526040902054603880549091908110610a0c57610a0c61278d565b60009182526020909120600360069092020101546001600160a01b0316905080610a745760405162461bcd60e51b8152602060048201526019602482015278115490cccd4c8d4e881a5b9d985b1a59081d1bdad95b881251603a1b604482015260640161067d565b919050565b60006001600160a01b038216610ae55760405162461bcd60e51b815260206004820152602b60248201527f455243333532353a2062616c616e636520717565727920666f7220746865207a60448201526a65726f206164647265737360a81b606482015260840161067d565b506001600160a01b03166000908152603a602052604090205490565b6000610b0c846109dd565b9050806001600160a01b0316836001600160a01b031603610b3f5760405162461bcd60e51b815260040161067d906127a3565b336001600160a01b0382161480610b5b5750610b5b8133610486565b610b775760405162461bcd60e51b815260040161067d906127e5565b610b82848484611618565b50505050565b60606034805461056a90612753565b6000610ba282610ded565b600082815260396020526040902054603880549091908110610bc657610bc661278d565b9060005260206000209060060201600201549050919050565b610bea338383611750565b5050565b610bf8338361144f565b610c145760405162461bcd60e51b815260040161067d906128f9565b610b828484848461181a565b6060610c2b82610ded565b6000610c4260408051602081019091526000815290565b603b549091506001600160a01b0316610c8e576000815111610c7357604051806020016040528060008152506107b8565b80610c7d84610ed8565b60405160200161073292919061294b565b603b546040516344a5a61760e11b8152600481018590526001600160a01b039091169063894b4c2e90602401610773565b6000610cca83610ded565b5060009182526037602090815260408084206001600160a01b0393909316845291905290205490565b60606000610d0c60408051602081019091526000815290565b603b549091506001600160a01b0316610d6c576000815111610d3d5760405180602001604052806000815250610de7565b80610d473061188d565b604051602001610d5892919061297a565b604051602081830303815290604052610de7565b603b60009054906101000a90046001600160a01b03166001600160a01b031663725fa09c6040518163ffffffff1660e01b8152600401600060405180830381865afa158015610dbf573d6000803e3d6000fd5b505050506040513d6000823e601f3d908101601f19168201604052610de79190810190612882565b91505090565b610df6816118a3565b610e3e5760405162461bcd60e51b8152602060048201526019602482015278115490cccd4c8d4e881a5b9d985b1a59081d1bdad95b881251603a1b604482015260640161067d565b50565b600081815260396020526040902054603880548492908110610e6557610e6561278d565b6000918252602090912060069091020160040180546001600160a01b0319166001600160a01b0392831617905581908316610e9f826109dd565b6001600160a01b03167f8c5be1e5ebec7d5bd14f71427d1e84f3dd0314c0f7b2291e5b200ac8c7c3b92560405160405180910390a45050565b606081600003610eff5750506040805180820190915260018152600360fc1b602082015290565b8160005b8115610f295780610f13816129d4565b9150610f229050600a83612a03565b9150610f03565b60008167ffffffffffffffff811115610f4457610f446125e3565b6040519080825280601f01601f191660200182016040528015610f6e576020820181803683370190505b5090505b84156107f957610f83600183612a17565b9150610f90600a86612a2e565b610f9b906030612a42565b60f81b818381518110610fb057610fb061278d565b60200101906001600160f81b031916908160001a905350610fd2600a86612a03565b9450610f72565b6000610fe58385610cbf565b9050610ff1848461144f565b15801561100057506000198114155b15610b8257818110156110555760405162461bcd60e51b815260206004820152601f60248201527f455243333532353a20696e73756666696369656e7420616c6c6f77616e636500604482015260640161067d565b610b8283856110648585612a17565b611618565b60006105556118ef565b6001600160a01b0384166110d35760405162461bcd60e51b815260206004820152602160248201527f455243333532353a206d696e7420746f20746865207a65726f206164647265736044820152607360f81b606482015260840161067d565b8260000361112d5760405162461bcd60e51b815260206004820152602160248201527f455243333532353a2063616e6e6f74206d696e74207a65726f20746f6b656e496044820152601960fa1b606482015260840161067d565b611136836118a3565b156111835760405162461bcd60e51b815260206004820152601d60248201527f455243333532353a20746f6b656e20616c7265616479206d696e746564000000604482015260640161067d565b61118e848484611906565b61119883826119cc565b610b82565b6111a6836118a3565b6112025760405162461bcd60e51b815260206004820152602760248201527f455243333532353a207472616e736665722066726f6d20696e76616c696420746044820152661bdad95b88125160ca1b606482015260840161067d565b61120b826118a3565b6112655760405162461bcd60e51b815260206004820152602560248201527f455243333532353a207472616e7366657220746f20696e76616c696420746f6b604482015264195b88125160da1b606482015260840161067d565b6000838152603960205260408120546038805490919081106112895761128961278d565b90600052602060002090600602019050600060386039600086815260200190815260200160002054815481106112c1576112c161278d565b9060005260206000209060060201905082826002015410156113385760405162461bcd60e51b815260206004820152602a60248201527f455243333532353a20696e73756666696369656e742062616c616e636520666f60448201526939103a3930b739b332b960b11b606482015260840161067d565b80600101548260010154146113a65760405162461bcd60e51b815260206004820152602e60248201527f455243333532353a207472616e7366657220746f20746f6b656e20776974682060448201526d191a5999995c995b9d081cdb1bdd60921b606482015260840161067d565b828260020160008282546113ba9190612a17565b92505081905550828160020160008282546113d59190612a42565b9091555050604051838152849086907f0b2aac84f3ec956911fd78eae5311062972ff949f38412e8da39069d9f068cc69060200160405180910390a361142c85858560405180602001604052806000815250611a51565b6114485760405162461bcd60e51b815260040161067d90612a5a565b5050505050565b600061145a82610ded565b6000611465836109dd565b9050806001600160a01b0316846001600160a01b0316148061148c575061148c8185610486565b806107f95750836001600160a01b03166114a5846105ed565b6001600160a01b031614949350505050565b826001600160a01b03166114ca826109dd565b6001600160a01b03161461152c5760405162461bcd60e51b8152602060048201526024808201527f455243333532353a207472616e736665722066726f6d20696e76616c6964206f6044820152633bb732b960e11b606482015260840161067d565b6001600160a01b0382166115905760405162461bcd60e51b815260206004820152602560248201527f455243333532353a207472616e7366657220746f20746865207a65726f206164604482015264647265737360d81b606482015260840161067d565b600061159b82610832565b905060006115a883610b97565b90506115b5600084610e41565b6115be83611bd5565b6115c88584611c71565b6115d28484611d92565b82846001600160a01b0316866001600160a01b03167fddf252ad1be2c89b69c2b068fc378daa952ba7f163c4a11628f55a4df523b3ef60405160405180910390a4611448565b6001600160a01b0382166116815760405162461bcd60e51b815260206004820152602a60248201527f455243333532353a20617070726f76652076616c756520746f20746865207a65604482015269726f206164647265737360b01b606482015260840161067d565b61168b8284611e1b565b6116f1576000838152603960205260409020546038805490919081106116b3576116b361278d565b60009182526020808320600692909202909101600501805460018101825590835291200180546001600160a01b0319166001600160a01b0384161790555b60008381526037602090815260408083206001600160a01b038616808552908352928190208490555183815285917f621b050de0ad08b51d19b48b3e6df75348c4de6bdd93e81b252ca62e28265b1b91015b60405180910390a3505050565b816001600160a01b0316836001600160a01b0316036117b15760405162461bcd60e51b815260206004820152601a60248201527f455243333532353a20617070726f766520746f2063616c6c6572000000000000604482015260640161067d565b6001600160a01b038381166000818152603a602090815260408083209487168084526002909501825291829020805460ff191686151590811790915591519182527f17307eab39ab6107e8899845ad3d59bd9653f200f220920489ca2b5937696c319101611743565b6118258484846114b7565b61183184848484611eee565b610b825760405162461bcd60e51b815260206004820152602760248201527f455243333532353a207472616e7366657220746f206e6f6e204552433732315260448201526632b1b2b4bb32b960c91b606482015260840161067d565b60606105556001600160a01b038316601461209b565b6038546000901580159061055557506000828152603960205260409020546038805484929081106118d6576118d661278d565b9060005260206000209060060201600001541492915050565b60006118ff603680546001019055565b5060365490565b6040805160c081018252838152602080820184905260008284018190526001600160a01b038716606084015260808301819052835181815291820190935260a0820152905061195481612237565b61195e8484611d92565b60405183906001600160a01b038616906000907fddf252ad1be2c89b69c2b068fc378daa952ba7f163c4a11628f55a4df523b3ef908290a4816000847fe4f48c240d3b994948aa54f3e2f5fca59263dfe1d52b6e4cf39a5d249b5ccb6560405160405180910390a450505050565b6000828152603960205260409020546038805483929081106119f0576119f061278d565b90600052602060002090600602016002016000828254611a109190612a42565b909155505060405181815282906000907f0b2aac84f3ec956911fd78eae5311062972ff949f38412e8da39069d9f068cc69060200160405180910390a35050565b600080611a5d856109dd565b90506001600160a01b0381163b15158015611ae157506040516301ffc9a760e01b8152629ce20b60e01b60048201526001600160a01b038216906301ffc9a790602401602060405180830381865afa158015611abd573d6000803e3d6000fd5b505050506040513d601f19601f82011682018060405250810190611ae19190612aa2565b15611bcb57604051629ce20b60e01b81526001600160a01b03821690629ce20b90611b189033908a908a908a908a90600401612abf565b6020604051808303816000875af1925050508015611b53575060408051601f3d908101601f19168201909252611b5091810190612afd565b60015b611bb0573d808015611b81576040519150601f19603f3d011682016040523d82523d6000602084013e611b86565b606091505b508051600003611ba85760405162461bcd60e51b815260040161067d90612a5a565b805181602001fd5b6001600160e01b031916629ce20b60e01b1491506107f99050565b60019150506107f9565b600081815260396020526040812054603880549091908110611bf957611bf961278d565b600091825260208220600560069092020190810154909250905b81811015610b82576000836005018281548110611c3257611c3261278d565b60009182526020808320909101548783526037825260408084206001600160a01b03909216845291528120555080611c69816129d4565b915050611c13565b600081815260396020526040812054603880549091908110611c9557611c9561278d565b6000918252602080832060069290920290910160030180546001600160a01b0319166001600160a01b039485161790559184168152603a909152604081208054909190611ce490600190612a17565b90506000826000018281548110611cfd57611cfd61278d565b90600052602060002001549050600083600101600086815260200190815260200160002054905081846000018281548110611d3a57611d3a61278d565b60009182526020808320909101929092558381526001860190915260408082208390558682528120558354849080611d7457611d74612b1a565b60019003818190600052602060002001600090559055505050505050565b600081815260396020526040902054603880548492908110611db657611db661278d565b6000918252602080832060069290920290910160030180546001600160a01b0319166001600160a01b03948516179055939091168152603a80845260408083208054858552600182810188529285208190559286529082018155825292902090910155565b600081815260396020526040812054603880548392908110611e3f57611e3f61278d565b6000918252602082206005600690920201015491505b81811015611ee357600084815260396020526040902054603880546001600160a01b03881692908110611e8a57611e8a61278d565b90600052602060002090600602016005018281548110611eac57611eac61278d565b6000918252602090912001546001600160a01b031603611ed157600192505050610555565b80611edb816129d4565b915050611e55565b506000949350505050565b60006001600160a01b0384163b15158015611f7357506040516301ffc9a760e01b8152630a85bd0160e11b60048201526001600160a01b038516906301ffc9a790602401602060405180830381865afa158015611f4f573d6000803e3d6000fd5b505050506040513d601f19601f82011682018060405250810190611f739190612aa2565b1561209357604051630a85bd0160e11b81526001600160a01b0385169063150b7a0290611faa903390899088908890600401612b30565b6020604051808303816000875af1925050508015611fe5575060408051601f3d908101601f19168201909252611fe291810190612afd565b60015b612079573d808015612013576040519150601f19603f3d011682016040523d82523d6000602084013e612018565b606091505b508051600003611ba85760405162461bcd60e51b815260206004820152602660248201527f4552433732313a207472616e7366657220746f206e6f6e20455243373231526560448201526531b2b4bb32b960d11b606482015260840161067d565b6001600160e01b031916630a85bd0160e11b1490506107f9565b5060016107f9565b606060006120aa836002612b6d565b6120b5906002612a42565b67ffffffffffffffff8111156120cd576120cd6125e3565b6040519080825280601f01601f1916602001820160405280156120f7576020820181803683370190505b509050600360fc1b816000815181106121125761211261278d565b60200101906001600160f81b031916908160001a905350600f60fb1b816001815181106121415761214161278d565b60200101906001600160f81b031916908160001a9053506000612165846002612b6d565b612170906001612a42565b90505b60018111156121e8576f181899199a1a9b1b9c1cb0b131b232b360811b85600f16601081106121a4576121a461278d565b1a60f81b8282815181106121ba576121ba61278d565b60200101906001600160f81b031916908160001a90535060049490941c936121e181612b8c565b9050612173565b5083156107b85760405162461bcd60e51b815260206004820181905260248201527f537472696e67733a20686578206c656e67746820696e73756666696369656e74604482015260640161067d565b603880548251600090815260396020908152604080832084905560018401855593909152835160069092027f38395c5dceade9603479b177b68959049485df8aa97b39f3533039af5f4561998101928355818501517f38395c5dceade9603479b177b68959049485df8aa97b39f3533039af5f45619a820155928401517f38395c5dceade9603479b177b68959049485df8aa97b39f3533039af5f45619b84015560608401517f38395c5dceade9603479b177b68959049485df8aa97b39f3533039af5f45619c840180546001600160a01b039283166001600160a01b03199182161790915560808601517f38395c5dceade9603479b177b68959049485df8aa97b39f3533039af5f45619d8601805491909316911617905560a084015180518594610b82937f38395c5dceade9603479b177b68959049485df8aa97b39f3533039af5f45619e9091019201908280548282559060005260206000209081019282156123d9579160200282015b828111156123d957825182546001600160a01b0319166001600160a01b039091161782556020909201916001909101906123a4565b506123e59291506123e9565b5090565b5b808211156123e557600081556001016123ea565b6001600160e01b031981168114610e3e57600080fd5b60006020828403121561242657600080fd5b81356107b8816123fe565b60005b8381101561244c578181015183820152602001612434565b83811115610b825750506000910152565b60008151808452612475816020860160208601612431565b601f01601f19169290920160200192915050565b6020815260006107b8602083018461245d565b6000602082840312156124ae57600080fd5b5035919050565b80356001600160a01b0381168114610a7457600080fd5b600080604083850312156124df57600080fd5b6124e8836124b5565b946020939093013593505050565b60008060006060848603121561250b57600080fd5b8335925061251b602085016124b5565b9150604084013590509250925092565b60008060006060848603121561254057600080fd5b612549846124b5565b925061251b602085016124b5565b60008060006060848603121561256c57600080fd5b505081359360208301359350604090920135919050565b60006020828403121561259557600080fd5b6107b8826124b5565b8015158114610e3e57600080fd5b600080604083850312156125bf57600080fd5b6125c8836124b5565b915060208301356125d88161259e565b809150509250929050565b634e487b7160e01b600052604160045260246000fd5b604051601f8201601f1916810167ffffffffffffffff81118282101715612622576126226125e3565b604052919050565b600067ffffffffffffffff821115612644576126446125e3565b50601f01601f191660200190565b6000806000806080858703121561266857600080fd5b612671856124b5565b935061267f602086016124b5565b925060408501359150606085013567ffffffffffffffff8111156126a257600080fd5b8501601f810187136126b357600080fd5b80356126c66126c18261262a565b6125f9565b8181528860208385010111156126db57600080fd5b8160208401602083013760006020838301015280935050505092959194509250565b6000806040838503121561271057600080fd5b82359150612720602084016124b5565b90509250929050565b6000806040838503121561273c57600080fd5b612745836124b5565b9150612720602084016124b5565b600181811c9082168061276757607f821691505b60208210810361278757634e487b7160e01b600052602260045260246000fd5b50919050565b634e487b7160e01b600052603260045260246000fd5b60208082526022908201527f455243333532353a20617070726f76616c20746f2063757272656e74206f776e60408201526132b960f11b606082015260800190565b60208082526039908201527f455243333532353a20617070726f76652063616c6c6572206973206e6f74206f60408201527f776e6572206e6f7220617070726f76656420666f7220616c6c00000000000000606082015260800190565b60008351612854818460208801612431565b64736c6f742f60d81b9083019081528351612876816005840160208801612431565b01600501949350505050565b60006020828403121561289457600080fd5b815167ffffffffffffffff8111156128ab57600080fd5b8201601f810184136128bc57600080fd5b80516128ca6126c18261262a565b8181528560208385010111156128df57600080fd5b6128f0826020830160208601612431565b95945050505050565b60208082526032908201527f455243333532353a207472616e736665722063616c6c6572206973206e6f74206040820152711bdddb995c881b9bdc88185c1c1c9bdd995960721b606082015260800190565b6000835161295d818460208801612431565b835190830190612971818360208801612431565b01949350505050565b6000835161298c818460208801612431565b68636f6e74726163742f60b81b90830190815283516129b2816009840160208801612431565b01600901949350505050565b634e487b7160e01b600052601160045260246000fd5b6000600182016129e6576129e66129be565b5060010190565b634e487b7160e01b600052601260045260246000fd5b600082612a1257612a126129ed565b500490565b600082821015612a2957612a296129be565b500390565b600082612a3d57612a3d6129ed565b500690565b60008219821115612a5557612a556129be565b500190565b60208082526028908201527f455243333532353a207472616e7366657220746f206e6f6e20455243333532356040820152672932b1b2b4bb32b960c11b606082015260800190565b600060208284031215612ab457600080fd5b81516107b88161259e565b60018060a01b038616815284602082015283604082015282606082015260a060808201526000612af260a083018461245d565b979650505050505050565b600060208284031215612b0f57600080fd5b81516107b8816123fe565b634e487b7160e01b600052603160045260246000fd5b6001600160a01b0385811682528416602082015260408101839052608060608201819052600090612b639083018461245d565b9695505050505050565b6000816000190483118215151615612b8757612b876129be565b500290565b600081612b9b57612b9b6129be565b50600019019056fea2646970667358221220f93c862fbbf9dbce7dde76e3889861de9ecfc94d59415e373eb5b3d432eb300864736f6c634300080f0033",
  "linkReferences": {},
  "deployedLinkReferences": {}
}