{
  "_format": "hh-sol-artifact-1",
  "contractName": "ERC3525MintableUpgradeableWithInit",
  "sourceName": "contracts/mocks/WithInit.sol",
  "abi": [
    {
      "inputs": [
        {
          "internalType": "string",
          "name": "name_",
          "type": "string"
        },
        {
          "internalType": "string",
          "name": "symbol_",
          "type": "string"
        },
        {
          "internalType": "uint8",
          "name": "decimals_",
          "type": "uint8"
        }
      ],
      "stateMutability": "payable",
      "type": "constructor"
    },
    {
      "anonymous": false,
      "inputs": [
        {
          "indexed": true,
          "internalType": "address",
          "name": "_owner",
          "type": "address"
        },
        {
          "indexed": true,
          "internalType": "address",
          "name": "_approved",
          "type": "address"
        },
        {
          "indexed": true,
          "internalType": "uint256",
          "name": "_tokenId",
          "type": "uint256"
        }
      ],
      "name": "Approval",
      "type": "event"
    },
    {
      "anonymous": false,
      "inputs": [
        {
          "indexed": true,
          "internalType": "address",
          "name": "_owner",
          "type": "address"
        },
        {
          "indexed": true,
          "internalType": "address",
          "name": "_operator",
          "type": "address"
        },
        {
          "indexed": false,
          "internalType": "bool",
          "name": "_approved",
          "type": "bool"
        }
      ],
      "name": "ApprovalForAll",
      "type": "event"
    },
    {
      "anonymous": false,
      "inputs": [
        {
          "indexed": true,
          "internalType": "uint256",
          "name": "_tokenId",
          "type": "uint256"
        },
        {
          "indexed": true,
          "internalType": "address",
          "name": "_operator",
          "type": "address"
        },
        {
          "indexed": false,
          "internalType": "uint256",
          "name": "_value",
          "type": "uint256"
        }
      ],
      "name": "ApprovalValue",
      "type": "event"
    },
    {
      "anonymous": false,
      "inputs": [
        {
          "indexed": false,
          "internalType": "uint8",
          "name": "version",
          "type": "uint8"
        }
      ],
      "name": "Initialized",
      "type": "event"
    },
    {
      "anonymous": false,
      "inputs": [
        {
          "indexed": true,
          "internalType": "address",
          "name": "metadataDescriptor",
          "type": "address"
        }
      ],
      "name": "SetMetadataDescriptor",
      "type": "event"
    },
    {
      "anonymous": false,
      "inputs": [
        {
          "indexed": true,
          "internalType": "uint256",
          "name": "_tokenId",
          "type": "uint256"
        },
        {
          "indexed": true,
          "internalType": "uint256",
          "name": "_oldSlot",
          "type": "uint256"
        },
        {
          "indexed": true,
          "internalType": "uint256",
          "name": "_newSlot",
          "type": "uint256"
        }
      ],
      "name": "SlotChanged",
      "type": "event"
    },
    {
      "anonymous": false,
      "inputs": [
        {
          "indexed": true,
          "internalType": "address",
          "name": "_from",
          "type": "address"
        },
        {
          "indexed": true,
          "internalType": "address",
          "name": "_to",
          "type": "address"
        },
        {
          "indexed": true,
          "internalType": "uint256",
          "name": "_tokenId",
          "type": "uint256"
        }
      ],
      "name": "Transfer",
      "type": "event"
    },
    {
      "anonymous": false,
      "inputs": [
        {
          "indexed": true,
          "internalType": "uint256",
          "name": "_fromTokenId",
          "type": "uint256"
        },
        {
          "indexed": true,
          "internalType": "uint256",
          "name": "_toTokenId",
          "type": "uint256"
        },
        {
          "indexed": false,
          "internalType": "uint256",
          "name": "_value",
          "type": "uint256"
        }
      ],
      "name": "TransferValue",
      "type": "event"
    },
    {
      "inputs": [
        {
          "internalType": "uint256",
          "name": "tokenId_",
          "type": "uint256"
        },
        {
          "internalType": "address",
          "name": "operator_",
          "type": "address"
        }
      ],
      "name": "allowance",
      "outputs": [
        {
          "internalType": "uint256",
          "name": "",
          "type": "uint256"
        }
      ],
      "stateMutability": "view",
      "type": "function"
    },
    {
      "inputs": [
        {
          "internalType": "address",
          "name": "to_",
          "type": "address"
        },
        {
          "internalType": "uint256",
          "name": "tokenId_",
          "type": "uint256"
        }
      ],
      "name": "approve",
      "outputs": [],
      "stateMutability": "payable",
      "type": "function"
    },
    {
      "inputs": [
        {
          "internalType": "uint256",
          "name": "tokenId_",
          "type": "uint256"
        },
        {
          "internalType": "address",
          "name": "to_",
          "type": "address"
        },
        {
          "internalType": "uint256",
          "name": "value_",
          "type": "uint256"
        }
      ],
      "name": "approve",
      "outputs": [],
      "stateMutability": "payable",
      "type": "function"
    },
    {
      "inputs": [
        {
          "internalType": "address",
          "name": "owner_",
          "type": "address"
        }
      ],
      "name": "balanceOf",
      "outputs": [
        {
          "internalType": "uint256",
          "name": "balance",
          "type": "uint256"
        }
      ],
      "stateMutability": "view",
      "type": "function"
    },
    {
      "inputs": [
        {
          "internalType": "uint256",
          "name": "tokenId_",
          "type": "uint256"
        }
      ],
      "name": "balanceOf",
      "outputs": [
        {
          "internalType": "uint256",
          "name": "",
          "type": "uint256"
        }
      ],
      "stateMutability": "view",
      "type": "function"
    },
    {
      "inputs": [],
      "name": "contractURI",
      "outputs": [
        {
          "internalType": "string",
          "name": "",
          "type": "string"
        }
      ],
      "stateMutability": "view",
      "type": "function"
    },
    {
      "inputs": [
        {
          "internalType": "uint256",
          "name": "tokenId_",
          "type": "uint256"
        }
      ],
      "name": "getApproved",
      "outputs": [
        {
          "internalType": "address",
          "name": "",
          "type": "address"
        }
      ],
      "stateMutability": "view",
      "type": "function"
    },
    {
      "inputs": [
        {
          "internalType": "address",
          "name": "owner_",
          "type": "address"
        },
        {
          "internalType": "address",
          "name": "operator_",
          "type": "address"
        }
      ],
      "name": "isApprovedForAll",
      "outputs": [
        {
          "internalType": "bool",
          "name": "",
          "type": "bool"
        }
      ],
      "stateMutability": "view",
      "type": "function"
    },
    {
      "inputs": [],
      "name": "metadataDescriptor",
      "outputs": [
        {
          "internalType": "contract IERC3525MetadataDescriptorUpgradeable",
          "name": "",
          "type": "address"
        }
      ],
      "stateMutability": "view",
      "type": "function"
    },
    {
      "inputs": [
        {
          "internalType": "address",
          "name": "mintTo_",
          "type": "address"
        },
        {
          "internalType": "uint256",
          "name": "tokenId_",
          "type": "uint256"
        },
        {
          "internalType": "uint256",
          "name": "slot_",
          "type": "uint256"
        },
        {
          "internalType": "uint256",
          "name": "value_",
          "type": "uint256"
        }
      ],
      "name": "mint",
      "outputs": [],
      "stateMutability": "nonpayable",
      "type": "function"
    },
    {
      "inputs": [
        {
          "internalType": "uint256",
          "name": "tokenId_",
          "type": "uint256"
        },
        {
          "internalType": "uint256",
          "name": "value_",
          "type": "uint256"
        }
      ],
      "name": "mintValue",
      "outputs": [],
      "stateMutability": "nonpayable",
      "type": "function"
    },
    {
      "inputs": [],
      "name": "name",
      "outputs": [
        {
          "internalType": "string",
          "name": "",
          "type": "string"
        }
      ],
      "stateMutability": "view",
      "type": "function"
    },
    {
      "inputs": [
        {
          "internalType": "uint256",
          "name": "tokenId_",
          "type": "uint256"
        }
      ],
      "name": "ownerOf",
      "outputs": [
        {
          "internalType": "address",
          "name": "owner_",
          "type": "address"
        }
      ],
      "stateMutability": "view",
      "type": "function"
    },
    {
      "inputs": [
        {
          "internalType": "address",
          "name": "from_",
          "type": "address"
        },
        {
          "internalType": "address",
          "name": "to_",
          "type": "address"
        },
        {
          "internalType": "uint256",
          "name": "tokenId_",
          "type": "uint256"
        }
      ],
      "name": "safeTransferFrom",
      "outputs": [],
      "stateMutability": "payable",
      "type": "function"
    },
    {
      "inputs": [
        {
          "internalType": "address",
          "name": "from_",
          "type": "address"
        },
        {
          "internalType": "address",
          "name": "to_",
          "type": "address"
        },
        {
          "internalType": "uint256",
          "name": "tokenId_",
          "type": "uint256"
        },
        {
          "internalType": "bytes",
          "name": "data_",
          "type": "bytes"
        }
      ],
      "name": "safeTransferFrom",
      "outputs": [],
      "stateMutability": "payable",
      "type": "function"
    },
    {
      "inputs": [
        {
          "internalType": "address",
          "name": "operator_",
          "type": "address"
        },
        {
          "internalType": "bool",
          "name": "approved_",
          "type": "bool"
        }
      ],
      "name": "setApprovalForAll",
      "outputs": [],
      "stateMutability": "nonpayable",
      "type": "function"
    },
    {
      "inputs": [
        {
          "internalType": "uint256",
          "name": "tokenId_",
          "type": "uint256"
        }
      ],
      "name": "slotOf",
      "outputs": [
        {
          "internalType": "uint256",
          "name": "",
          "type": "uint256"
        }
      ],
      "stateMutability": "view",
      "type": "function"
    },
    {
      "inputs": [
        {
          "internalType": "uint256",
          "name": "slot_",
          "type": "uint256"
        }
      ],
      "name": "slotURI",
      "outputs": [
        {
          "internalType": "string",
          "name": "",
          "type": "string"
        }
      ],
      "stateMutability": "view",
      "type": "function"
    },
    {
      "inputs": [
        {
          "internalType": "bytes4",
          "name": "interfaceId",
          "type": "bytes4"
        }
      ],
      "name": "supportsInterface",
      "outputs": [
        {
          "internalType": "bool",
          "name": "",
          "type": "bool"
        }
      ],
      "stateMutability": "view",
      "type": "function"
    },
    {
      "inputs": [],
      "name": "symbol",
      "outputs": [
        {
          "internalType": "string",
          "name": "",
          "type": "string"
        }
      ],
      "stateMutability": "view",
      "type": "function"
    },
    {
      "inputs": [
        {
          "internalType": "uint256",
          "name": "index_",
          "type": "uint256"
        }
      ],
      "name": "tokenByIndex",
      "outputs": [
        {
          "internalType": "uint256",
          "name": "",
          "type": "uint256"
        }
      ],
      "stateMutability": "view",
      "type": "function"
    },
    {
      "inputs": [
        {
          "internalType": "address",
          "name": "owner_",
          "type": "address"
        },
        {
          "internalType": "uint256",
          "name": "index_",
          "type": "uint256"
        }
      ],
      "name": "tokenOfOwnerByIndex",
      "outputs": [
        {
          "internalType": "uint256",
          "name": "",
          "type": "uint256"
        }
      ],
      "stateMutability": "view",
      "type": "function"
    },
    {
      "inputs": [
        {
          "internalType": "uint256",
          "name": "tokenId_",
          "type": "uint256"
        }
      ],
      "name": "tokenURI",
      "outputs": [
        {
          "internalType": "string",
          "name": "",
          "type": "string"
        }
      ],
      "stateMutability": "view",
      "type": "function"
    },
    {
      "inputs": [],
      "name": "totalSupply",
      "outputs": [
        {
          "internalType": "uint256",
          "name": "",
          "type": "uint256"
        }
      ],
      "stateMutability": "view",
      "type": "function"
    },
    {
      "inputs": [
        {
          "internalType": "uint256",
          "name": "fromTokenId_",
          "type": "uint256"
        },
        {
          "internalType": "address",
          "name": "to_",
          "type": "address"
        },
        {
          "internalType": "uint256",
          "name": "value_",
          "type": "uint256"
        }
      ],
      "name": "transferFrom",
      "outputs": [
        {
          "internalType": "uint256",
          "name": "",
          "type": "uint256"
        }
      ],
      "stateMutability": "payable",
      "type": "function"
    },
    {
      "inputs": [
        {
          "internalType": "address",
          "name": "from_",
          "type": "address"
        },
        {
          "internalType": "address",
          "name": "to_",
          "type": "address"
        },
        {
          "internalType": "uint256",
          "name": "tokenId_",
          "type": "uint256"
        }
      ],
      "name": "transferFrom",
      "outputs": [],
      "stateMutability": "payable",
      "type": "function"
    },
    {
      "inputs": [
        {
          "internalType": "uint256",
          "name": "fromTokenId_",
          "type": "uint256"
        },
        {
          "internalType": "uint256",
          "name": "toTokenId_",
          "type": "uint256"
        },
        {
          "internalType": "uint256",
          "name": "value_",
          "type": "uint256"
        }
      ],
      "name": "transferFrom",
      "outputs": [],
      "stateMutability": "payable",
      "type": "function"
    },
    {
      "inputs": [],
      "name": "valueDecimals",
      "outputs": [
        {
          "internalType": "uint8",
          "name": "",
          "type": "uint8"
        }
      ],
      "stateMutability": "view",
      "type": "function"
    }
  ],
  "bytecode": "0x6080604052604051620032493803806200324983398101604081905262000026916200033e565b600054610100900460ff1615808015620000475750600054600160ff909116105b8062000077575062000064306200016260201b62000e791760201c565b15801562000077575060005460ff166001145b620000e05760405162461bcd60e51b815260206004820152602e60248201527f496e697469616c697a61626c653a20636f6e747261637420697320616c72656160448201526d191e481a5b9a5d1a585b1a5e995960921b60648201526084015b60405180910390fd5b6000805460ff19166001179055801562000104576000805461ff0019166101001790555b6200011184848462000171565b801562000158576000805461ff0019169055604051600181527f7f26b83ff96e1f2b6a682f133852f6798a09c465da95921460cefb38474024989060200160405180910390a15b505050506200051d565b6001600160a01b03163b151590565b600054610100900460ff16620001cd5760405162461bcd60e51b815260206004820152602b60248201526000805160206200322983398151915260448201526a6e697469616c697a696e6760a81b6064820152608401620000d7565b620001da838383620001df565b505050565b600054610100900460ff166200023b5760405162461bcd60e51b815260206004820152602b60248201526000805160206200322983398151915260448201526a6e697469616c697a696e6760a81b6064820152608401620000d7565b603362000249848262000451565b50603462000258838262000451565b506035805460ff191660ff929092169190911790555050565b634e487b7160e01b600052604160045260246000fd5b600082601f8301126200029957600080fd5b81516001600160401b0380821115620002b657620002b662000271565b604051601f8301601f19908116603f01168101908282118183101715620002e157620002e162000271565b81604052838152602092508683858801011115620002fe57600080fd5b600091505b8382101562000322578582018301518183018401529082019062000303565b83821115620003345760008385830101525b9695505050505050565b6000806000606084860312156200035457600080fd5b83516001600160401b03808211156200036c57600080fd5b6200037a8783880162000287565b945060208601519150808211156200039157600080fd5b50620003a08682870162000287565b925050604084015160ff81168114620003b857600080fd5b809150509250925092565b600181811c90821680620003d857607f821691505b602082108103620003f957634e487b7160e01b600052602260045260246000fd5b50919050565b601f821115620001da57600081815260208120601f850160051c81016020861015620004285750805b601f850160051c820191505b81811015620004495782815560010162000434565b505050505050565b81516001600160401b038111156200046d576200046d62000271565b62000485816200047e8454620003c3565b84620003ff565b602080601f831160018114620004bd5760008415620004a45750858301515b600019600386901b1c1916600185901b17855562000449565b600085815260208120601f198616915b82811015620004ee57888601518255948401946001909101908401620004cd565b50858210156200050d5787850151600019600388901b60f8161c191681555b5050505050600190811b01905550565b612cfc806200052d6000396000f3fe6080604052600436106101b75760003560e01c80636352211e116100ec578063a647e8ec1161008a578063e345e0bc11610064578063e345e0bc1461048c578063e8a3d485146104ac578063e985e9c5146104c1578063f0e88e7f1461050e57600080fd5b8063a647e8ec14610439578063b88d4fde14610459578063c87b56dd1461046c57600080fd5b80638cb0a511116100c65780638cb0a511146103d157806395d89b41146103e45780639cc7f708146103f9578063a22cb4651461041957600080fd5b80636352211e1461037157806370a0823114610391578063840f7113146103b157600080fd5b806323b872dd11610159578063310ed7f011610133578063310ed7f0146103095780633e7e86691461031c57806342842e0e1461033e5780634f6ccce71461035157600080fd5b806323b872dd146102b6578063263f3e7e146102c95780632f745c59146102e957600080fd5b8063095ea7b311610195578063095ea7b31461024b57806309c3dd87146102605780630f485c021461028057806318160ddd146102a157600080fd5b806301ffc9a7146101bc57806306fdde03146101f1578063081812fc14610213575b600080fd5b3480156101c857600080fd5b506101dc6101d73660046124dc565b61052e565b60405190151581526020015b60405180910390f35b3480156101fd57600080fd5b506102066105d1565b6040516101e89190612551565b34801561021f57600080fd5b5061023361022e366004612564565b610663565b6040516001600160a01b0390911681526020016101e8565b61025e610259366004612594565b6106b5565b005b34801561026c57600080fd5b5061020661027b366004612564565b610743565b61029361028e3660046125be565b610835565b6040519081526020016101e8565b3480156102ad57600080fd5b50603854610293565b61025e6102c43660046125f3565b610877565b3480156102d557600080fd5b506102936102e4366004612564565b6108a8565b3480156102f557600080fd5b50610293610304366004612594565b6108f0565b61025e61031736600461261f565b610991565b34801561032857600080fd5b5060355460405160ff90911681526020016101e8565b61025e61034c3660046125f3565b6109a7565b34801561035d57600080fd5b5061029361036c366004612564565b6109c2565b34801561037d57600080fd5b5061023361038c366004612564565b610a53565b34801561039d57600080fd5b506102936103ac36600461264b565b610aef565b3480156103bd57600080fd5b50603b54610233906001600160a01b031681565b61025e6103df3660046125be565b610b77565b3480156103f057600080fd5b50610206610bfe565b34801561040557600080fd5b50610293610414366004612564565b610c0d565b34801561042557600080fd5b5061025e610434366004612674565b610c55565b34801561044557600080fd5b5061025e6104543660046126ab565b610c64565b61025e610467366004612753565b610c70565b34801561047857600080fd5b50610206610487366004612564565b610ca2565b34801561049857600080fd5b506102936104a73660046127fe565b610d41565b3480156104b857600080fd5b50610206610d75565b3480156104cd57600080fd5b506101dc6104dc36600461282a565b6001600160a01b039182166000908152603a602090815260408083209390941682526002909201909152205460ff1690565b34801561051a57600080fd5b5061025e610529366004612854565b610e6f565b60006001600160e01b031982166301ffc9a760e01b148061055f57506001600160e01b03198216630354d60560e61b145b8061057a57506001600160e01b031982166380ac58cd60e01b145b8061059557506001600160e01b031982166370b0048160e11b145b806105b057506001600160e01b0319821663780e9d6360e01b145b806105cb57506001600160e01b03198216635b5e139f60e01b145b92915050565b6060603380546105e090612876565b80601f016020809104026020016040519081016040528092919081815260200182805461060c90612876565b80156106595780601f1061062e57610100808354040283529160200191610659565b820191906000526020600020905b81548152906001019060200180831161063c57829003601f168201915b5050505050905090565b600061066e82610e88565b600082815260396020526040902054603880549091908110610692576106926128b0565b60009182526020909120600460069092020101546001600160a01b031692915050565b60006106c082610a53565b9050806001600160a01b0316836001600160a01b0316036106fc5760405162461bcd60e51b81526004016106f3906128c6565b60405180910390fd5b336001600160a01b0382161480610718575061071881336104dc565b6107345760405162461bcd60e51b81526004016106f390612908565b61073e8383610edc565b505050565b6060600061075c60408051602081019091526000815290565b603b549091506001600160a01b03166107bc57600081511161078d576040518060200160405280600081525061082e565b8061079784610f73565b6040516020016107a8929190612965565b60405160208183030381529060405261082e565b603b54604051633601bfc560e11b8152600481018590526001600160a01b0390911690636c037f8a906024015b600060405180830381865afa158015610806573d6000803e3d6000fd5b505050506040513d6000823e601f3d908101601f1916820160405261082e91908101906129a5565b9392505050565b6000610842338584611074565b600061084d85611104565b9050610864848261085d886108a8565b600061110e565b61086f858285611238565b949350505050565b61088133826114ea565b61089d5760405162461bcd60e51b81526004016106f390612a1c565b61073e838383611552565b60006108b382610e88565b6000828152603960205260409020546038805490919081106108d7576108d76128b0565b9060005260206000209060060201600101549050919050565b60006108fb83610aef565b82106109545760405162461bcd60e51b815260206004820152602260248201527f455243333532353a206f776e657220696e646578206f7574206f6620626f756e604482015261647360f01b60648201526084016106f3565b6001600160a01b0383166000908152603a6020526040902080548390811061097e5761097e6128b0565b9060005260206000200154905092915050565b61099c338483611074565b61073e838383611238565b61073e83838360405180602001604052806000815250610c70565b60006109cd60385490565b8210610a275760405162461bcd60e51b815260206004820152602360248201527f455243333532353a20676c6f62616c20696e646578206f7574206f6620626f756044820152626e647360e81b60648201526084016106f3565b60388281548110610a3a57610a3a6128b0565b9060005260206000209060060201600001549050919050565b6000610a5e82610e88565b600082815260396020526040902054603880549091908110610a8257610a826128b0565b60009182526020909120600360069092020101546001600160a01b0316905080610aea5760405162461bcd60e51b8152602060048201526019602482015278115490cccd4c8d4e881a5b9d985b1a59081d1bdad95b881251603a1b60448201526064016106f3565b919050565b60006001600160a01b038216610b5b5760405162461bcd60e51b815260206004820152602b60248201527f455243333532353a2062616c616e636520717565727920666f7220746865207a60448201526a65726f206164647265737360a81b60648201526084016106f3565b506001600160a01b03166000908152603a602052604090205490565b6000610b8284610a53565b9050806001600160a01b0316836001600160a01b031603610bb55760405162461bcd60e51b81526004016106f3906128c6565b336001600160a01b0382161480610bd15750610bd181336104dc565b610bed5760405162461bcd60e51b81526004016106f390612908565b610bf88484846116b3565b50505050565b6060603480546105e090612876565b6000610c1882610e88565b600082815260396020526040902054603880549091908110610c3c57610c3c6128b0565b9060005260206000209060060201600201549050919050565b610c603383836117eb565b5050565b610bf88484848461110e565b610c7a33836114ea565b610c965760405162461bcd60e51b81526004016106f390612a1c565b610bf8848484846118b5565b6060610cad82610e88565b6000610cc460408051602081019091526000815290565b603b549091506001600160a01b0316610d10576000815111610cf5576040518060200160405280600081525061082e565b80610cff84610f73565b6040516020016107a8929190612a6e565b603b546040516344a5a61760e11b8152600481018590526001600160a01b039091169063894b4c2e906024016107e9565b6000610d4c83610e88565b5060009182526037602090815260408084206001600160a01b0393909316845291905290205490565b60606000610d8e60408051602081019091526000815290565b603b549091506001600160a01b0316610dee576000815111610dbf5760405180602001604052806000815250610e69565b80610dc930611928565b604051602001610dda929190612a9d565b604051602081830303815290604052610e69565b603b60009054906101000a90046001600160a01b03166001600160a01b031663725fa09c6040518163ffffffff1660e01b8152600401600060405180830381865afa158015610e41573d6000803e3d6000fd5b505050506040513d6000823e601f3d908101601f19168201604052610e6991908101906129a5565b91505090565b610c60828261193e565b6001600160a01b03163b151590565b610e918161196b565b610ed95760405162461bcd60e51b8152602060048201526019602482015278115490cccd4c8d4e881a5b9d985b1a59081d1bdad95b881251603a1b60448201526064016106f3565b50565b600081815260396020526040902054603880548492908110610f0057610f006128b0565b6000918252602090912060069091020160040180546001600160a01b0319166001600160a01b0392831617905581908316610f3a82610a53565b6001600160a01b03167f8c5be1e5ebec7d5bd14f71427d1e84f3dd0314c0f7b2291e5b200ac8c7c3b92560405160405180910390a45050565b606081600003610f9a5750506040805180820190915260018152600360fc1b602082015290565b8160005b8115610fc45780610fae81612af7565b9150610fbd9050600a83612b26565b9150610f9e565b60008167ffffffffffffffff811115610fdf57610fdf6126e4565b6040519080825280601f01601f191660200182016040528015611009576020820181803683370190505b5090505b841561086f5761101e600183612b3a565b915061102b600a86612b51565b611036906030612b65565b60f81b81838151811061104b5761104b6128b0565b60200101906001600160f81b031916908160001a90535061106d600a86612b26565b945061100d565b60006110808385610d41565b905061108c84846114ea565b15801561109b57506000198114155b15610bf857818110156110f05760405162461bcd60e51b815260206004820152601f60248201527f455243333532353a20696e73756666696369656e7420616c6c6f77616e63650060448201526064016106f3565b610bf883856110ff8585612b3a565b6116b3565b60006105cb6119b7565b6001600160a01b03841661116e5760405162461bcd60e51b815260206004820152602160248201527f455243333532353a206d696e7420746f20746865207a65726f206164647265736044820152607360f81b60648201526084016106f3565b826000036111c85760405162461bcd60e51b815260206004820152602160248201527f455243333532353a2063616e6e6f74206d696e74207a65726f20746f6b656e496044820152601960fa1b60648201526084016106f3565b6111d18361196b565b1561121e5760405162461bcd60e51b815260206004820152601d60248201527f455243333532353a20746f6b656e20616c7265616479206d696e74656400000060448201526064016106f3565b6112298484846119ce565b6112338382611a94565b610bf8565b6112418361196b565b61129d5760405162461bcd60e51b815260206004820152602760248201527f455243333532353a207472616e736665722066726f6d20696e76616c696420746044820152661bdad95b88125160ca1b60648201526084016106f3565b6112a68261196b565b6113005760405162461bcd60e51b815260206004820152602560248201527f455243333532353a207472616e7366657220746f20696e76616c696420746f6b604482015264195b88125160da1b60648201526084016106f3565b600083815260396020526040812054603880549091908110611324576113246128b0565b906000526020600020906006020190506000603860396000868152602001908152602001600020548154811061135c5761135c6128b0565b9060005260206000209060060201905082826002015410156113d35760405162461bcd60e51b815260206004820152602a60248201527f455243333532353a20696e73756666696369656e742062616c616e636520666f60448201526939103a3930b739b332b960b11b60648201526084016106f3565b80600101548260010154146114415760405162461bcd60e51b815260206004820152602e60248201527f455243333532353a207472616e7366657220746f20746f6b656e20776974682060448201526d191a5999995c995b9d081cdb1bdd60921b60648201526084016106f3565b828260020160008282546114559190612b3a565b92505081905550828160020160008282546114709190612b65565b9091555050604051838152849086907f0b2aac84f3ec956911fd78eae5311062972ff949f38412e8da39069d9f068cc69060200160405180910390a36114c785858560405180602001604052806000815250611b19565b6114e35760405162461bcd60e51b81526004016106f390612b7d565b5050505050565b60006114f582610e88565b600061150083610a53565b9050806001600160a01b0316846001600160a01b03161480611527575061152781856104dc565b8061086f5750836001600160a01b031661154084610663565b6001600160a01b031614949350505050565b826001600160a01b031661156582610a53565b6001600160a01b0316146115c75760405162461bcd60e51b8152602060048201526024808201527f455243333532353a207472616e736665722066726f6d20696e76616c6964206f6044820152633bb732b960e11b60648201526084016106f3565b6001600160a01b03821661162b5760405162461bcd60e51b815260206004820152602560248201527f455243333532353a207472616e7366657220746f20746865207a65726f206164604482015264647265737360d81b60648201526084016106f3565b6000611636826108a8565b9050600061164383610c0d565b9050611650600084610edc565b61165983611c9d565b6116638584611d39565b61166d8484611e5a565b82846001600160a01b0316866001600160a01b03167fddf252ad1be2c89b69c2b068fc378daa952ba7f163c4a11628f55a4df523b3ef60405160405180910390a46114e3565b6001600160a01b03821661171c5760405162461bcd60e51b815260206004820152602a60248201527f455243333532353a20617070726f76652076616c756520746f20746865207a65604482015269726f206164647265737360b01b60648201526084016106f3565b6117268284611ee3565b61178c5760008381526039602052604090205460388054909190811061174e5761174e6128b0565b60009182526020808320600692909202909101600501805460018101825590835291200180546001600160a01b0319166001600160a01b0384161790555b60008381526037602090815260408083206001600160a01b038616808552908352928190208490555183815285917f621b050de0ad08b51d19b48b3e6df75348c4de6bdd93e81b252ca62e28265b1b91015b60405180910390a3505050565b816001600160a01b0316836001600160a01b03160361184c5760405162461bcd60e51b815260206004820152601a60248201527f455243333532353a20617070726f766520746f2063616c6c657200000000000060448201526064016106f3565b6001600160a01b038381166000818152603a602090815260408083209487168084526002909501825291829020805460ff191686151590811790915591519182527f17307eab39ab6107e8899845ad3d59bd9653f200f220920489ca2b5937696c3191016117de565b6118c0848484611552565b6118cc84848484611fb6565b610bf85760405162461bcd60e51b815260206004820152602760248201527f455243333532353a207472616e7366657220746f206e6f6e204552433732315260448201526632b1b2b4bb32b960c91b60648201526084016106f3565b60606105cb6001600160a01b0383166014612163565b61194782610e88565b600061195283610a53565b9050600061195f846108a8565b90506112338484611a94565b603854600090158015906105cb575060008281526039602052604090205460388054849290811061199e5761199e6128b0565b9060005260206000209060060201600001541492915050565b60006119c7603680546001019055565b5060365490565b6040805160c081018252838152602080820184905260008284018190526001600160a01b038716606084015260808301819052835181815291820190935260a08201529050611a1c816122ff565b611a268484611e5a565b60405183906001600160a01b038616906000907fddf252ad1be2c89b69c2b068fc378daa952ba7f163c4a11628f55a4df523b3ef908290a4816000847fe4f48c240d3b994948aa54f3e2f5fca59263dfe1d52b6e4cf39a5d249b5ccb6560405160405180910390a450505050565b600082815260396020526040902054603880548392908110611ab857611ab86128b0565b90600052602060002090600602016002016000828254611ad89190612b65565b909155505060405181815282906000907f0b2aac84f3ec956911fd78eae5311062972ff949f38412e8da39069d9f068cc69060200160405180910390a35050565b600080611b2585610a53565b90506001600160a01b0381163b15158015611ba957506040516301ffc9a760e01b8152629ce20b60e01b60048201526001600160a01b038216906301ffc9a790602401602060405180830381865afa158015611b85573d6000803e3d6000fd5b505050506040513d601f19601f82011682018060405250810190611ba99190612bc5565b15611c9357604051629ce20b60e01b81526001600160a01b03821690629ce20b90611be09033908a908a908a908a90600401612be2565b6020604051808303816000875af1925050508015611c1b575060408051601f3d908101601f19168201909252611c1891810190612c20565b60015b611c78573d808015611c49576040519150601f19603f3d011682016040523d82523d6000602084013e611c4e565b606091505b508051600003611c705760405162461bcd60e51b81526004016106f390612b7d565b805181602001fd5b6001600160e01b031916629ce20b60e01b14915061086f9050565b600191505061086f565b600081815260396020526040812054603880549091908110611cc157611cc16128b0565b600091825260208220600560069092020190810154909250905b81811015610bf8576000836005018281548110611cfa57611cfa6128b0565b60009182526020808320909101548783526037825260408084206001600160a01b03909216845291528120555080611d3181612af7565b915050611cdb565b600081815260396020526040812054603880549091908110611d5d57611d5d6128b0565b6000918252602080832060069290920290910160030180546001600160a01b0319166001600160a01b039485161790559184168152603a909152604081208054909190611dac90600190612b3a565b90506000826000018281548110611dc557611dc56128b0565b90600052602060002001549050600083600101600086815260200190815260200160002054905081846000018281548110611e0257611e026128b0565b60009182526020808320909101929092558381526001860190915260408082208390558682528120558354849080611e3c57611e3c612c3d565b60019003818190600052602060002001600090559055505050505050565b600081815260396020526040902054603880548492908110611e7e57611e7e6128b0565b6000918252602080832060069290920290910160030180546001600160a01b0319166001600160a01b03948516179055939091168152603a80845260408083208054858552600182810188529285208190559286529082018155825292902090910155565b600081815260396020526040812054603880548392908110611f0757611f076128b0565b6000918252602082206005600690920201015491505b81811015611fab57600084815260396020526040902054603880546001600160a01b03881692908110611f5257611f526128b0565b90600052602060002090600602016005018281548110611f7457611f746128b0565b6000918252602090912001546001600160a01b031603611f99576001925050506105cb565b80611fa381612af7565b915050611f1d565b506000949350505050565b60006001600160a01b0384163b1515801561203b57506040516301ffc9a760e01b8152630a85bd0160e11b60048201526001600160a01b038516906301ffc9a790602401602060405180830381865afa158015612017573d6000803e3d6000fd5b505050506040513d601f19601f8201168201806040525081019061203b9190612bc5565b1561215b57604051630a85bd0160e11b81526001600160a01b0385169063150b7a0290612072903390899088908890600401612c53565b6020604051808303816000875af19250505080156120ad575060408051601f3d908101601f191682019092526120aa91810190612c20565b60015b612141573d8080156120db576040519150601f19603f3d011682016040523d82523d6000602084013e6120e0565b606091505b508051600003611c705760405162461bcd60e51b815260206004820152602660248201527f4552433732313a207472616e7366657220746f206e6f6e20455243373231526560448201526531b2b4bb32b960d11b60648201526084016106f3565b6001600160e01b031916630a85bd0160e11b14905061086f565b50600161086f565b60606000612172836002612c90565b61217d906002612b65565b67ffffffffffffffff811115612195576121956126e4565b6040519080825280601f01601f1916602001820160405280156121bf576020820181803683370190505b509050600360fc1b816000815181106121da576121da6128b0565b60200101906001600160f81b031916908160001a905350600f60fb1b81600181518110612209576122096128b0565b60200101906001600160f81b031916908160001a905350600061222d846002612c90565b612238906001612b65565b90505b60018111156122b0576f181899199a1a9b1b9c1cb0b131b232b360811b85600f166010811061226c5761226c6128b0565b1a60f81b828281518110612282576122826128b0565b60200101906001600160f81b031916908160001a90535060049490941c936122a981612caf565b905061223b565b50831561082e5760405162461bcd60e51b815260206004820181905260248201527f537472696e67733a20686578206c656e67746820696e73756666696369656e7460448201526064016106f3565b603880548251600090815260396020908152604080832084905560018401855593909152835160069092027f38395c5dceade9603479b177b68959049485df8aa97b39f3533039af5f4561998101928355818501517f38395c5dceade9603479b177b68959049485df8aa97b39f3533039af5f45619a820155928401517f38395c5dceade9603479b177b68959049485df8aa97b39f3533039af5f45619b84015560608401517f38395c5dceade9603479b177b68959049485df8aa97b39f3533039af5f45619c840180546001600160a01b039283166001600160a01b03199182161790915560808601517f38395c5dceade9603479b177b68959049485df8aa97b39f3533039af5f45619d8601805491909316911617905560a084015180518594610bf8937f38395c5dceade9603479b177b68959049485df8aa97b39f3533039af5f45619e9091019201908280548282559060005260206000209081019282156124a1579160200282015b828111156124a157825182546001600160a01b0319166001600160a01b0390911617825560209092019160019091019061246c565b506124ad9291506124b1565b5090565b5b808211156124ad57600081556001016124b2565b6001600160e01b031981168114610ed957600080fd5b6000602082840312156124ee57600080fd5b813561082e816124c6565b60005b838110156125145781810151838201526020016124fc565b83811115610bf85750506000910152565b6000815180845261253d8160208601602086016124f9565b601f01601f19169290920160200192915050565b60208152600061082e6020830184612525565b60006020828403121561257657600080fd5b5035919050565b80356001600160a01b0381168114610aea57600080fd5b600080604083850312156125a757600080fd5b6125b08361257d565b946020939093013593505050565b6000806000606084860312156125d357600080fd5b833592506125e36020850161257d565b9150604084013590509250925092565b60008060006060848603121561260857600080fd5b6126118461257d565b92506125e36020850161257d565b60008060006060848603121561263457600080fd5b505081359360208301359350604090920135919050565b60006020828403121561265d57600080fd5b61082e8261257d565b8015158114610ed957600080fd5b6000806040838503121561268757600080fd5b6126908361257d565b915060208301356126a081612666565b809150509250929050565b600080600080608085870312156126c157600080fd5b6126ca8561257d565b966020860135965060408601359560600135945092505050565b634e487b7160e01b600052604160045260246000fd5b604051601f8201601f1916810167ffffffffffffffff81118282101715612723576127236126e4565b604052919050565b600067ffffffffffffffff821115612745576127456126e4565b50601f01601f191660200190565b6000806000806080858703121561276957600080fd5b6127728561257d565b93506127806020860161257d565b925060408501359150606085013567ffffffffffffffff8111156127a357600080fd5b8501601f810187136127b457600080fd5b80356127c76127c28261272b565b6126fa565b8181528860208385010111156127dc57600080fd5b8160208401602083013760006020838301015280935050505092959194509250565b6000806040838503121561281157600080fd5b823591506128216020840161257d565b90509250929050565b6000806040838503121561283d57600080fd5b6128468361257d565b91506128216020840161257d565b6000806040838503121561286757600080fd5b50508035926020909101359150565b600181811c9082168061288a57607f821691505b6020821081036128aa57634e487b7160e01b600052602260045260246000fd5b50919050565b634e487b7160e01b600052603260045260246000fd5b60208082526022908201527f455243333532353a20617070726f76616c20746f2063757272656e74206f776e60408201526132b960f11b606082015260800190565b60208082526039908201527f455243333532353a20617070726f76652063616c6c6572206973206e6f74206f60408201527f776e6572206e6f7220617070726f76656420666f7220616c6c00000000000000606082015260800190565b600083516129778184602088016124f9565b64736c6f742f60d81b90830190815283516129998160058401602088016124f9565b01600501949350505050565b6000602082840312156129b757600080fd5b815167ffffffffffffffff8111156129ce57600080fd5b8201601f810184136129df57600080fd5b80516129ed6127c28261272b565b818152856020838501011115612a0257600080fd5b612a138260208301602086016124f9565b95945050505050565b60208082526032908201527f455243333532353a207472616e736665722063616c6c6572206973206e6f74206040820152711bdddb995c881b9bdc88185c1c1c9bdd995960721b606082015260800190565b60008351612a808184602088016124f9565b835190830190612a948183602088016124f9565b01949350505050565b60008351612aaf8184602088016124f9565b68636f6e74726163742f60b81b9083019081528351612ad58160098401602088016124f9565b01600901949350505050565b634e487b7160e01b600052601160045260246000fd5b600060018201612b0957612b09612ae1565b5060010190565b634e487b7160e01b600052601260045260246000fd5b600082612b3557612b35612b10565b500490565b600082821015612b4c57612b4c612ae1565b500390565b600082612b6057612b60612b10565b500690565b60008219821115612b7857612b78612ae1565b500190565b60208082526028908201527f455243333532353a207472616e7366657220746f206e6f6e20455243333532356040820152672932b1b2b4bb32b960c11b606082015260800190565b600060208284031215612bd757600080fd5b815161082e81612666565b60018060a01b038616815284602082015283604082015282606082015260a060808201526000612c1560a0830184612525565b979650505050505050565b600060208284031215612c3257600080fd5b815161082e816124c6565b634e487b7160e01b600052603160045260246000fd5b6001600160a01b0385811682528416602082015260408101839052608060608201819052600090612c8690830184612525565b9695505050505050565b6000816000190483118215151615612caa57612caa612ae1565b500290565b600081612cbe57612cbe612ae1565b50600019019056fea2646970667358221220a969c15d6fb1b75299a15906e080aa67e9dd151a0c360eb92eb83a83dccb630764736f6c634300080f0033496e697469616c697a61626c653a20636f6e7472616374206973206e6f742069",
  "linkReferences": {},
  "deployedLinkReferences": {}
}