{
  "_format": "hh-sol-artifact-1",
  "contractName": "ERC3525AllRoundMock",
  "sourceName": "contracts/mocks/ERC3525AllRoundMock.sol",
  "abi": [
    {
      "inputs": [
        {
          "internalType": "string",
          "name": "name_",
          "type": "string"
        },
        {
          "internalType": "string",
          "name": "symbol_",
          "type": "string"
        },
        {
          "internalType": "uint8",
          "name": "decimals_",
          "type": "uint8"
        }
      ],
      "stateMutability": "nonpayable",
      "type": "constructor"
    },
    {
      "anonymous": false,
      "inputs": [
        {
          "indexed": true,
          "internalType": "address",
          "name": "_owner",
          "type": "address"
        },
        {
          "indexed": true,
          "internalType": "address",
          "name": "_approved",
          "type": "address"
        },
        {
          "indexed": true,
          "internalType": "uint256",
          "name": "_tokenId",
          "type": "uint256"
        }
      ],
      "name": "Approval",
      "type": "event"
    },
    {
      "anonymous": false,
      "inputs": [
        {
          "indexed": true,
          "internalType": "address",
          "name": "_owner",
          "type": "address"
        },
        {
          "indexed": true,
          "internalType": "address",
          "name": "_operator",
          "type": "address"
        },
        {
          "indexed": false,
          "internalType": "bool",
          "name": "_approved",
          "type": "bool"
        }
      ],
      "name": "ApprovalForAll",
      "type": "event"
    },
    {
      "anonymous": false,
      "inputs": [
        {
          "indexed": true,
          "internalType": "address",
          "name": "_owner",
          "type": "address"
        },
        {
          "indexed": true,
          "internalType": "uint256",
          "name": "_slot",
          "type": "uint256"
        },
        {
          "indexed": true,
          "internalType": "address",
          "name": "_operator",
          "type": "address"
        },
        {
          "indexed": false,
          "internalType": "bool",
          "name": "_approved",
          "type": "bool"
        }
      ],
      "name": "ApprovalForSlot",
      "type": "event"
    },
    {
      "anonymous": false,
      "inputs": [
        {
          "indexed": true,
          "internalType": "uint256",
          "name": "_tokenId",
          "type": "uint256"
        },
        {
          "indexed": true,
          "internalType": "address",
          "name": "_operator",
          "type": "address"
        },
        {
          "indexed": false,
          "internalType": "uint256",
          "name": "_value",
          "type": "uint256"
        }
      ],
      "name": "ApprovalValue",
      "type": "event"
    },
    {
      "anonymous": false,
      "inputs": [
        {
          "indexed": true,
          "internalType": "address",
          "name": "metadataDescriptor",
          "type": "address"
        }
      ],
      "name": "SetMetadataDescriptor",
      "type": "event"
    },
    {
      "anonymous": false,
      "inputs": [
        {
          "indexed": true,
          "internalType": "uint256",
          "name": "_tokenId",
          "type": "uint256"
        },
        {
          "indexed": true,
          "internalType": "uint256",
          "name": "_oldSlot",
          "type": "uint256"
        },
        {
          "indexed": true,
          "internalType": "uint256",
          "name": "_newSlot",
          "type": "uint256"
        }
      ],
      "name": "SlotChanged",
      "type": "event"
    },
    {
      "anonymous": false,
      "inputs": [
        {
          "indexed": true,
          "internalType": "address",
          "name": "_from",
          "type": "address"
        },
        {
          "indexed": true,
          "internalType": "address",
          "name": "_to",
          "type": "address"
        },
        {
          "indexed": true,
          "internalType": "uint256",
          "name": "_tokenId",
          "type": "uint256"
        }
      ],
      "name": "Transfer",
      "type": "event"
    },
    {
      "anonymous": false,
      "inputs": [
        {
          "indexed": true,
          "internalType": "uint256",
          "name": "_fromTokenId",
          "type": "uint256"
        },
        {
          "indexed": true,
          "internalType": "uint256",
          "name": "_toTokenId",
          "type": "uint256"
        },
        {
          "indexed": false,
          "internalType": "uint256",
          "name": "_value",
          "type": "uint256"
        }
      ],
      "name": "TransferValue",
      "type": "event"
    },
    {
      "inputs": [
        {
          "internalType": "uint256",
          "name": "tokenId_",
          "type": "uint256"
        },
        {
          "internalType": "address",
          "name": "operator_",
          "type": "address"
        }
      ],
      "name": "allowance",
      "outputs": [
        {
          "internalType": "uint256",
          "name": "",
          "type": "uint256"
        }
      ],
      "stateMutability": "view",
      "type": "function"
    },
    {
      "inputs": [
        {
          "internalType": "address",
          "name": "to_",
          "type": "address"
        },
        {
          "internalType": "uint256",
          "name": "tokenId_",
          "type": "uint256"
        }
      ],
      "name": "approve",
      "outputs": [],
      "stateMutability": "payable",
      "type": "function"
    },
    {
      "inputs": [
        {
          "internalType": "uint256",
          "name": "tokenId_",
          "type": "uint256"
        },
        {
          "internalType": "address",
          "name": "to_",
          "type": "address"
        },
        {
          "internalType": "uint256",
          "name": "value_",
          "type": "uint256"
        }
      ],
      "name": "approve",
      "outputs": [],
      "stateMutability": "payable",
      "type": "function"
    },
    {
      "inputs": [
        {
          "internalType": "address",
          "name": "owner_",
          "type": "address"
        }
      ],
      "name": "balanceOf",
      "outputs": [
        {
          "internalType": "uint256",
          "name": "balance",
          "type": "uint256"
        }
      ],
      "stateMutability": "view",
      "type": "function"
    },
    {
      "inputs": [
        {
          "internalType": "uint256",
          "name": "tokenId_",
          "type": "uint256"
        }
      ],
      "name": "balanceOf",
      "outputs": [
        {
          "internalType": "uint256",
          "name": "",
          "type": "uint256"
        }
      ],
      "stateMutability": "view",
      "type": "function"
    },
    {
      "inputs": [
        {
          "internalType": "uint256",
          "name": "tokenId_",
          "type": "uint256"
        }
      ],
      "name": "burn",
      "outputs": [],
      "stateMutability": "nonpayable",
      "type": "function"
    },
    {
      "inputs": [
        {
          "internalType": "uint256",
          "name": "tokenId_",
          "type": "uint256"
        },
        {
          "internalType": "uint256",
          "name": "burnValue_",
          "type": "uint256"
        }
      ],
      "name": "burnValue",
      "outputs": [],
      "stateMutability": "nonpayable",
      "type": "function"
    },
    {
      "inputs": [],
      "name": "contractURI",
      "outputs": [
        {
          "internalType": "string",
          "name": "",
          "type": "string"
        }
      ],
      "stateMutability": "view",
      "type": "function"
    },
    {
      "inputs": [
        {
          "internalType": "uint256",
          "name": "tokenId_",
          "type": "uint256"
        }
      ],
      "name": "getApproved",
      "outputs": [
        {
          "internalType": "address",
          "name": "",
          "type": "address"
        }
      ],
      "stateMutability": "view",
      "type": "function"
    },
    {
      "inputs": [
        {
          "internalType": "address",
          "name": "owner_",
          "type": "address"
        },
        {
          "internalType": "address",
          "name": "operator_",
          "type": "address"
        }
      ],
      "name": "isApprovedForAll",
      "outputs": [
        {
          "internalType": "bool",
          "name": "",
          "type": "bool"
        }
      ],
      "stateMutability": "view",
      "type": "function"
    },
    {
      "inputs": [
        {
          "internalType": "address",
          "name": "owner_",
          "type": "address"
        },
        {
          "internalType": "uint256",
          "name": "slot_",
          "type": "uint256"
        },
        {
          "internalType": "address",
          "name": "operator_",
          "type": "address"
        }
      ],
      "name": "isApprovedForSlot",
      "outputs": [
        {
          "internalType": "bool",
          "name": "",
          "type": "bool"
        }
      ],
      "stateMutability": "view",
      "type": "function"
    },
    {
      "inputs": [],
      "name": "metadataDescriptor",
      "outputs": [
        {
          "internalType": "contract IERC3525MetadataDescriptor",
          "name": "",
          "type": "address"
        }
      ],
      "stateMutability": "view",
      "type": "function"
    },
    {
      "inputs": [
        {
          "internalType": "address",
          "name": "mintTo_",
          "type": "address"
        },
        {
          "internalType": "uint256",
          "name": "tokenId_",
          "type": "uint256"
        },
        {
          "internalType": "uint256",
          "name": "slot_",
          "type": "uint256"
        },
        {
          "internalType": "uint256",
          "name": "value_",
          "type": "uint256"
        }
      ],
      "name": "mint",
      "outputs": [],
      "stateMutability": "nonpayable",
      "type": "function"
    },
    {
      "inputs": [
        {
          "internalType": "uint256",
          "name": "tokenId_",
          "type": "uint256"
        },
        {
          "internalType": "uint256",
          "name": "value_",
          "type": "uint256"
        }
      ],
      "name": "mintValue",
      "outputs": [],
      "stateMutability": "nonpayable",
      "type": "function"
    },
    {
      "inputs": [],
      "name": "name",
      "outputs": [
        {
          "internalType": "string",
          "name": "",
          "type": "string"
        }
      ],
      "stateMutability": "view",
      "type": "function"
    },
    {
      "inputs": [
        {
          "internalType": "uint256",
          "name": "tokenId_",
          "type": "uint256"
        }
      ],
      "name": "ownerOf",
      "outputs": [
        {
          "internalType": "address",
          "name": "owner_",
          "type": "address"
        }
      ],
      "stateMutability": "view",
      "type": "function"
    },
    {
      "inputs": [
        {
          "internalType": "address",
          "name": "from_",
          "type": "address"
        },
        {
          "internalType": "address",
          "name": "to_",
          "type": "address"
        },
        {
          "internalType": "uint256",
          "name": "tokenId_",
          "type": "uint256"
        }
      ],
      "name": "safeTransferFrom",
      "outputs": [],
      "stateMutability": "payable",
      "type": "function"
    },
    {
      "inputs": [
        {
          "internalType": "address",
          "name": "from_",
          "type": "address"
        },
        {
          "internalType": "address",
          "name": "to_",
          "type": "address"
        },
        {
          "internalType": "uint256",
          "name": "tokenId_",
          "type": "uint256"
        },
        {
          "internalType": "bytes",
          "name": "data_",
          "type": "bytes"
        }
      ],
      "name": "safeTransferFrom",
      "outputs": [],
      "stateMutability": "payable",
      "type": "function"
    },
    {
      "inputs": [
        {
          "internalType": "address",
          "name": "operator_",
          "type": "address"
        },
        {
          "internalType": "bool",
          "name": "approved_",
          "type": "bool"
        }
      ],
      "name": "setApprovalForAll",
      "outputs": [],
      "stateMutability": "nonpayable",
      "type": "function"
    },
    {
      "inputs": [
        {
          "internalType": "address",
          "name": "owner_",
          "type": "address"
        },
        {
          "internalType": "uint256",
          "name": "slot_",
          "type": "uint256"
        },
        {
          "internalType": "address",
          "name": "operator_",
          "type": "address"
        },
        {
          "internalType": "bool",
          "name": "approved_",
          "type": "bool"
        }
      ],
      "name": "setApprovalForSlot",
      "outputs": [],
      "stateMutability": "payable",
      "type": "function"
    },
    {
      "inputs": [
        {
          "internalType": "uint256",
          "name": "index_",
          "type": "uint256"
        }
      ],
      "name": "slotByIndex",
      "outputs": [
        {
          "internalType": "uint256",
          "name": "",
          "type": "uint256"
        }
      ],
      "stateMutability": "view",
      "type": "function"
    },
    {
      "inputs": [],
      "name": "slotCount",
      "outputs": [
        {
          "internalType": "uint256",
          "name": "",
          "type": "uint256"
        }
      ],
      "stateMutability": "view",
      "type": "function"
    },
    {
      "inputs": [
        {
          "internalType": "uint256",
          "name": "tokenId_",
          "type": "uint256"
        }
      ],
      "name": "slotOf",
      "outputs": [
        {
          "internalType": "uint256",
          "name": "",
          "type": "uint256"
        }
      ],
      "stateMutability": "view",
      "type": "function"
    },
    {
      "inputs": [
        {
          "internalType": "uint256",
          "name": "slot_",
          "type": "uint256"
        }
      ],
      "name": "slotURI",
      "outputs": [
        {
          "internalType": "string",
          "name": "",
          "type": "string"
        }
      ],
      "stateMutability": "view",
      "type": "function"
    },
    {
      "inputs": [
        {
          "internalType": "bytes4",
          "name": "interfaceId",
          "type": "bytes4"
        }
      ],
      "name": "supportsInterface",
      "outputs": [
        {
          "internalType": "bool",
          "name": "",
          "type": "bool"
        }
      ],
      "stateMutability": "view",
      "type": "function"
    },
    {
      "inputs": [],
      "name": "symbol",
      "outputs": [
        {
          "internalType": "string",
          "name": "",
          "type": "string"
        }
      ],
      "stateMutability": "view",
      "type": "function"
    },
    {
      "inputs": [
        {
          "internalType": "uint256",
          "name": "index_",
          "type": "uint256"
        }
      ],
      "name": "tokenByIndex",
      "outputs": [
        {
          "internalType": "uint256",
          "name": "",
          "type": "uint256"
        }
      ],
      "stateMutability": "view",
      "type": "function"
    },
    {
      "inputs": [
        {
          "internalType": "uint256",
          "name": "slot_",
          "type": "uint256"
        },
        {
          "internalType": "uint256",
          "name": "index_",
          "type": "uint256"
        }
      ],
      "name": "tokenInSlotByIndex",
      "outputs": [
        {
          "internalType": "uint256",
          "name": "",
          "type": "uint256"
        }
      ],
      "stateMutability": "view",
      "type": "function"
    },
    {
      "inputs": [
        {
          "internalType": "address",
          "name": "owner_",
          "type": "address"
        },
        {
          "internalType": "uint256",
          "name": "index_",
          "type": "uint256"
        }
      ],
      "name": "tokenOfOwnerByIndex",
      "outputs": [
        {
          "internalType": "uint256",
          "name": "",
          "type": "uint256"
        }
      ],
      "stateMutability": "view",
      "type": "function"
    },
    {
      "inputs": [
        {
          "internalType": "uint256",
          "name": "slot_",
          "type": "uint256"
        }
      ],
      "name": "tokenSupplyInSlot",
      "outputs": [
        {
          "internalType": "uint256",
          "name": "",
          "type": "uint256"
        }
      ],
      "stateMutability": "view",
      "type": "function"
    },
    {
      "inputs": [
        {
          "internalType": "uint256",
          "name": "tokenId_",
          "type": "uint256"
        }
      ],
      "name": "tokenURI",
      "outputs": [
        {
          "internalType": "string",
          "name": "",
          "type": "string"
        }
      ],
      "stateMutability": "view",
      "type": "function"
    },
    {
      "inputs": [],
      "name": "totalSupply",
      "outputs": [
        {
          "internalType": "uint256",
          "name": "",
          "type": "uint256"
        }
      ],
      "stateMutability": "view",
      "type": "function"
    },
    {
      "inputs": [
        {
          "internalType": "uint256",
          "name": "fromTokenId_",
          "type": "uint256"
        },
        {
          "internalType": "address",
          "name": "to_",
          "type": "address"
        },
        {
          "internalType": "uint256",
          "name": "value_",
          "type": "uint256"
        }
      ],
      "name": "transferFrom",
      "outputs": [
        {
          "internalType": "uint256",
          "name": "",
          "type": "uint256"
        }
      ],
      "stateMutability": "payable",
      "type": "function"
    },
    {
      "inputs": [
        {
          "internalType": "address",
          "name": "from_",
          "type": "address"
        },
        {
          "internalType": "address",
          "name": "to_",
          "type": "address"
        },
        {
          "internalType": "uint256",
          "name": "tokenId_",
          "type": "uint256"
        }
      ],
      "name": "transferFrom",
      "outputs": [],
      "stateMutability": "payable",
      "type": "function"
    },
    {
      "inputs": [
        {
          "internalType": "uint256",
          "name": "fromTokenId_",
          "type": "uint256"
        },
        {
          "internalType": "uint256",
          "name": "toTokenId_",
          "type": "uint256"
        },
        {
          "internalType": "uint256",
          "name": "value_",
          "type": "uint256"
        }
      ],
      "name": "transferFrom",
      "outputs": [],
      "stateMutability": "payable",
      "type": "function"
    },
    {
      "inputs": [],
      "name": "valueDecimals",
      "outputs": [
        {
          "internalType": "uint8",
          "name": "",
          "type": "uint8"
        }
      ],
      "stateMutability": "view",
      "type": "function"
    }
  ],
  "bytecode": "0x60806040523480156200001157600080fd5b50604051620040043803806200400483398101604081905262000034916200014e565b82828282828282828260006200004b848262000262565b5060016200005a838262000262565b506002805460ff191660ff92909216919091179055506200032e9950505050505050505050565b634e487b7160e01b600052604160045260246000fd5b600082601f830112620000a957600080fd5b81516001600160401b0380821115620000c657620000c662000081565b604051601f8301601f19908116603f01168101908282118183101715620000f157620000f162000081565b816040528381526020925086838588010111156200010e57600080fd5b600091505b8382101562000132578582018301518183018401529082019062000113565b83821115620001445760008385830101525b9695505050505050565b6000806000606084860312156200016457600080fd5b83516001600160401b03808211156200017c57600080fd5b6200018a8783880162000097565b94506020860151915080821115620001a157600080fd5b50620001b08682870162000097565b925050604084015160ff81168114620001c857600080fd5b809150509250925092565b600181811c90821680620001e857607f821691505b6020821081036200020957634e487b7160e01b600052602260045260246000fd5b50919050565b601f8211156200025d57600081815260208120601f850160051c81016020861015620002385750805b601f850160051c820191505b81811015620002595782815560010162000244565b5050505b505050565b81516001600160401b038111156200027e576200027e62000081565b62000296816200028f8454620001d3565b846200020f565b602080601f831160018114620002ce5760008415620002b55750858301515b600019600386901b1c1916600185901b17855562000259565b600085815260208120601f198616915b82811015620002ff57888601518255948401946001909101908401620002de565b50858210156200031e5787850151600019600388901b60f8161c191681555b5050505050600190811b01905550565b613cc6806200033e6000396000f3fe60806040526004361061020e5760003560e01c80636352211e11610118578063a647e8ec116100a0578063e345f05e1161006f578063e345f05e146105b6578063e8a3d48514610607578063e985e9c51461061c578063ed08fa8014610669578063f0e88e7f1461067e57600080fd5b8063a647e8ec14610543578063b88d4fde14610563578063c87b56dd14610576578063e345e0bc1461059657600080fd5b80638cb0a511116100e75780638cb0a511146104bb57806395d89b41146104ce578063993bef8d146104e35780639cc7f70814610503578063a22cb4651461052357600080fd5b80636352211e1461043b57806370a082311461045b578063840f71131461047b57806387fe86111461049b57600080fd5b8063263f3e7e1161019b57806342842e0e1161016a57806342842e0e146103b557806342966c68146103c85780634f6ccce7146103e85780634f8a0f831461040857806355cd4e061461042857600080fd5b8063263f3e7e146103405780632f745c5914610360578063310ed7f0146103805780633e7e86691461039357600080fd5b8063095ea7b3116101e2578063095ea7b3146102d057806309c3dd87146102e55780630f485c021461030557806318160ddd1461031857806323b872dd1461032d57600080fd5b8062cd01101461021357806301ffc9a71461024657806306fdde0314610276578063081812fc14610298575b600080fd5b34801561021f57600080fd5b5061023361022e36600461339f565b61069e565b6040519081526020015b60405180910390f35b34801561025257600080fd5b506102666102613660046133d7565b610774565b604051901515815260200161023d565b34801561028257600080fd5b5061028b610799565b60405161023d919061344c565b3480156102a457600080fd5b506102b86102b336600461345f565b61082b565b6040516001600160a01b03909116815260200161023d565b6102e36102de36600461348f565b61087d565b005b3480156102f157600080fd5b5061028b61030036600461345f565b610921565b6102336103133660046134b9565b610a13565b34801561032457600080fd5b50600554610233565b6102e361033b3660046134ee565b610a55565b34801561034c57600080fd5b5061023361035b36600461345f565b610a8c565b34801561036c57600080fd5b5061023361037b36600461348f565b610ad4565b6102e361038e36600461351a565b610b62565b34801561039f57600080fd5b5060025460405160ff909116815260200161023d565b6102e36103c33660046134ee565b610b78565b3480156103d457600080fd5b506102e36103e336600461345f565b610b93565b3480156103f457600080fd5b5061023361040336600461345f565b610bc4565b34801561041457600080fd5b5061023361042336600461345f565b610c55565b6102e3610436366004613554565b610caa565b34801561044757600080fd5b506102b861045636600461345f565b610d44565b34801561046757600080fd5b506102336104763660046135a3565b610de0565b34801561048757600080fd5b506008546102b8906001600160a01b031681565b3480156104a757600080fd5b506102e36104b636600461339f565b610e68565b6102e36104c93660046134b9565b610e9d565b3480156104da57600080fd5b5061028b610f43565b3480156104ef57600080fd5b506102336104fe36600461345f565b610f52565b34801561050f57600080fd5b5061023361051e36600461345f565b610fef565b34801561052f57600080fd5b506102e361053e3660046135be565b611037565b34801561054f57600080fd5b506102e361055e3660046135f5565b611042565b6102e361057136600461369d565b61104e565b34801561058257600080fd5b5061028b61059136600461345f565b61107f565b3480156105a257600080fd5b506102336105b1366004613748565b61111e565b3480156105c257600080fd5b506102666105d1366004613774565b6001600160a01b039283166000908152600c60209081526040808320948352938152838220929094168152925290205460ff1690565b34801561061357600080fd5b5061028b611152565b34801561062857600080fd5b506102666106373660046137b0565b6001600160a01b0391821660009081526007602090815260408083209390941682526002909201909152205460ff1690565b34801561067557600080fd5b50600a54610233565b34801561068a57600080fd5b506102e361069936600461339f565b61124c565b60006106a983610c55565b821061071a5760405162461bcd60e51b815260206004820152603560248201527f45524333353235536c6f74456e756d657261626c653a20736c6f7420746f6b656044820152746e20696e646578206f7574206f6620626f756e647360581b60648201526084015b60405180910390fd5b6000838152600b6020526040902054600a8054909190811061073e5761073e6137da565b90600052602060002090600202016001018281548110610760576107606137da565b906000526020600020015490505b92915050565b60006001600160e01b031982166316d117cb60e31b148061076e575061076e82611256565b6060600080546107a8906137f0565b80601f01602080910402602001604051908101604052809291908181526020018280546107d4906137f0565b80156108215780601f106107f657610100808354040283529160200191610821565b820191906000526020600020905b81548152906001019060200180831161080457829003601f168201915b5050505050905090565b60006108368261127b565b60008281526006602052604090205460058054909190811061085a5761085a6137da565b60009182526020909120600460069092020101546001600160a01b031692915050565b600061088882610d44565b9050600061089583610a8c565b9050816001600160a01b0316846001600160a01b0316036108c85760405162461bcd60e51b81526004016107119061382a565b336001600160a01b03831614806108e457506108e48233610637565b806108f557506108f58282336105d1565b6109115760405162461bcd60e51b81526004016107119061386c565b61091b84846112cc565b50505050565b6060600061093a60408051602081019091526000815290565b6008549091506001600160a01b031661099a57600081511161096b5760405180602001604052806000815250610a0c565b8061097584611363565b6040516020016109869291906138c9565b604051602081830303815290604052610a0c565b600854604051633601bfc560e11b8152600481018590526001600160a01b0390911690636c037f8a906024015b600060405180830381865afa1580156109e4573d6000803e3d6000fd5b505050506040513d6000823e601f3d908101601f19168201604052610a0c9190810190613909565b9392505050565b6000610a20338584611464565b6000610a2b856114f4565b9050610a428482610a3b88610a8c565b60006114fe565b610a4d858285611643565b949350505050565b610a60335b82611932565b610a7c5760405162461bcd60e51b815260040161071190613977565b610a878383836119ba565b505050565b6000610a978261127b565b600082815260066020526040902054600580549091908110610abb57610abb6137da565b9060005260206000209060060201600101549050919050565b6000610adf83610de0565b8210610b385760405162461bcd60e51b815260206004820152602260248201527f455243333532353a206f776e657220696e646578206f7574206f6620626f756e604482015261647360f01b6064820152608401610711565b6001600160a01b0383166000908152600760205260409020805483908110610760576107606137da565b610b6d338483611464565b610a87838383611643565b610a878383836040518060200160405280600081525061104e565b610b9c33610a5a565b610bb85760405162461bcd60e51b8152600401610711906139c9565b610bc181611b32565b50565b6000610bcf60055490565b8210610c295760405162461bcd60e51b815260206004820152602360248201527f455243333532353a20676c6f62616c20696e646578206f7574206f6620626f756044820152626e647360e81b6064820152608401610711565b60058281548110610c3c57610c3c6137da565b9060005260206000209060060201600001549050919050565b6000610c6082611c5d565b610c6c57506000919050565b6000828152600b6020526040902054600a80549091908110610c9057610c906137da565b600091825260209091206001600290920201015492915050565b336001600160a01b0385161480610cc65750610cc68433610637565b610d385760405162461bcd60e51b815260206004820152603f60248201527f45524333353235536c6f74417070726f7661626c653a2063616c6c657220697360448201527f206e6f74206f776e6572206e6f7220617070726f76656420666f7220616c6c006064820152608401610711565b61091b84848484611ca9565b6000610d4f8261127b565b600082815260066020526040902054600580549091908110610d7357610d736137da565b60009182526020909120600360069092020101546001600160a01b0316905080610ddb5760405162461bcd60e51b8152602060048201526019602482015278115490cccd4c8d4e881a5b9d985b1a59081d1bdad95b881251603a1b6044820152606401610711565b919050565b60006001600160a01b038216610e4c5760405162461bcd60e51b815260206004820152602b60248201527f455243333532353a2062616c616e636520717565727920666f7220746865207a60448201526a65726f206164647265737360a81b6064820152608401610711565b506001600160a01b031660009081526007602052604090205490565b610e73335b83611932565b610e8f5760405162461bcd60e51b8152600401610711906139c9565b610e998282611d93565b5050565b6000610ea884610d44565b90506000610eb585610a8c565b9050816001600160a01b0316846001600160a01b031603610ee85760405162461bcd60e51b81526004016107119061382a565b336001600160a01b0383161480610f045750610f048233610637565b80610f155750610f158282336105d1565b610f315760405162461bcd60e51b81526004016107119061386c565b610f3c858585611eb1565b5050505050565b6060600180546107a8906137f0565b6000610f5d600a5490565b8210610fc35760405162461bcd60e51b815260206004820152602f60248201527f45524333353235536c6f74456e756d657261626c653a20736c6f7420696e646560448201526e78206f7574206f6620626f756e647360881b6064820152608401610711565b600a8281548110610fd657610fd66137da565b9060005260206000209060020201600001549050919050565b6000610ffa8261127b565b60008281526006602052604090205460058054909190811061101e5761101e6137da565b9060005260206000209060060201600201549050919050565b610e99338383611fe9565b61091b848484846114fe565b61105733610e6d565b6110735760405162461bcd60e51b815260040161071190613977565b61091b848484846120b3565b606061108a8261127b565b60006110a160408051602081019091526000815290565b6008549091506001600160a01b03166110ed5760008151116110d25760405180602001604052806000815250610a0c565b806110dc84611363565b604051602001610986929190613a18565b6008546040516344a5a61760e11b8152600481018590526001600160a01b039091169063894b4c2e906024016109c7565b60006111298361127b565b5060009182526004602090815260408084206001600160a01b0393909316845291905290205490565b6060600061116b60408051602081019091526000815290565b6008549091506001600160a01b03166111cb57600081511161119c5760405180602001604052806000815250611246565b806111a630612126565b6040516020016111b7929190613a47565b604051602081830303815290604052611246565b600860009054906101000a90046001600160a01b03166001600160a01b031663725fa09c6040518163ffffffff1660e01b8152600401600060405180830381865afa15801561121e573d6000803e3d6000fd5b505050506040513d6000823e601f3d908101601f191682016040526112469190810190613909565b91505090565b610e99828261213c565b60006001600160e01b03198216631dba0dcf60e11b148061076e575061076e82612189565b6112848161222b565b610bc15760405162461bcd60e51b8152602060048201526019602482015278115490cccd4c8d4e881a5b9d985b1a59081d1bdad95b881251603a1b6044820152606401610711565b6000818152600660205260409020546005805484929081106112f0576112f06137da565b6000918252602090912060069091020160040180546001600160a01b0319166001600160a01b039283161790558190831661132a82610d44565b6001600160a01b03167f8c5be1e5ebec7d5bd14f71427d1e84f3dd0314c0f7b2291e5b200ac8c7c3b92560405160405180910390a45050565b60608160000361138a5750506040805180820190915260018152600360fc1b602082015290565b8160005b81156113b4578061139e81613aa1565b91506113ad9050600a83613ad0565b915061138e565b60008167ffffffffffffffff8111156113cf576113cf61362e565b6040519080825280601f01601f1916602001820160405280156113f9576020820181803683370190505b5090505b8415610a4d5761140e600183613ae4565b915061141b600a86613afb565b611426906030613b0f565b60f81b81838151811061143b5761143b6137da565b60200101906001600160f81b031916908160001a90535061145d600a86613ad0565b94506113fd565b6000611470838561111e565b905061147c8484611932565b15801561148b57506000198114155b1561091b57818110156114e05760405162461bcd60e51b815260206004820152601f60248201527f455243333532353a20696e73756666696369656e7420616c6c6f77616e6365006044820152606401610711565b61091b83856114ef8585613ae4565b611eb1565b600061076e612277565b6001600160a01b03841661155e5760405162461bcd60e51b815260206004820152602160248201527f455243333532353a206d696e7420746f20746865207a65726f206164647265736044820152607360f81b6064820152608401610711565b826000036115b85760405162461bcd60e51b815260206004820152602160248201527f455243333532353a2063616e6e6f74206d696e74207a65726f20746f6b656e496044820152601960fa1b6064820152608401610711565b6115c18361222b565b1561160e5760405162461bcd60e51b815260206004820152601d60248201527f455243333532353a20746f6b656e20616c7265616479206d696e7465640000006044820152606401610711565b61161e600085600086868661228e565b6116298484846122c3565b6116338382612389565b61091b60008560008686866123fc565b61164c8361222b565b6116a85760405162461bcd60e51b815260206004820152602760248201527f455243333532353a207472616e736665722066726f6d20696e76616c696420746044820152661bdad95b88125160ca1b6064820152608401610711565b6116b18261222b565b61170b5760405162461bcd60e51b815260206004820152602560248201527f455243333532353a207472616e7366657220746f20696e76616c696420746f6b604482015264195b88125160da1b6064820152608401610711565b60008381526006602052604081205460058054909190811061172f5761172f6137da565b9060005260206000209060060201905060006005600660008681526020019081526020016000205481548110611767576117676137da565b9060005260206000209060060201905082826002015410156117de5760405162461bcd60e51b815260206004820152602a60248201527f455243333532353a20696e73756666696369656e742062616c616e636520666f60448201526939103a3930b739b332b960b11b6064820152608401610711565b806001015482600101541461184c5760405162461bcd60e51b815260206004820152602e60248201527f455243333532353a207472616e7366657220746f20746f6b656e20776974682060448201526d191a5999995c995b9d081cdb1bdd60921b6064820152608401610711565b600380830154908201546001840154611877926001600160a01b03908116921690889088908861228e565b8282600201600082825461188b9190613ae4565b92505081905550828160020160008282546118a69190613b0f565b909155505060405183815284908690600080516020613c718339815191529060200160405180910390a36003808301549082015460018401546118fb926001600160a01b0390811692169088908890886123fc565b6119168585856040518060200160405280600081525061246d565b610f3c5760405162461bcd60e51b815260040161071190613b27565b600061193d8261127b565b600061194883610d44565b9050600061195584610a8c565b9050816001600160a01b0316856001600160a01b031614806119905750846001600160a01b03166119858561082b565b6001600160a01b0316145b806119a057506119a08286610637565b806119b157506119b18282876105d1565b95945050505050565b826001600160a01b03166119cd82610d44565b6001600160a01b031614611a2f5760405162461bcd60e51b8152602060048201526024808201527f455243333532353a207472616e736665722066726f6d20696e76616c6964206f6044820152633bb732b960e11b6064820152608401610711565b6001600160a01b038216611a935760405162461bcd60e51b815260206004820152602560248201527f455243333532353a207472616e7366657220746f20746865207a65726f206164604482015264647265737360d81b6064820152608401610711565b6000611a9e82610a8c565b90506000611aab83610fef565b9050611abb85858586868661228e565b611ac66000846112cc565b611acf836125f1565b611ad9858461268d565b611ae384846127ae565b82846001600160a01b0316866001600160a01b03167fddf252ad1be2c89b69c2b068fc378daa952ba7f163c4a11628f55a4df523b3ef60405160405180910390a4610f3c8585858686866123fc565b611b3b8161127b565b600081815260066020526040812054600580549091908110611b5f57611b5f6137da565b600091825260208220600360069092020190810154600182015460028301549294506001600160a01b0390911692909190611b9f9084908781868661228e565b611ba8856125f1565b611bb2838661268d565b611bbb85612837565b600085600080516020613c7183398151915283604051611bdd91815260200190565b60405180910390a3600082867fe4f48c240d3b994948aa54f3e2f5fca59263dfe1d52b6e4cf39a5d249b5ccb6560405160405180910390a460405185906000906001600160a01b038616907fddf252ad1be2c89b69c2b068fc378daa952ba7f163c4a11628f55a4df523b3ef908390a4610f3c83600087600086866123fc565b600a546000901580159061076e57506000828152600b6020526040902054600a80548492908110611c9057611c906137da565b9060005260206000209060020201600001541492915050565b816001600160a01b0316846001600160a01b031603611d1a5760405162461bcd60e51b815260206004820152602760248201527f45524333353235536c6f74417070726f7661626c653a20617070726f76652074604482015266379037bbb732b960c91b6064820152608401610711565b6001600160a01b038481166000818152600c60209081526040808320888452825280832094871680845294825291829020805460ff191686151590811790915591519182528692917f7bdf71e6625aa496095bf08b60c677cf81c963f402cf258981e3bd7507d3480c910160405180910390a450505050565b611d9c8261127b565b600082815260066020526040812054600580549091908110611dc057611dc06137da565b600091825260209091206006909102016003810154600182015460028301549293506001600160a01b039091169184811015611e4a5760405162461bcd60e51b815260206004820152602360248201527f455243333532353a206275726e2076616c756520657863656564732062616c616044820152626e636560e81b6064820152608401610711565b611e5a836000886000868a61228e565b84846002016000828254611e6e9190613ae4565b90915550506040518581526000908790600080516020613c718339815191529060200160405180910390a3611ea9836000886000868a6123fc565b505050505050565b6001600160a01b038216611f1a5760405162461bcd60e51b815260206004820152602a60248201527f455243333532353a20617070726f76652076616c756520746f20746865207a65604482015269726f206164647265737360b01b6064820152608401610711565b611f248284612a45565b611f8a57600083815260066020526040902054600580549091908110611f4c57611f4c6137da565b60009182526020808320600692909202909101600501805460018101825590835291200180546001600160a01b0319166001600160a01b0384161790555b60008381526004602090815260408083206001600160a01b038616808552908352928190208490555183815285917f621b050de0ad08b51d19b48b3e6df75348c4de6bdd93e81b252ca62e28265b1b91015b60405180910390a3505050565b816001600160a01b0316836001600160a01b03160361204a5760405162461bcd60e51b815260206004820152601a60248201527f455243333532353a20617070726f766520746f2063616c6c65720000000000006044820152606401610711565b6001600160a01b0383811660008181526007602090815260408083209487168084526002909501825291829020805460ff191686151590811790915591519182527f17307eab39ab6107e8899845ad3d59bd9653f200f220920489ca2b5937696c319101611fdc565b6120be8484846119ba565b6120ca84848484612b18565b61091b5760405162461bcd60e51b815260206004820152602760248201527f455243333532353a207472616e7366657220746f206e6f6e204552433732315260448201526632b1b2b4bb32b960c91b6064820152608401610711565b606061076e6001600160a01b0383166014612cc5565b6121458261127b565b600061215083610d44565b9050600061215d84610a8c565b905061216f600083600087858861228e565b6121798484612389565b61091b60008360008785886123fc565b60006001600160e01b031982166301ffc9a760e01b14806121ba57506001600160e01b03198216630354d60560e61b145b806121d557506001600160e01b031982166380ac58cd60e01b145b806121f057506001600160e01b031982166370b0048160e11b145b8061220b57506001600160e01b0319821663780e9d6360e01b145b8061076e57506001600160e01b03198216635b5e139f60e01b1492915050565b6005546000901580159061076e575060008281526006602052604090205460058054849290811061225e5761225e6137da565b9060005260206000209060060201600001541492915050565b6000612287600380546001019055565b5060035490565b6001600160a01b0386161580156122a3575083155b80156122b557506122b382611c5d565b155b15611ea957611ea982612e61565b6040805160c081018252838152602080820184905260008284018190526001600160a01b038716606084015260808301819052835181815291820190935260a0820152905061231181612f28565b61231b84846127ae565b60405183906001600160a01b038616906000907fddf252ad1be2c89b69c2b068fc378daa952ba7f163c4a11628f55a4df523b3ef908290a4816000847fe4f48c240d3b994948aa54f3e2f5fca59263dfe1d52b6e4cf39a5d249b5ccb6560405160405180910390a450505050565b6000828152600660205260409020546005805483929081106123ad576123ad6137da565b906000526020600020906006020160020160008282546123cd9190613b0f565b90915550506040518181528290600090600080516020613c718339815191529060200160405180910390a35050565b6001600160a01b038616158015612411575083155b801561242457506124228284613077565b155b15612438576124338284613102565b611ea9565b6001600160a01b03851615801561244d575082155b801561245e575061245e8285613077565b15612433576124338285613163565b60008061247985610d44565b90506001600160a01b0381163b151580156124fd57506040516301ffc9a760e01b8152629ce20b60e01b60048201526001600160a01b038216906301ffc9a790602401602060405180830381865afa1580156124d9573d6000803e3d6000fd5b505050506040513d601f19601f820116820180604052508101906124fd9190613b6f565b156125e757604051629ce20b60e01b81526001600160a01b03821690629ce20b906125349033908a908a908a908a90600401613b8c565b6020604051808303816000875af192505050801561256f575060408051601f3d908101601f1916820190925261256c91810190613bca565b60015b6125cc573d80801561259d576040519150601f19603f3d011682016040523d82523d6000602084013e6125a2565b606091505b5080516000036125c45760405162461bcd60e51b815260040161071190613b27565b805181602001fd5b6001600160e01b031916629ce20b60e01b149150610a4d9050565b6001915050610a4d565b600081815260066020526040812054600580549091908110612615576126156137da565b600091825260208220600560069092020190810154909250905b8181101561091b57600083600501828154811061264e5761264e6137da565b60009182526020808320909101548783526004825260408084206001600160a01b0390921684529152812055508061268581613aa1565b91505061262f565b6000818152600660205260408120546005805490919081106126b1576126b16137da565b6000918252602080832060069290920290910160030180546001600160a01b0319166001600160a01b039485161790559184168152600790915260408120805490919061270090600190613ae4565b90506000826000018281548110612719576127196137da565b90600052602060002001549050600083600101600086815260200190815260200160002054905081846000018281548110612756576127566137da565b6000918252602080832090910192909255838152600186019091526040808220839055868252812055835484908061279057612790613be7565b60019003818190600052602060002001600090559055505050505050565b6000818152600660205260409020546005805484929081106127d2576127d26137da565b6000918252602080832060069290920290910160030180546001600160a01b0319166001600160a01b03948516179055939091168152600780845260408083208054858552600182810188529285208190559286529082018155825292902090910155565b60055460009061284990600190613ae4565b60008381526006602052604081205460058054939450909284908110612871576128716137da565b60009182526020918290206040805160c08101825260069093029091018054835260018101548385015260028101548383015260038101546001600160a01b03908116606085015260048201541660808401526005810180548351818702810187019094528084529394919360a08601939283018282801561291c57602002820191906000526020600020905b81546001600160a01b031681526001909101906020018083116128fe575b5050505050815250509050806005838154811061293b5761293b6137da565b600091825260209182902083516006909202019081558282015160018201556040830151600282015560608301516003820180546001600160a01b039283166001600160a01b031991821617909155608085015160048401805491909316911617905560a0830151805191926129b9926005850192909101906132cc565b505081516000908152600660205260408082208590558682528120555060058054806129e7576129e7613be7565b60008281526020812060066000199093019283020181815560018101829055600281018290556003810180546001600160a01b0319908116909155600482018054909116905590612a3b6005830182613331565b5050905550505050565b600081815260066020526040812054600580548392908110612a6957612a696137da565b6000918252602082206005600690920201015491505b81811015612b0d57600084815260066020526040902054600580546001600160a01b03881692908110612ab457612ab46137da565b90600052602060002090600602016005018281548110612ad657612ad66137da565b6000918252602090912001546001600160a01b031603612afb5760019250505061076e565b80612b0581613aa1565b915050612a7f565b506000949350505050565b60006001600160a01b0384163b15158015612b9d57506040516301ffc9a760e01b8152630a85bd0160e11b60048201526001600160a01b038516906301ffc9a790602401602060405180830381865afa158015612b79573d6000803e3d6000fd5b505050506040513d601f19601f82011682018060405250810190612b9d9190613b6f565b15612cbd57604051630a85bd0160e11b81526001600160a01b0385169063150b7a0290612bd4903390899088908890600401613bfd565b6020604051808303816000875af1925050508015612c0f575060408051601f3d908101601f19168201909252612c0c91810190613bca565b60015b612ca3573d808015612c3d576040519150601f19603f3d011682016040523d82523d6000602084013e612c42565b606091505b5080516000036125c45760405162461bcd60e51b815260206004820152602660248201527f4552433732313a207472616e7366657220746f206e6f6e20455243373231526560448201526531b2b4bb32b960d11b6064820152608401610711565b6001600160e01b031916630a85bd0160e11b149050610a4d565b506001610a4d565b60606000612cd4836002613c3a565b612cdf906002613b0f565b67ffffffffffffffff811115612cf757612cf761362e565b6040519080825280601f01601f191660200182016040528015612d21576020820181803683370190505b509050600360fc1b81600081518110612d3c57612d3c6137da565b60200101906001600160f81b031916908160001a905350600f60fb1b81600181518110612d6b57612d6b6137da565b60200101906001600160f81b031916908160001a9053506000612d8f846002613c3a565b612d9a906001613b0f565b90505b6001811115612e12576f181899199a1a9b1b9c1cb0b131b232b360811b85600f1660108110612dce57612dce6137da565b1a60f81b828281518110612de457612de46137da565b60200101906001600160f81b031916908160001a90535060049490941c93612e0b81613c59565b9050612d9d565b508315610a0c5760405162461bcd60e51b815260206004820181905260248201527f537472696e67733a20686578206c656e67746820696e73756666696369656e746044820152606401610711565b612e6a81611c5d565b15612eca5760405162461bcd60e51b815260206004820152602a60248201527f45524333353235536c6f74456e756d657261626c653a20736c6f7420616c72656044820152696164792065786973747360b01b6064820152608401610711565b604080518082018252828152815160008082526020828101909452928201529050612ef481613247565b816000807fe4f48c240d3b994948aa54f3e2f5fca59263dfe1d52b6e4cf39a5d249b5ccb6560405160405180910390a45050565b600580548251600090815260066020818152604080842085905560018501865594909252845192027f036b6384b5eca791c62761152d0c79bb0604c104a5fb6f4eb0703f3154bb3db08101928355818501517f036b6384b5eca791c62761152d0c79bb0604c104a5fb6f4eb0703f3154bb3db1820155928401517f036b6384b5eca791c62761152d0c79bb0604c104a5fb6f4eb0703f3154bb3db284015560608401517f036b6384b5eca791c62761152d0c79bb0604c104a5fb6f4eb0703f3154bb3db3840180546001600160a01b039283166001600160a01b03199182161790915560808601517f036b6384b5eca791c62761152d0c79bb0604c104a5fb6f4eb0703f3154bb3db48601805491909316911617905560a08401518051859461091b937f036b6384b5eca791c62761152d0c79bb0604c104a5fb6f4eb0703f3154bb3db59091019201906132cc565b6000828152600b6020526040812054600a8054839290811061309b5761309b6137da565b9060005260206000209060020201905060008160010180549050118015610a4d5750600084815260096020908152604080832086845290915290205460018201805485929081106130ee576130ee6137da565b906000526020600020015414949350505050565b6000828152600b6020526040812054600a80549091908110613126576131266137da565b6000918252602080832060016002909302018201805496845260098252604080852087865283528420879055918601825590825290209092015550565b6000828152600b6020526040812054600a80549091908110613187576131876137da565b6000918252602082206001600290920201818101549093506131a99190613ae4565b905060008260010182815481106131c2576131c26137da565b6000918252602080832090910154878352600982526040808420888552909252912054600185018054929350909183919083908110613203576132036137da565b600091825260208083209190910192909255878152600982526040808220858352909252818120839055868152908120556001840180548061279057612790613be7565b600a805482516000908152600b602090815260408220839055600183018455929052825160029091027fc65a7bb8d6351c1cf70c95a316cc6a92839c986682d98bc35f958f4883f9d2a88101918255828401518051859461091b937fc65a7bb8d6351c1cf70c95a316cc6a92839c986682d98bc35f958f4883f9d2a90192019061334f565b828054828255906000526020600020908101928215613321579160200282015b8281111561332157825182546001600160a01b0319166001600160a01b039091161782556020909201916001909101906132ec565b5061332d92915061338a565b5090565b5080546000825590600052602060002090810190610bc1919061338a565b828054828255906000526020600020908101928215613321579160200282015b8281111561332157825182559160200191906001019061336f565b5b8082111561332d576000815560010161338b565b600080604083850312156133b257600080fd5b50508035926020909101359150565b6001600160e01b031981168114610bc157600080fd5b6000602082840312156133e957600080fd5b8135610a0c816133c1565b60005b8381101561340f5781810151838201526020016133f7565b8381111561091b5750506000910152565b600081518084526134388160208601602086016133f4565b601f01601f19169290920160200192915050565b602081526000610a0c6020830184613420565b60006020828403121561347157600080fd5b5035919050565b80356001600160a01b0381168114610ddb57600080fd5b600080604083850312156134a257600080fd5b6134ab83613478565b946020939093013593505050565b6000806000606084860312156134ce57600080fd5b833592506134de60208501613478565b9150604084013590509250925092565b60008060006060848603121561350357600080fd5b61350c84613478565b92506134de60208501613478565b60008060006060848603121561352f57600080fd5b505081359360208301359350604090920135919050565b8015158114610bc157600080fd5b6000806000806080858703121561356a57600080fd5b61357385613478565b93506020850135925061358860408601613478565b9150606085013561359881613546565b939692955090935050565b6000602082840312156135b557600080fd5b610a0c82613478565b600080604083850312156135d157600080fd5b6135da83613478565b915060208301356135ea81613546565b809150509250929050565b6000806000806080858703121561360b57600080fd5b61361485613478565b966020860135965060408601359560600135945092505050565b634e487b7160e01b600052604160045260246000fd5b604051601f8201601f1916810167ffffffffffffffff8111828210171561366d5761366d61362e565b604052919050565b600067ffffffffffffffff82111561368f5761368f61362e565b50601f01601f191660200190565b600080600080608085870312156136b357600080fd5b6136bc85613478565b93506136ca60208601613478565b925060408501359150606085013567ffffffffffffffff8111156136ed57600080fd5b8501601f810187136136fe57600080fd5b803561371161370c82613675565b613644565b81815288602083850101111561372657600080fd5b8160208401602083013760006020838301015280935050505092959194509250565b6000806040838503121561375b57600080fd5b8235915061376b60208401613478565b90509250929050565b60008060006060848603121561378957600080fd5b61379284613478565b9250602084013591506137a760408501613478565b90509250925092565b600080604083850312156137c357600080fd5b6137cc83613478565b915061376b60208401613478565b634e487b7160e01b600052603260045260246000fd5b600181811c9082168061380457607f821691505b60208210810361382457634e487b7160e01b600052602260045260246000fd5b50919050565b60208082526022908201527f455243333532353a20617070726f76616c20746f2063757272656e74206f776e60408201526132b960f11b606082015260800190565b6020808252603e908201527f455243333532353a20617070726f76652063616c6c6572206973206e6f74206f60408201527f776e6572206e6f7220617070726f76656420666f7220616c6c2f736c6f740000606082015260800190565b600083516138db8184602088016133f4565b64736c6f742f60d81b90830190815283516138fd8160058401602088016133f4565b01600501949350505050565b60006020828403121561391b57600080fd5b815167ffffffffffffffff81111561393257600080fd5b8201601f8101841361394357600080fd5b805161395161370c82613675565b81815285602083850101111561396657600080fd5b6119b18260208301602086016133f4565b60208082526032908201527f455243333532353a207472616e736665722063616c6c6572206973206e6f74206040820152711bdddb995c881b9bdc88185c1c1c9bdd995960721b606082015260800190565b6020808252602f908201527f455243333532353a2063616c6c6572206973206e6f7420746f6b656e206f776e60408201526e195c881b9bdc88185c1c1c9bdd9959608a1b606082015260800190565b60008351613a2a8184602088016133f4565b835190830190613a3e8183602088016133f4565b01949350505050565b60008351613a598184602088016133f4565b68636f6e74726163742f60b81b9083019081528351613a7f8160098401602088016133f4565b01600901949350505050565b634e487b7160e01b600052601160045260246000fd5b600060018201613ab357613ab3613a8b565b5060010190565b634e487b7160e01b600052601260045260246000fd5b600082613adf57613adf613aba565b500490565b600082821015613af657613af6613a8b565b500390565b600082613b0a57613b0a613aba565b500690565b60008219821115613b2257613b22613a8b565b500190565b60208082526028908201527f455243333532353a207472616e7366657220746f206e6f6e20455243333532356040820152672932b1b2b4bb32b960c11b606082015260800190565b600060208284031215613b8157600080fd5b8151610a0c81613546565b60018060a01b038616815284602082015283604082015282606082015260a060808201526000613bbf60a0830184613420565b979650505050505050565b600060208284031215613bdc57600080fd5b8151610a0c816133c1565b634e487b7160e01b600052603160045260246000fd5b6001600160a01b0385811682528416602082015260408101839052608060608201819052600090613c3090830184613420565b9695505050505050565b6000816000190483118215151615613c5457613c54613a8b565b500290565b600081613c6857613c68613a8b565b50600019019056fe0b2aac84f3ec956911fd78eae5311062972ff949f38412e8da39069d9f068cc6a264697066735822122034561d3ca6cbc262381e585552fa4a9f3ea99846cc43b1021326625615b3b77164736f6c634300080f0033",
  "linkReferences": {},
  "deployedLinkReferences": {}
}