{
  "_format": "hh-sol-artifact-1",
  "contractName": "ERC3525MintableUpgradeable",
  "sourceName": "contracts/ERC3525MintableUpgradeable.sol",
  "abi": [
    {
      "anonymous": false,
      "inputs": [
        {
          "indexed": true,
          "internalType": "address",
          "name": "_owner",
          "type": "address"
        },
        {
          "indexed": true,
          "internalType": "address",
          "name": "_approved",
          "type": "address"
        },
        {
          "indexed": true,
          "internalType": "uint256",
          "name": "_tokenId",
          "type": "uint256"
        }
      ],
      "name": "Approval",
      "type": "event"
    },
    {
      "anonymous": false,
      "inputs": [
        {
          "indexed": true,
          "internalType": "address",
          "name": "_owner",
          "type": "address"
        },
        {
          "indexed": true,
          "internalType": "address",
          "name": "_operator",
          "type": "address"
        },
        {
          "indexed": false,
          "internalType": "bool",
          "name": "_approved",
          "type": "bool"
        }
      ],
      "name": "ApprovalForAll",
      "type": "event"
    },
    {
      "anonymous": false,
      "inputs": [
        {
          "indexed": true,
          "internalType": "uint256",
          "name": "_tokenId",
          "type": "uint256"
        },
        {
          "indexed": true,
          "internalType": "address",
          "name": "_operator",
          "type": "address"
        },
        {
          "indexed": false,
          "internalType": "uint256",
          "name": "_value",
          "type": "uint256"
        }
      ],
      "name": "ApprovalValue",
      "type": "event"
    },
    {
      "anonymous": false,
      "inputs": [
        {
          "indexed": false,
          "internalType": "uint8",
          "name": "version",
          "type": "uint8"
        }
      ],
      "name": "Initialized",
      "type": "event"
    },
    {
      "anonymous": false,
      "inputs": [
        {
          "indexed": true,
          "internalType": "address",
          "name": "metadataDescriptor",
          "type": "address"
        }
      ],
      "name": "SetMetadataDescriptor",
      "type": "event"
    },
    {
      "anonymous": false,
      "inputs": [
        {
          "indexed": true,
          "internalType": "uint256",
          "name": "_tokenId",
          "type": "uint256"
        },
        {
          "indexed": true,
          "internalType": "uint256",
          "name": "_oldSlot",
          "type": "uint256"
        },
        {
          "indexed": true,
          "internalType": "uint256",
          "name": "_newSlot",
          "type": "uint256"
        }
      ],
      "name": "SlotChanged",
      "type": "event"
    },
    {
      "anonymous": false,
      "inputs": [
        {
          "indexed": true,
          "internalType": "address",
          "name": "_from",
          "type": "address"
        },
        {
          "indexed": true,
          "internalType": "address",
          "name": "_to",
          "type": "address"
        },
        {
          "indexed": true,
          "internalType": "uint256",
          "name": "_tokenId",
          "type": "uint256"
        }
      ],
      "name": "Transfer",
      "type": "event"
    },
    {
      "anonymous": false,
      "inputs": [
        {
          "indexed": true,
          "internalType": "uint256",
          "name": "_fromTokenId",
          "type": "uint256"
        },
        {
          "indexed": true,
          "internalType": "uint256",
          "name": "_toTokenId",
          "type": "uint256"
        },
        {
          "indexed": false,
          "internalType": "uint256",
          "name": "_value",
          "type": "uint256"
        }
      ],
      "name": "TransferValue",
      "type": "event"
    },
    {
      "inputs": [
        {
          "internalType": "uint256",
          "name": "tokenId_",
          "type": "uint256"
        },
        {
          "internalType": "address",
          "name": "operator_",
          "type": "address"
        }
      ],
      "name": "allowance",
      "outputs": [
        {
          "internalType": "uint256",
          "name": "",
          "type": "uint256"
        }
      ],
      "stateMutability": "view",
      "type": "function"
    },
    {
      "inputs": [
        {
          "internalType": "address",
          "name": "to_",
          "type": "address"
        },
        {
          "internalType": "uint256",
          "name": "tokenId_",
          "type": "uint256"
        }
      ],
      "name": "approve",
      "outputs": [],
      "stateMutability": "payable",
      "type": "function"
    },
    {
      "inputs": [
        {
          "internalType": "uint256",
          "name": "tokenId_",
          "type": "uint256"
        },
        {
          "internalType": "address",
          "name": "to_",
          "type": "address"
        },
        {
          "internalType": "uint256",
          "name": "value_",
          "type": "uint256"
        }
      ],
      "name": "approve",
      "outputs": [],
      "stateMutability": "payable",
      "type": "function"
    },
    {
      "inputs": [
        {
          "internalType": "address",
          "name": "owner_",
          "type": "address"
        }
      ],
      "name": "balanceOf",
      "outputs": [
        {
          "internalType": "uint256",
          "name": "balance",
          "type": "uint256"
        }
      ],
      "stateMutability": "view",
      "type": "function"
    },
    {
      "inputs": [
        {
          "internalType": "uint256",
          "name": "tokenId_",
          "type": "uint256"
        }
      ],
      "name": "balanceOf",
      "outputs": [
        {
          "internalType": "uint256",
          "name": "",
          "type": "uint256"
        }
      ],
      "stateMutability": "view",
      "type": "function"
    },
    {
      "inputs": [],
      "name": "contractURI",
      "outputs": [
        {
          "internalType": "string",
          "name": "",
          "type": "string"
        }
      ],
      "stateMutability": "view",
      "type": "function"
    },
    {
      "inputs": [
        {
          "internalType": "uint256",
          "name": "tokenId_",
          "type": "uint256"
        }
      ],
      "name": "getApproved",
      "outputs": [
        {
          "internalType": "address",
          "name": "",
          "type": "address"
        }
      ],
      "stateMutability": "view",
      "type": "function"
    },
    {
      "inputs": [
        {
          "internalType": "address",
          "name": "owner_",
          "type": "address"
        },
        {
          "internalType": "address",
          "name": "operator_",
          "type": "address"
        }
      ],
      "name": "isApprovedForAll",
      "outputs": [
        {
          "internalType": "bool",
          "name": "",
          "type": "bool"
        }
      ],
      "stateMutability": "view",
      "type": "function"
    },
    {
      "inputs": [],
      "name": "metadataDescriptor",
      "outputs": [
        {
          "internalType": "contract IERC3525MetadataDescriptorUpgradeable",
          "name": "",
          "type": "address"
        }
      ],
      "stateMutability": "view",
      "type": "function"
    },
    {
      "inputs": [
        {
          "internalType": "address",
          "name": "mintTo_",
          "type": "address"
        },
        {
          "internalType": "uint256",
          "name": "tokenId_",
          "type": "uint256"
        },
        {
          "internalType": "uint256",
          "name": "slot_",
          "type": "uint256"
        },
        {
          "internalType": "uint256",
          "name": "value_",
          "type": "uint256"
        }
      ],
      "name": "mint",
      "outputs": [],
      "stateMutability": "nonpayable",
      "type": "function"
    },
    {
      "inputs": [
        {
          "internalType": "uint256",
          "name": "tokenId_",
          "type": "uint256"
        },
        {
          "internalType": "uint256",
          "name": "value_",
          "type": "uint256"
        }
      ],
      "name": "mintValue",
      "outputs": [],
      "stateMutability": "nonpayable",
      "type": "function"
    },
    {
      "inputs": [],
      "name": "name",
      "outputs": [
        {
          "internalType": "string",
          "name": "",
          "type": "string"
        }
      ],
      "stateMutability": "view",
      "type": "function"
    },
    {
      "inputs": [
        {
          "internalType": "uint256",
          "name": "tokenId_",
          "type": "uint256"
        }
      ],
      "name": "ownerOf",
      "outputs": [
        {
          "internalType": "address",
          "name": "owner_",
          "type": "address"
        }
      ],
      "stateMutability": "view",
      "type": "function"
    },
    {
      "inputs": [
        {
          "internalType": "address",
          "name": "from_",
          "type": "address"
        },
        {
          "internalType": "address",
          "name": "to_",
          "type": "address"
        },
        {
          "internalType": "uint256",
          "name": "tokenId_",
          "type": "uint256"
        }
      ],
      "name": "safeTransferFrom",
      "outputs": [],
      "stateMutability": "payable",
      "type": "function"
    },
    {
      "inputs": [
        {
          "internalType": "address",
          "name": "from_",
          "type": "address"
        },
        {
          "internalType": "address",
          "name": "to_",
          "type": "address"
        },
        {
          "internalType": "uint256",
          "name": "tokenId_",
          "type": "uint256"
        },
        {
          "internalType": "bytes",
          "name": "data_",
          "type": "bytes"
        }
      ],
      "name": "safeTransferFrom",
      "outputs": [],
      "stateMutability": "payable",
      "type": "function"
    },
    {
      "inputs": [
        {
          "internalType": "address",
          "name": "operator_",
          "type": "address"
        },
        {
          "internalType": "bool",
          "name": "approved_",
          "type": "bool"
        }
      ],
      "name": "setApprovalForAll",
      "outputs": [],
      "stateMutability": "nonpayable",
      "type": "function"
    },
    {
      "inputs": [
        {
          "internalType": "uint256",
          "name": "tokenId_",
          "type": "uint256"
        }
      ],
      "name": "slotOf",
      "outputs": [
        {
          "internalType": "uint256",
          "name": "",
          "type": "uint256"
        }
      ],
      "stateMutability": "view",
      "type": "function"
    },
    {
      "inputs": [
        {
          "internalType": "uint256",
          "name": "slot_",
          "type": "uint256"
        }
      ],
      "name": "slotURI",
      "outputs": [
        {
          "internalType": "string",
          "name": "",
          "type": "string"
        }
      ],
      "stateMutability": "view",
      "type": "function"
    },
    {
      "inputs": [
        {
          "internalType": "bytes4",
          "name": "interfaceId",
          "type": "bytes4"
        }
      ],
      "name": "supportsInterface",
      "outputs": [
        {
          "internalType": "bool",
          "name": "",
          "type": "bool"
        }
      ],
      "stateMutability": "view",
      "type": "function"
    },
    {
      "inputs": [],
      "name": "symbol",
      "outputs": [
        {
          "internalType": "string",
          "name": "",
          "type": "string"
        }
      ],
      "stateMutability": "view",
      "type": "function"
    },
    {
      "inputs": [
        {
          "internalType": "uint256",
          "name": "index_",
          "type": "uint256"
        }
      ],
      "name": "tokenByIndex",
      "outputs": [
        {
          "internalType": "uint256",
          "name": "",
          "type": "uint256"
        }
      ],
      "stateMutability": "view",
      "type": "function"
    },
    {
      "inputs": [
        {
          "internalType": "address",
          "name": "owner_",
          "type": "address"
        },
        {
          "internalType": "uint256",
          "name": "index_",
          "type": "uint256"
        }
      ],
      "name": "tokenOfOwnerByIndex",
      "outputs": [
        {
          "internalType": "uint256",
          "name": "",
          "type": "uint256"
        }
      ],
      "stateMutability": "view",
      "type": "function"
    },
    {
      "inputs": [
        {
          "internalType": "uint256",
          "name": "tokenId_",
          "type": "uint256"
        }
      ],
      "name": "tokenURI",
      "outputs": [
        {
          "internalType": "string",
          "name": "",
          "type": "string"
        }
      ],
      "stateMutability": "view",
      "type": "function"
    },
    {
      "inputs": [],
      "name": "totalSupply",
      "outputs": [
        {
          "internalType": "uint256",
          "name": "",
          "type": "uint256"
        }
      ],
      "stateMutability": "view",
      "type": "function"
    },
    {
      "inputs": [
        {
          "internalType": "uint256",
          "name": "fromTokenId_",
          "type": "uint256"
        },
        {
          "internalType": "address",
          "name": "to_",
          "type": "address"
        },
        {
          "internalType": "uint256",
          "name": "value_",
          "type": "uint256"
        }
      ],
      "name": "transferFrom",
      "outputs": [
        {
          "internalType": "uint256",
          "name": "",
          "type": "uint256"
        }
      ],
      "stateMutability": "payable",
      "type": "function"
    },
    {
      "inputs": [
        {
          "internalType": "address",
          "name": "from_",
          "type": "address"
        },
        {
          "internalType": "address",
          "name": "to_",
          "type": "address"
        },
        {
          "internalType": "uint256",
          "name": "tokenId_",
          "type": "uint256"
        }
      ],
      "name": "transferFrom",
      "outputs": [],
      "stateMutability": "payable",
      "type": "function"
    },
    {
      "inputs": [
        {
          "internalType": "uint256",
          "name": "fromTokenId_",
          "type": "uint256"
        },
        {
          "internalType": "uint256",
          "name": "toTokenId_",
          "type": "uint256"
        },
        {
          "internalType": "uint256",
          "name": "value_",
          "type": "uint256"
        }
      ],
      "name": "transferFrom",
      "outputs": [],
      "stateMutability": "payable",
      "type": "function"
    },
    {
      "inputs": [],
      "name": "valueDecimals",
      "outputs": [
        {
          "internalType": "uint8",
          "name": "",
          "type": "uint8"
        }
      ],
      "stateMutability": "view",
      "type": "function"
    }
  ],
  "bytecode": "0x608060405234801561001057600080fd5b50612ced806100206000396000f3fe6080604052600436106101b75760003560e01c80636352211e116100ec578063a647e8ec1161008a578063e345e0bc11610064578063e345e0bc1461048c578063e8a3d485146104ac578063e985e9c5146104c1578063f0e88e7f1461050e57600080fd5b8063a647e8ec14610439578063b88d4fde14610459578063c87b56dd1461046c57600080fd5b80638cb0a511116100c65780638cb0a511146103d157806395d89b41146103e45780639cc7f708146103f9578063a22cb4651461041957600080fd5b80636352211e1461037157806370a0823114610391578063840f7113146103b157600080fd5b806323b872dd11610159578063310ed7f011610133578063310ed7f0146103095780633e7e86691461031c57806342842e0e1461033e5780634f6ccce71461035157600080fd5b806323b872dd146102b6578063263f3e7e146102c95780632f745c59146102e957600080fd5b8063095ea7b311610195578063095ea7b31461024b57806309c3dd87146102605780630f485c021461028057806318160ddd146102a157600080fd5b806301ffc9a7146101bc57806306fdde03146101f1578063081812fc14610213575b600080fd5b3480156101c857600080fd5b506101dc6101d73660046124cd565b61052e565b60405190151581526020015b60405180910390f35b3480156101fd57600080fd5b506102066105d1565b6040516101e89190612542565b34801561021f57600080fd5b5061023361022e366004612555565b610663565b6040516001600160a01b0390911681526020016101e8565b61025e610259366004612585565b6106b5565b005b34801561026c57600080fd5b5061020661027b366004612555565b610743565b61029361028e3660046125af565b610835565b6040519081526020016101e8565b3480156102ad57600080fd5b50603854610293565b61025e6102c43660046125e4565b610877565b3480156102d557600080fd5b506102936102e4366004612555565b6108a8565b3480156102f557600080fd5b50610293610304366004612585565b6108f0565b61025e610317366004612610565b610991565b34801561032857600080fd5b5060355460405160ff90911681526020016101e8565b61025e61034c3660046125e4565b6109a7565b34801561035d57600080fd5b5061029361036c366004612555565b6109c2565b34801561037d57600080fd5b5061023361038c366004612555565b610a53565b34801561039d57600080fd5b506102936103ac36600461263c565b610aef565b3480156103bd57600080fd5b50603b54610233906001600160a01b031681565b61025e6103df3660046125af565b610b77565b3480156103f057600080fd5b50610206610bfe565b34801561040557600080fd5b50610293610414366004612555565b610c0d565b34801561042557600080fd5b5061025e610434366004612665565b610c55565b34801561044557600080fd5b5061025e61045436600461269c565b610c64565b61025e610467366004612744565b610c70565b34801561047857600080fd5b50610206610487366004612555565b610ca2565b34801561049857600080fd5b506102936104a73660046127ef565b610d41565b3480156104b857600080fd5b50610206610d75565b3480156104cd57600080fd5b506101dc6104dc36600461281b565b6001600160a01b039182166000908152603a602090815260408083209390941682526002909201909152205460ff1690565b34801561051a57600080fd5b5061025e610529366004612845565b610e6f565b60006001600160e01b031982166301ffc9a760e01b148061055f57506001600160e01b03198216630354d60560e61b145b8061057a57506001600160e01b031982166380ac58cd60e01b145b8061059557506001600160e01b031982166370b0048160e11b145b806105b057506001600160e01b0319821663780e9d6360e01b145b806105cb57506001600160e01b03198216635b5e139f60e01b145b92915050565b6060603380546105e090612867565b80601f016020809104026020016040519081016040528092919081815260200182805461060c90612867565b80156106595780601f1061062e57610100808354040283529160200191610659565b820191906000526020600020905b81548152906001019060200180831161063c57829003601f168201915b5050505050905090565b600061066e82610e79565b600082815260396020526040902054603880549091908110610692576106926128a1565b60009182526020909120600460069092020101546001600160a01b031692915050565b60006106c082610a53565b9050806001600160a01b0316836001600160a01b0316036106fc5760405162461bcd60e51b81526004016106f3906128b7565b60405180910390fd5b336001600160a01b0382161480610718575061071881336104dc565b6107345760405162461bcd60e51b81526004016106f3906128f9565b61073e8383610ecd565b505050565b6060600061075c60408051602081019091526000815290565b603b549091506001600160a01b03166107bc57600081511161078d576040518060200160405280600081525061082e565b8061079784610f64565b6040516020016107a8929190612956565b60405160208183030381529060405261082e565b603b54604051633601bfc560e11b8152600481018590526001600160a01b0390911690636c037f8a906024015b600060405180830381865afa158015610806573d6000803e3d6000fd5b505050506040513d6000823e601f3d908101601f1916820160405261082e9190810190612996565b9392505050565b6000610842338584611065565b600061084d856110f5565b9050610864848261085d886108a8565b60006110ff565b61086f858285611229565b949350505050565b61088133826114db565b61089d5760405162461bcd60e51b81526004016106f390612a0d565b61073e838383611543565b60006108b382610e79565b6000828152603960205260409020546038805490919081106108d7576108d76128a1565b9060005260206000209060060201600101549050919050565b60006108fb83610aef565b82106109545760405162461bcd60e51b815260206004820152602260248201527f455243333532353a206f776e657220696e646578206f7574206f6620626f756e604482015261647360f01b60648201526084016106f3565b6001600160a01b0383166000908152603a6020526040902080548390811061097e5761097e6128a1565b9060005260206000200154905092915050565b61099c338483611065565b61073e838383611229565b61073e83838360405180602001604052806000815250610c70565b60006109cd60385490565b8210610a275760405162461bcd60e51b815260206004820152602360248201527f455243333532353a20676c6f62616c20696e646578206f7574206f6620626f756044820152626e647360e81b60648201526084016106f3565b60388281548110610a3a57610a3a6128a1565b9060005260206000209060060201600001549050919050565b6000610a5e82610e79565b600082815260396020526040902054603880549091908110610a8257610a826128a1565b60009182526020909120600360069092020101546001600160a01b0316905080610aea5760405162461bcd60e51b8152602060048201526019602482015278115490cccd4c8d4e881a5b9d985b1a59081d1bdad95b881251603a1b60448201526064016106f3565b919050565b60006001600160a01b038216610b5b5760405162461bcd60e51b815260206004820152602b60248201527f455243333532353a2062616c616e636520717565727920666f7220746865207a60448201526a65726f206164647265737360a81b60648201526084016106f3565b506001600160a01b03166000908152603a602052604090205490565b6000610b8284610a53565b9050806001600160a01b0316836001600160a01b031603610bb55760405162461bcd60e51b81526004016106f3906128b7565b336001600160a01b0382161480610bd15750610bd181336104dc565b610bed5760405162461bcd60e51b81526004016106f3906128f9565b610bf88484846116a4565b50505050565b6060603480546105e090612867565b6000610c1882610e79565b600082815260396020526040902054603880549091908110610c3c57610c3c6128a1565b9060005260206000209060060201600201549050919050565b610c603383836117dc565b5050565b610bf8848484846110ff565b610c7a33836114db565b610c965760405162461bcd60e51b81526004016106f390612a0d565b610bf8848484846118a6565b6060610cad82610e79565b6000610cc460408051602081019091526000815290565b603b549091506001600160a01b0316610d10576000815111610cf5576040518060200160405280600081525061082e565b80610cff84610f64565b6040516020016107a8929190612a5f565b603b546040516344a5a61760e11b8152600481018590526001600160a01b039091169063894b4c2e906024016107e9565b6000610d4c83610e79565b5060009182526037602090815260408084206001600160a01b0393909316845291905290205490565b60606000610d8e60408051602081019091526000815290565b603b549091506001600160a01b0316610dee576000815111610dbf5760405180602001604052806000815250610e69565b80610dc930611919565b604051602001610dda929190612a8e565b604051602081830303815290604052610e69565b603b60009054906101000a90046001600160a01b03166001600160a01b031663725fa09c6040518163ffffffff1660e01b8152600401600060405180830381865afa158015610e41573d6000803e3d6000fd5b505050506040513d6000823e601f3d908101601f19168201604052610e699190810190612996565b91505090565b610c60828261192f565b610e828161195c565b610eca5760405162461bcd60e51b8152602060048201526019602482015278115490cccd4c8d4e881a5b9d985b1a59081d1bdad95b881251603a1b60448201526064016106f3565b50565b600081815260396020526040902054603880548492908110610ef157610ef16128a1565b6000918252602090912060069091020160040180546001600160a01b0319166001600160a01b0392831617905581908316610f2b82610a53565b6001600160a01b03167f8c5be1e5ebec7d5bd14f71427d1e84f3dd0314c0f7b2291e5b200ac8c7c3b92560405160405180910390a45050565b606081600003610f8b5750506040805180820190915260018152600360fc1b602082015290565b8160005b8115610fb55780610f9f81612ae8565b9150610fae9050600a83612b17565b9150610f8f565b60008167ffffffffffffffff811115610fd057610fd06126d5565b6040519080825280601f01601f191660200182016040528015610ffa576020820181803683370190505b5090505b841561086f5761100f600183612b2b565b915061101c600a86612b42565b611027906030612b56565b60f81b81838151811061103c5761103c6128a1565b60200101906001600160f81b031916908160001a90535061105e600a86612b17565b9450610ffe565b60006110718385610d41565b905061107d84846114db565b15801561108c57506000198114155b15610bf857818110156110e15760405162461bcd60e51b815260206004820152601f60248201527f455243333532353a20696e73756666696369656e7420616c6c6f77616e63650060448201526064016106f3565b610bf883856110f08585612b2b565b6116a4565b60006105cb6119a8565b6001600160a01b03841661115f5760405162461bcd60e51b815260206004820152602160248201527f455243333532353a206d696e7420746f20746865207a65726f206164647265736044820152607360f81b60648201526084016106f3565b826000036111b95760405162461bcd60e51b815260206004820152602160248201527f455243333532353a2063616e6e6f74206d696e74207a65726f20746f6b656e496044820152601960fa1b60648201526084016106f3565b6111c28361195c565b1561120f5760405162461bcd60e51b815260206004820152601d60248201527f455243333532353a20746f6b656e20616c7265616479206d696e74656400000060448201526064016106f3565b61121a8484846119bf565b6112248382611a85565b610bf8565b6112328361195c565b61128e5760405162461bcd60e51b815260206004820152602760248201527f455243333532353a207472616e736665722066726f6d20696e76616c696420746044820152661bdad95b88125160ca1b60648201526084016106f3565b6112978261195c565b6112f15760405162461bcd60e51b815260206004820152602560248201527f455243333532353a207472616e7366657220746f20696e76616c696420746f6b604482015264195b88125160da1b60648201526084016106f3565b600083815260396020526040812054603880549091908110611315576113156128a1565b906000526020600020906006020190506000603860396000868152602001908152602001600020548154811061134d5761134d6128a1565b9060005260206000209060060201905082826002015410156113c45760405162461bcd60e51b815260206004820152602a60248201527f455243333532353a20696e73756666696369656e742062616c616e636520666f60448201526939103a3930b739b332b960b11b60648201526084016106f3565b80600101548260010154146114325760405162461bcd60e51b815260206004820152602e60248201527f455243333532353a207472616e7366657220746f20746f6b656e20776974682060448201526d191a5999995c995b9d081cdb1bdd60921b60648201526084016106f3565b828260020160008282546114469190612b2b565b92505081905550828160020160008282546114619190612b56565b9091555050604051838152849086907f0b2aac84f3ec956911fd78eae5311062972ff949f38412e8da39069d9f068cc69060200160405180910390a36114b885858560405180602001604052806000815250611b0a565b6114d45760405162461bcd60e51b81526004016106f390612b6e565b5050505050565b60006114e682610e79565b60006114f183610a53565b9050806001600160a01b0316846001600160a01b03161480611518575061151881856104dc565b8061086f5750836001600160a01b031661153184610663565b6001600160a01b031614949350505050565b826001600160a01b031661155682610a53565b6001600160a01b0316146115b85760405162461bcd60e51b8152602060048201526024808201527f455243333532353a207472616e736665722066726f6d20696e76616c6964206f6044820152633bb732b960e11b60648201526084016106f3565b6001600160a01b03821661161c5760405162461bcd60e51b815260206004820152602560248201527f455243333532353a207472616e7366657220746f20746865207a65726f206164604482015264647265737360d81b60648201526084016106f3565b6000611627826108a8565b9050600061163483610c0d565b9050611641600084610ecd565b61164a83611c8e565b6116548584611d2a565b61165e8484611e4b565b82846001600160a01b0316866001600160a01b03167fddf252ad1be2c89b69c2b068fc378daa952ba7f163c4a11628f55a4df523b3ef60405160405180910390a46114d4565b6001600160a01b03821661170d5760405162461bcd60e51b815260206004820152602a60248201527f455243333532353a20617070726f76652076616c756520746f20746865207a65604482015269726f206164647265737360b01b60648201526084016106f3565b6117178284611ed4565b61177d5760008381526039602052604090205460388054909190811061173f5761173f6128a1565b60009182526020808320600692909202909101600501805460018101825590835291200180546001600160a01b0319166001600160a01b0384161790555b60008381526037602090815260408083206001600160a01b038616808552908352928190208490555183815285917f621b050de0ad08b51d19b48b3e6df75348c4de6bdd93e81b252ca62e28265b1b91015b60405180910390a3505050565b816001600160a01b0316836001600160a01b03160361183d5760405162461bcd60e51b815260206004820152601a60248201527f455243333532353a20617070726f766520746f2063616c6c657200000000000060448201526064016106f3565b6001600160a01b038381166000818152603a602090815260408083209487168084526002909501825291829020805460ff191686151590811790915591519182527f17307eab39ab6107e8899845ad3d59bd9653f200f220920489ca2b5937696c3191016117cf565b6118b1848484611543565b6118bd84848484611fa7565b610bf85760405162461bcd60e51b815260206004820152602760248201527f455243333532353a207472616e7366657220746f206e6f6e204552433732315260448201526632b1b2b4bb32b960c91b60648201526084016106f3565b60606105cb6001600160a01b0383166014612154565b61193882610e79565b600061194383610a53565b90506000611950846108a8565b90506112248484611a85565b603854600090158015906105cb575060008281526039602052604090205460388054849290811061198f5761198f6128a1565b9060005260206000209060060201600001541492915050565b60006119b8603680546001019055565b5060365490565b6040805160c081018252838152602080820184905260008284018190526001600160a01b038716606084015260808301819052835181815291820190935260a08201529050611a0d816122f0565b611a178484611e4b565b60405183906001600160a01b038616906000907fddf252ad1be2c89b69c2b068fc378daa952ba7f163c4a11628f55a4df523b3ef908290a4816000847fe4f48c240d3b994948aa54f3e2f5fca59263dfe1d52b6e4cf39a5d249b5ccb6560405160405180910390a450505050565b600082815260396020526040902054603880548392908110611aa957611aa96128a1565b90600052602060002090600602016002016000828254611ac99190612b56565b909155505060405181815282906000907f0b2aac84f3ec956911fd78eae5311062972ff949f38412e8da39069d9f068cc69060200160405180910390a35050565b600080611b1685610a53565b90506001600160a01b0381163b15158015611b9a57506040516301ffc9a760e01b8152629ce20b60e01b60048201526001600160a01b038216906301ffc9a790602401602060405180830381865afa158015611b76573d6000803e3d6000fd5b505050506040513d601f19601f82011682018060405250810190611b9a9190612bb6565b15611c8457604051629ce20b60e01b81526001600160a01b03821690629ce20b90611bd19033908a908a908a908a90600401612bd3565b6020604051808303816000875af1925050508015611c0c575060408051601f3d908101601f19168201909252611c0991810190612c11565b60015b611c69573d808015611c3a576040519150601f19603f3d011682016040523d82523d6000602084013e611c3f565b606091505b508051600003611c615760405162461bcd60e51b81526004016106f390612b6e565b805181602001fd5b6001600160e01b031916629ce20b60e01b14915061086f9050565b600191505061086f565b600081815260396020526040812054603880549091908110611cb257611cb26128a1565b600091825260208220600560069092020190810154909250905b81811015610bf8576000836005018281548110611ceb57611ceb6128a1565b60009182526020808320909101548783526037825260408084206001600160a01b03909216845291528120555080611d2281612ae8565b915050611ccc565b600081815260396020526040812054603880549091908110611d4e57611d4e6128a1565b6000918252602080832060069290920290910160030180546001600160a01b0319166001600160a01b039485161790559184168152603a909152604081208054909190611d9d90600190612b2b565b90506000826000018281548110611db657611db66128a1565b90600052602060002001549050600083600101600086815260200190815260200160002054905081846000018281548110611df357611df36128a1565b60009182526020808320909101929092558381526001860190915260408082208390558682528120558354849080611e2d57611e2d612c2e565b60019003818190600052602060002001600090559055505050505050565b600081815260396020526040902054603880548492908110611e6f57611e6f6128a1565b6000918252602080832060069290920290910160030180546001600160a01b0319166001600160a01b03948516179055939091168152603a80845260408083208054858552600182810188529285208190559286529082018155825292902090910155565b600081815260396020526040812054603880548392908110611ef857611ef86128a1565b6000918252602082206005600690920201015491505b81811015611f9c57600084815260396020526040902054603880546001600160a01b03881692908110611f4357611f436128a1565b90600052602060002090600602016005018281548110611f6557611f656128a1565b6000918252602090912001546001600160a01b031603611f8a576001925050506105cb565b80611f9481612ae8565b915050611f0e565b506000949350505050565b60006001600160a01b0384163b1515801561202c57506040516301ffc9a760e01b8152630a85bd0160e11b60048201526001600160a01b038516906301ffc9a790602401602060405180830381865afa158015612008573d6000803e3d6000fd5b505050506040513d601f19601f8201168201806040525081019061202c9190612bb6565b1561214c57604051630a85bd0160e11b81526001600160a01b0385169063150b7a0290612063903390899088908890600401612c44565b6020604051808303816000875af192505050801561209e575060408051601f3d908101601f1916820190925261209b91810190612c11565b60015b612132573d8080156120cc576040519150601f19603f3d011682016040523d82523d6000602084013e6120d1565b606091505b508051600003611c615760405162461bcd60e51b815260206004820152602660248201527f4552433732313a207472616e7366657220746f206e6f6e20455243373231526560448201526531b2b4bb32b960d11b60648201526084016106f3565b6001600160e01b031916630a85bd0160e11b14905061086f565b50600161086f565b60606000612163836002612c81565b61216e906002612b56565b67ffffffffffffffff811115612186576121866126d5565b6040519080825280601f01601f1916602001820160405280156121b0576020820181803683370190505b509050600360fc1b816000815181106121cb576121cb6128a1565b60200101906001600160f81b031916908160001a905350600f60fb1b816001815181106121fa576121fa6128a1565b60200101906001600160f81b031916908160001a905350600061221e846002612c81565b612229906001612b56565b90505b60018111156122a1576f181899199a1a9b1b9c1cb0b131b232b360811b85600f166010811061225d5761225d6128a1565b1a60f81b828281518110612273576122736128a1565b60200101906001600160f81b031916908160001a90535060049490941c9361229a81612ca0565b905061222c565b50831561082e5760405162461bcd60e51b815260206004820181905260248201527f537472696e67733a20686578206c656e67746820696e73756666696369656e7460448201526064016106f3565b603880548251600090815260396020908152604080832084905560018401855593909152835160069092027f38395c5dceade9603479b177b68959049485df8aa97b39f3533039af5f4561998101928355818501517f38395c5dceade9603479b177b68959049485df8aa97b39f3533039af5f45619a820155928401517f38395c5dceade9603479b177b68959049485df8aa97b39f3533039af5f45619b84015560608401517f38395c5dceade9603479b177b68959049485df8aa97b39f3533039af5f45619c840180546001600160a01b039283166001600160a01b03199182161790915560808601517f38395c5dceade9603479b177b68959049485df8aa97b39f3533039af5f45619d8601805491909316911617905560a084015180518594610bf8937f38395c5dceade9603479b177b68959049485df8aa97b39f3533039af5f45619e909101920190828054828255906000526020600020908101928215612492579160200282015b8281111561249257825182546001600160a01b0319166001600160a01b0390911617825560209092019160019091019061245d565b5061249e9291506124a2565b5090565b5b8082111561249e57600081556001016124a3565b6001600160e01b031981168114610eca57600080fd5b6000602082840312156124df57600080fd5b813561082e816124b7565b60005b838110156125055781810151838201526020016124ed565b83811115610bf85750506000910152565b6000815180845261252e8160208601602086016124ea565b601f01601f19169290920160200192915050565b60208152600061082e6020830184612516565b60006020828403121561256757600080fd5b5035919050565b80356001600160a01b0381168114610aea57600080fd5b6000806040838503121561259857600080fd5b6125a18361256e565b946020939093013593505050565b6000806000606084860312156125c457600080fd5b833592506125d46020850161256e565b9150604084013590509250925092565b6000806000606084860312156125f957600080fd5b6126028461256e565b92506125d46020850161256e565b60008060006060848603121561262557600080fd5b505081359360208301359350604090920135919050565b60006020828403121561264e57600080fd5b61082e8261256e565b8015158114610eca57600080fd5b6000806040838503121561267857600080fd5b6126818361256e565b9150602083013561269181612657565b809150509250929050565b600080600080608085870312156126b257600080fd5b6126bb8561256e565b966020860135965060408601359560600135945092505050565b634e487b7160e01b600052604160045260246000fd5b604051601f8201601f1916810167ffffffffffffffff81118282101715612714576127146126d5565b604052919050565b600067ffffffffffffffff821115612736576127366126d5565b50601f01601f191660200190565b6000806000806080858703121561275a57600080fd5b6127638561256e565b93506127716020860161256e565b925060408501359150606085013567ffffffffffffffff81111561279457600080fd5b8501601f810187136127a557600080fd5b80356127b86127b38261271c565b6126eb565b8181528860208385010111156127cd57600080fd5b8160208401602083013760006020838301015280935050505092959194509250565b6000806040838503121561280257600080fd5b823591506128126020840161256e565b90509250929050565b6000806040838503121561282e57600080fd5b6128378361256e565b91506128126020840161256e565b6000806040838503121561285857600080fd5b50508035926020909101359150565b600181811c9082168061287b57607f821691505b60208210810361289b57634e487b7160e01b600052602260045260246000fd5b50919050565b634e487b7160e01b600052603260045260246000fd5b60208082526022908201527f455243333532353a20617070726f76616c20746f2063757272656e74206f776e60408201526132b960f11b606082015260800190565b60208082526039908201527f455243333532353a20617070726f76652063616c6c6572206973206e6f74206f60408201527f776e6572206e6f7220617070726f76656420666f7220616c6c00000000000000606082015260800190565b600083516129688184602088016124ea565b64736c6f742f60d81b908301908152835161298a8160058401602088016124ea565b01600501949350505050565b6000602082840312156129a857600080fd5b815167ffffffffffffffff8111156129bf57600080fd5b8201601f810184136129d057600080fd5b80516129de6127b38261271c565b8181528560208385010111156129f357600080fd5b612a048260208301602086016124ea565b95945050505050565b60208082526032908201527f455243333532353a207472616e736665722063616c6c6572206973206e6f74206040820152711bdddb995c881b9bdc88185c1c1c9bdd995960721b606082015260800190565b60008351612a718184602088016124ea565b835190830190612a858183602088016124ea565b01949350505050565b60008351612aa08184602088016124ea565b68636f6e74726163742f60b81b9083019081528351612ac68160098401602088016124ea565b01600901949350505050565b634e487b7160e01b600052601160045260246000fd5b600060018201612afa57612afa612ad2565b5060010190565b634e487b7160e01b600052601260045260246000fd5b600082612b2657612b26612b01565b500490565b600082821015612b3d57612b3d612ad2565b500390565b600082612b5157612b51612b01565b500690565b60008219821115612b6957612b69612ad2565b500190565b60208082526028908201527f455243333532353a207472616e7366657220746f206e6f6e20455243333532356040820152672932b1b2b4bb32b960c11b606082015260800190565b600060208284031215612bc857600080fd5b815161082e81612657565b60018060a01b038616815284602082015283604082015282606082015260a060808201526000612c0660a0830184612516565b979650505050505050565b600060208284031215612c2357600080fd5b815161082e816124b7565b634e487b7160e01b600052603160045260246000fd5b6001600160a01b0385811682528416602082015260408101839052608060608201819052600090612c7790830184612516565b9695505050505050565b6000816000190483118215151615612c9b57612c9b612ad2565b500290565b600081612caf57612caf612ad2565b50600019019056fea26469706673582212201e339d7dc3807a0eb6e6ad0c38fb5fb3ff4fb4ee0504878028ab991a98c2113a64736f6c634300080f0033",
  "linkReferences": {},
  "deployedLinkReferences": {}
}